{"abi":[{"type":"constructor","inputs":[{"name":"asset_","type":"address","internalType":"address"},{"name":"name_","type":"string","internalType":"string"},{"name":"symbol_","type":"string","internalType":"string"},{"name":"feeRecipient_","type":"address","internalType":"address"},{"name":"entryFeeBp_","type":"uint256","internalType":"uint256"},{"name":"exitFeeBp_","type":"uint256","internalType":"uint256"}],"stateMutability":"nonpayable"},{"type":"function","name":"allowance","inputs":[{"name":"owner","type":"address","internalType":"address"},{"name":"spender","type":"address","internalType":"address"}],"outputs":[{"name":"","type":"uint256","internalType":"uint256"}],"stateMutability":"view"},{"type":"function","name":"approve","inputs":[{"name":"spender","type":"address","internalType":"address"},{"name":"value","type":"uint256","internalType":"uint256"}],"outputs":[{"name":"","type":"bool","internalType":"bool"}],"stateMutability":"nonpayable"},{"type":"function","name":"asset","inputs":[],"outputs":[{"name":"","type":"address","internalType":"address"}],"stateMutability":"view"},{"type":"function","name":"balanceOf","inputs":[{"name":"account","type":"address","internalType":"address"}],"outputs":[{"name":"","type":"uint256","internalType":"uint256"}],"stateMutability":"view"},{"type":"function","name":"convertToAssets","inputs":[{"name":"shares","type":"uint256","internalType":"uint256"}],"outputs":[{"name":"","type":"uint256","internalType":"uint256"}],"stateMutability":"view"},{"type":"function","name":"convertToShares","inputs":[{"name":"assets","type":"uint256","internalType":"uint256"}],"outputs":[{"name":"","type":"uint256","internalType":"uint256"}],"stateMutability":"view"},{"type":"function","name":"decimals","inputs":[],"outputs":[{"name":"","type":"uint8","internalType":"uint8"}],"stateMutability":"view"},{"type":"function","name":"deposit","inputs":[{"name":"assets","type":"uint256","internalType":"uint256"},{"name":"receiver","type":"address","internalType":"address"}],"outputs":[{"name":"","type":"uint256","internalType":"uint256"}],"stateMutability":"nonpayable"},{"type":"function","name":"maxDeposit","inputs":[{"name":"","type":"address","internalType":"address"}],"outputs":[{"name":"","type":"uint256","internalType":"uint256"}],"stateMutability":"view"},{"type":"function","name":"maxMint","inputs":[{"name":"","type":"address","internalType":"address"}],"outputs":[{"name":"","type":"uint256","internalType":"uint256"}],"stateMutability":"view"},{"type":"function","name":"maxRedeem","inputs":[{"name":"owner","type":"address","internalType":"address"}],"outputs":[{"name":"","type":"uint256","internalType":"uint256"}],"stateMutability":"view"},{"type":"function","name":"maxWithdraw","inputs":[{"name":"owner","type":"address","internalType":"address"}],"outputs":[{"name":"","type":"uint256","internalType":"uint256"}],"stateMutability":"view"},{"type":"function","name":"mint","inputs":[{"name":"shares","type":"uint256","internalType":"uint256"},{"name":"receiver","type":"address","internalType":"address"}],"outputs":[{"name":"","type":"uint256","internalType":"uint256"}],"stateMutability":"nonpayable"},{"type":"function","name":"name","inputs":[],"outputs":[{"name":"","type":"string","internalType":"string"}],"stateMutability":"view"},{"type":"function","name":"owner","inputs":[],"outputs":[{"name":"","type":"address","internalType":"address"}],"stateMutability":"view"},{"type":"function","name":"previewDeposit","inputs":[{"name":"assets","type":"uint256","internalType":"uint256"}],"outputs":[{"name":"","type":"uint256","internalType":"uint256"}],"stateMutability":"view"},{"type":"function","name":"previewMint","inputs":[{"name":"shares","type":"uint256","internalType":"uint256"}],"outputs":[{"name":"","type":"uint256","internalType":"uint256"}],"stateMutability":"view"},{"type":"function","name":"previewRedeem","inputs":[{"name":"shares","type":"uint256","internalType":"uint256"}],"outputs":[{"name":"","type":"uint256","internalType":"uint256"}],"stateMutability":"view"},{"type":"function","name":"previewWithdraw","inputs":[{"name":"assets","type":"uint256","internalType":"uint256"}],"outputs":[{"name":"","type":"uint256","internalType":"uint256"}],"stateMutability":"view"},{"type":"function","name":"redeem","inputs":[{"name":"shares","type":"uint256","internalType":"uint256"},{"name":"receiver","type":"address","internalType":"address"},{"name":"owner","type":"address","internalType":"address"}],"outputs":[{"name":"","type":"uint256","internalType":"uint256"}],"stateMutability":"nonpayable"},{"type":"function","name":"renounceOwnership","inputs":[],"outputs":[],"stateMutability":"nonpayable"},{"type":"function","name":"setEntryFeeBp","inputs":[{"name":"newFee","type":"uint256","internalType":"uint256"}],"outputs":[],"stateMutability":"nonpayable"},{"type":"function","name":"setExitFeeBp","inputs":[{"name":"newFee","type":"uint256","internalType":"uint256"}],"outputs":[],"stateMutability":"nonpayable"},{"type":"function","name":"setFeeRecipient","inputs":[{"name":"newRecipient","type":"address","internalType":"address"}],"outputs":[],"stateMutability":"nonpayable"},{"type":"function","name":"symbol","inputs":[],"outputs":[{"name":"","type":"string","internalType":"string"}],"stateMutability":"view"},{"type":"function","name":"totalAssets","inputs":[],"outputs":[{"name":"","type":"uint256","internalType":"uint256"}],"stateMutability":"view"},{"type":"function","name":"totalSupply","inputs":[],"outputs":[{"name":"","type":"uint256","internalType":"uint256"}],"stateMutability":"view"},{"type":"function","name":"transfer","inputs":[{"name":"to","type":"address","internalType":"address"},{"name":"value","type":"uint256","internalType":"uint256"}],"outputs":[{"name":"","type":"bool","internalType":"bool"}],"stateMutability":"nonpayable"},{"type":"function","name":"transferFrom","inputs":[{"name":"from","type":"address","internalType":"address"},{"name":"to","type":"address","internalType":"address"},{"name":"value","type":"uint256","internalType":"uint256"}],"outputs":[{"name":"","type":"bool","internalType":"bool"}],"stateMutability":"nonpayable"},{"type":"function","name":"transferOwnership","inputs":[{"name":"newOwner","type":"address","internalType":"address"}],"outputs":[],"stateMutability":"nonpayable"},{"type":"function","name":"withdraw","inputs":[{"name":"assets","type":"uint256","internalType":"uint256"},{"name":"receiver","type":"address","internalType":"address"},{"name":"owner","type":"address","internalType":"address"}],"outputs":[{"name":"","type":"uint256","internalType":"uint256"}],"stateMutability":"nonpayable"},{"type":"event","name":"Approval","inputs":[{"name":"owner","type":"address","indexed":true,"internalType":"address"},{"name":"spender","type":"address","indexed":true,"internalType":"address"},{"name":"value","type":"uint256","indexed":false,"internalType":"uint256"}],"anonymous":false},{"type":"event","name":"Deposit","inputs":[{"name":"sender","type":"address","indexed":true,"internalType":"address"},{"name":"owner","type":"address","indexed":true,"internalType":"address"},{"name":"assets","type":"uint256","indexed":false,"internalType":"uint256"},{"name":"shares","type":"uint256","indexed":false,"internalType":"uint256"}],"anonymous":false},{"type":"event","name":"EntryFeeUpdated","inputs":[{"name":"newFeeBp","type":"uint256","indexed":false,"internalType":"uint256"}],"anonymous":false},{"type":"event","name":"ExitFeeUpdated","inputs":[{"name":"newFeeBp","type":"uint256","indexed":false,"internalType":"uint256"}],"anonymous":false},{"type":"event","name":"FeeRecipientUpdated","inputs":[{"name":"newRecipient","type":"address","indexed":false,"internalType":"address"}],"anonymous":false},{"type":"event","name":"OwnershipTransferred","inputs":[{"name":"previousOwner","type":"address","indexed":true,"internalType":"address"},{"name":"newOwner","type":"address","indexed":true,"internalType":"address"}],"anonymous":false},{"type":"event","name":"Transfer","inputs":[{"name":"from","type":"address","indexed":true,"internalType":"address"},{"name":"to","type":"address","indexed":true,"internalType":"address"},{"name":"value","type":"uint256","indexed":false,"internalType":"uint256"}],"anonymous":false},{"type":"event","name":"Withdraw","inputs":[{"name":"sender","type":"address","indexed":true,"internalType":"address"},{"name":"receiver","type":"address","indexed":true,"internalType":"address"},{"name":"owner","type":"address","indexed":true,"internalType":"address"},{"name":"assets","type":"uint256","indexed":false,"internalType":"uint256"},{"name":"shares","type":"uint256","indexed":false,"internalType":"uint256"}],"anonymous":false},{"type":"error","name":"AddressEmptyCode","inputs":[{"name":"target","type":"address","internalType":"address"}]},{"type":"error","name":"AddressInsufficientBalance","inputs":[{"name":"account","type":"address","internalType":"address"}]},{"type":"error","name":"ERC20InsufficientAllowance","inputs":[{"name":"spender","type":"address","internalType":"address"},{"name":"allowance","type":"uint256","internalType":"uint256"},{"name":"needed","type":"uint256","internalType":"uint256"}]},{"type":"error","name":"ERC20InsufficientBalance","inputs":[{"name":"sender","type":"address","internalType":"address"},{"name":"balance","type":"uint256","internalType":"uint256"},{"name":"needed","type":"uint256","internalType":"uint256"}]},{"type":"error","name":"ERC20InvalidApprover","inputs":[{"name":"approver","type":"address","internalType":"address"}]},{"type":"error","name":"ERC20InvalidReceiver","inputs":[{"name":"receiver","type":"address","internalType":"address"}]},{"type":"error","name":"ERC20InvalidSender","inputs":[{"name":"sender","type":"address","internalType":"address"}]},{"type":"error","name":"ERC20InvalidSpender","inputs":[{"name":"spender","type":"address","internalType":"address"}]},{"type":"error","name":"ERC4626ExceededMaxDeposit","inputs":[{"name":"receiver","type":"address","internalType":"address"},{"name":"assets","type":"uint256","internalType":"uint256"},{"name":"max","type":"uint256","internalType":"uint256"}]},{"type":"error","name":"ERC4626ExceededMaxMint","inputs":[{"name":"receiver","type":"address","internalType":"address"},{"name":"shares","type":"uint256","internalType":"uint256"},{"name":"max","type":"uint256","internalType":"uint256"}]},{"type":"error","name":"ERC4626ExceededMaxRedeem","inputs":[{"name":"owner","type":"address","internalType":"address"},{"name":"shares","type":"uint256","internalType":"uint256"},{"name":"max","type":"uint256","internalType":"uint256"}]},{"type":"error","name":"ERC4626ExceededMaxWithdraw","inputs":[{"name":"owner","type":"address","internalType":"address"},{"name":"assets","type":"uint256","internalType":"uint256"},{"name":"max","type":"uint256","internalType":"uint256"}]},{"type":"error","name":"FailedInnerCall","inputs":[]},{"type":"error","name":"FeeTooHigh","inputs":[{"name":"requested","type":"uint256","internalType":"uint256"},{"name":"max","type":"uint256","internalType":"uint256"}]},{"type":"error","name":"InvalidAddress","inputs":[]},{"type":"error","name":"MathOverflowedMulDiv","inputs":[]},{"type":"error","name":"OwnableInvalidOwner","inputs":[{"name":"owner","type":"address","internalType":"address"}]},{"type":"error","name":"OwnableUnauthorizedAccount","inputs":[{"name":"account","type":"address","internalType":"address"}]},{"type":"error","name":"SafeERC20FailedOperation","inputs":[{"name":"token","type":"address","internalType":"address"}]}],"bytecode":{"object":"0x60c060405234801561000f575f5ffd5b506040516135953803806135958339818101604052810190610031919061066f565b3386868681600390816100449190610937565b5080600490816100549190610937565b5050505f5f610068836102c960201b60201c565b915091508161007857601261007a565b805b60ff1660a08160ff16815250508273ffffffffffffffffffffffffffffffffffffffff1660808173ffffffffffffffffffffffffffffffffffffffff16815250505050505f73ffffffffffffffffffffffffffffffffffffffff168173ffffffffffffffffffffffffffffffffffffffff160361012e575f6040517f1e4fbdf70000000000000000000000000000000000000000000000000000000081526004016101259190610a15565b60405180910390fd5b61013d816103d260201b60201c565b505f73ffffffffffffffffffffffffffffffffffffffff168673ffffffffffffffffffffffffffffffffffffffff1614806101a357505f73ffffffffffffffffffffffffffffffffffffffff168373ffffffffffffffffffffffffffffffffffffffff16145b156101da576040517fe6c4247b00000000000000000000000000000000000000000000000000000000815260040160405180910390fd5b6103e882111561022557816103e86040517fe757126a00000000000000000000000000000000000000000000000000000000815260040161021c929190610a76565b60405180910390fd5b6103e881111561027057806103e86040517fe757126a000000000000000000000000000000000000000000000000000000008152600401610267929190610a76565b60405180910390fd5b8260085f6101000a81548173ffffffffffffffffffffffffffffffffffffffff021916908373ffffffffffffffffffffffffffffffffffffffff1602179055508160068190555080600781905550505050505050610b22565b5f5f5f5f8473ffffffffffffffffffffffffffffffffffffffff1660405160240160405160208183030381529060405263313ce56760e01b6020820180517bffffffffffffffffffffffffffffffffffffffffffffffffffffffff838183161783525050505060405161033c9190610ae1565b5f60405180830381855afa9150503d805f8114610374576040519150601f19603f3d011682016040523d82523d5f602084013e610379565b606091505b509150915081801561038d57506020815110155b156103c4575f818060200190518101906103a79190610af7565b905060ff801681116103c257600181945094505050506103cd565b505b5f5f9350935050505b915091565b5f60055f9054906101000a900473ffffffffffffffffffffffffffffffffffffffff1690508160055f6101000a81548173ffffffffffffffffffffffffffffffffffffffff021916908373ffffffffffffffffffffffffffffffffffffffff1602179055508173ffffffffffffffffffffffffffffffffffffffff168173ffffffffffffffffffffffffffffffffffffffff167f8be0079c531659141344cd1fd0a4f28419497f9722a3daafe3b4186f6b6457e060405160405180910390a35050565b5f604051905090565b5f5ffd5b5f5ffd5b5f73ffffffffffffffffffffffffffffffffffffffff82169050919050565b5f6104cf826104a6565b9050919050565b6104df816104c5565b81146104e9575f5ffd5b50565b5f815190506104fa816104d6565b92915050565b5f5ffd5b5f5ffd5b5f601f19601f8301169050919050565b7f4e487b71000000000000000000000000000000000000000000000000000000005f52604160045260245ffd5b61054e82610508565b810181811067ffffffffffffffff8211171561056d5761056c610518565b5b80604052505050565b5f61057f610495565b905061058b8282610545565b919050565b5f67ffffffffffffffff8211156105aa576105a9610518565b5b6105b382610508565b9050602081019050919050565b8281835e5f83830152505050565b5f6105e06105db84610590565b610576565b9050828152602081018484840111156105fc576105fb610504565b5b6106078482856105c0565b509392505050565b5f82601f83011261062357610622610500565b5b81516106338482602086016105ce565b91505092915050565b5f819050919050565b61064e8161063c565b8114610658575f5ffd5b50565b5f8151905061066981610645565b92915050565b5f5f5f5f5f5f60c087890312156106895761068861049e565b5b5f61069689828a016104ec565b965050602087015167ffffffffffffffff8111156106b7576106b66104a2565b5b6106c389828a0161060f565b955050604087015167ffffffffffffffff8111156106e4576106e36104a2565b5b6106f089828a0161060f565b945050606061070189828a016104ec565b935050608061071289828a0161065b565b92505060a061072389828a0161065b565b9150509295509295509295565b5f81519050919050565b7f4e487b71000000000000000000000000000000000000000000000000000000005f52602260045260245ffd5b5f600282049050600182168061077e57607f821691505b6020821081036107915761079061073a565b5b50919050565b5f819050815f5260205f209050919050565b5f6020601f8301049050919050565b5f82821b905092915050565b5f600883026107f37fffffffffffffffffffffffffffffffffffffffffffffffffffffffffffffffff826107b8565b6107fd86836107b8565b95508019841693508086168417925050509392505050565b5f819050919050565b5f61083861083361082e8461063c565b610815565b61063c565b9050919050565b5f819050919050565b6108518361081e565b61086561085d8261083f565b8484546107c4565b825550505050565b5f5f905090565b61087c61086d565b610887818484610848565b505050565b5b818110156108aa5761089f5f82610874565b60018101905061088d565b5050565b601f8211156108ef576108c081610797565b6108c9846107a9565b810160208510156108d8578190505b6108ec6108e4856107a9565b83018261088c565b50505b505050565b5f82821c905092915050565b5f61090f5f19846008026108f4565b1980831691505092915050565b5f6109278383610900565b9150826002028217905092915050565b61094082610730565b67ffffffffffffffff81111561095957610958610518565b5b6109638254610767565b61096e8282856108ae565b5f60209050601f83116001811461099f575f841561098d578287015190505b610997858261091c565b8655506109fe565b601f1984166109ad86610797565b5f5b828110156109d4578489015182556001820191506020850194506020810190506109af565b868310156109f157848901516109ed601f891682610900565b8355505b6001600288020188555050505b505050505050565b610a0f816104c5565b82525050565b5f602082019050610a285f830184610a06565b92915050565b610a378161063c565b82525050565b5f819050919050565b5f610a60610a5b610a5684610a3d565b610815565b61063c565b9050919050565b610a7081610a46565b82525050565b5f604082019050610a895f830185610a2e565b610a966020830184610a67565b9392505050565b5f81519050919050565b5f81905092915050565b5f610abb82610a9d565b610ac58185610aa7565b9350610ad58185602086016105c0565b80840191505092915050565b5f610aec8284610ab1565b915081905092915050565b5f60208284031215610b0c57610b0b61049e565b5b5f610b198482850161065b565b91505092915050565b60805160a051612a3d610b585f395f61089801525f81816106c6015281816108c901528181611a1b0152611bae0152612a3d5ff3fe608060405234801561000f575f5ffd5b50600436106101e3575f3560e01c80638da5cb5b1161010d578063c63d75b6116100a0578063dd62ed3e1161006f578063dd62ed3e1461062b578063e74b981b1461065b578063ef8b30f714610677578063f2fde38b146106a7576101e3565b8063c63d75b61461056b578063c6e6f5921461059b578063ce96cb77146105cb578063d905777e146105fb576101e3565b8063b3d7f6b9116100dc578063b3d7f6b9146104bf578063b460af94146104ef578063b82230f01461051f578063ba0876521461053b576101e3565b80638da5cb5b1461042357806394bf804d1461044157806395d89b4114610471578063a9059cbb1461048f576101e3565b8063313ce567116101855780636e553f65116101545780636e553f651461039d57806370a08231146103cd578063715018a6146103fd578063890d0e9114610407576101e3565b8063313ce5671461030157806338d52e0f1461031f578063402d267d1461033d5780634cdad5061461036d576101e3565b8063095ea7b3116101c1578063095ea7b3146102535780630a28a4771461028357806318160ddd146102b357806323b872dd146102d1576101e3565b806301e1d114146101e757806306fdde031461020557806307a2d13a14610223575b5f5ffd5b6101ef6106c3565b6040516101fc9190612161565b60405180910390f35b61020d610761565b60405161021a91906121ea565b60405180910390f35b61023d60048036038101906102389190612238565b6107f1565b60405161024a9190612161565b60405180910390f35b61026d600480360381019061026891906122bd565b610803565b60405161027a9190612315565b60405180910390f35b61029d60048036038101906102989190612238565b610825565b6040516102aa9190612161565b60405180910390f35b6102bb610856565b6040516102c89190612161565b60405180910390f35b6102eb60048036038101906102e6919061232e565b61085f565b6040516102f89190612315565b60405180910390f35b61030961088d565b6040516103169190612399565b60405180910390f35b6103276108c6565b60405161033491906123c1565b60405180910390f35b610357600480360381019061035291906123da565b6108ed565b6040516103649190612161565b60405180910390f35b61038760048036038101906103829190612238565b610916565b6040516103949190612161565b60405180910390f35b6103b760048036038101906103b29190612405565b610947565b6040516103c49190612161565b60405180910390f35b6103e760048036038101906103e291906123da565b6109c7565b6040516103f49190612161565b60405180910390f35b610405610a0c565b005b610421600480360381019061041c9190612238565b610a1f565b005b61042b610ab3565b60405161043891906123c1565b60405180910390f35b61045b60048036038101906104569190612405565b610adb565b6040516104689190612161565b60405180910390f35b610479610b5b565b60405161048691906121ea565b60405180910390f35b6104a960048036038101906104a491906122bd565b610beb565b6040516104b69190612315565b60405180910390f35b6104d960048036038101906104d49190612238565b610c0d565b6040516104e69190612161565b60405180910390f35b61050960048036038101906105049190612443565b610c3e565b6040516105169190612161565b60405180910390f35b61053960048036038101906105349190612238565b610cc0565b005b61055560048036038101906105509190612443565b610d54565b6040516105629190612161565b60405180910390f35b610585600480360381019061058091906123da565b610dd6565b6040516105929190612161565b60405180910390f35b6105b560048036038101906105b09190612238565b610dff565b6040516105c29190612161565b60405180910390f35b6105e560048036038101906105e091906123da565b610e11565b6040516105f29190612161565b60405180910390f35b610615600480360381019061061091906123da565b610e2b565b6040516106229190612161565b60405180910390f35b61064560048036038101906106409190612493565b610e3c565b6040516106529190612161565b60405180910390f35b610675600480360381019061067091906123da565b610ebe565b005b610691600480360381019061068c9190612238565b610fa5565b60405161069e9190612161565b60405180910390f35b6106c160048036038101906106bc91906123da565b610fd6565b005b5f7f000000000000000000000000000000000000000000000000000000000000000073ffffffffffffffffffffffffffffffffffffffff166370a08231306040518263ffffffff1660e01b815260040161071d91906123c1565b602060405180830381865afa158015610738573d5f5f3e3d5ffd5b505050506040513d601f19601f8201168201806040525081019061075c91906124e5565b905090565b6060600380546107709061253d565b80601f016020809104026020016040519081016040528092919081815260200182805461079c9061253d565b80156107e75780601f106107be576101008083540402835291602001916107e7565b820191905f5260205f20905b8154815290600101906020018083116107ca57829003601f168201915b5050505050905090565b5f6107fc825f61105a565b9050919050565b5f5f61080d6110b2565b905061081a8185856110b9565b600191505092915050565b5f5f610838836108336110cb565b6110d4565b905061084e8184610849919061259a565b6110f7565b915050919050565b5f600254905090565b5f5f6108696110b2565b905061087685828561110a565b61088185858561119c565b60019150509392505050565b5f61089661128c565b7f00000000000000000000000000000000000000000000000000000000000000006108c191906125cd565b905090565b5f7f0000000000000000000000000000000000000000000000000000000000000000905090565b5f7fffffffffffffffffffffffffffffffffffffffffffffffffffffffffffffffff9050919050565b5f5f61092183611293565b90506109348161092f6110cb565b6112a5565b8161093f9190612601565b915050919050565b5f5f610952836108ed565b90508084111561099d578284826040517f79012fb200000000000000000000000000000000000000000000000000000000815260040161099493929190612634565b60405180910390fd5b5f6109a785610fa5565b90506109bc6109b46110b2565b8587846112d3565b809250505092915050565b5f5f5f8373ffffffffffffffffffffffffffffffffffffffff1673ffffffffffffffffffffffffffffffffffffffff1681526020019081526020015f20549050919050565b610a14611359565b610a1d5f6113e0565b565b610a27611359565b6103e8811115610a7257806103e86040517fe757126a000000000000000000000000000000000000000000000000000000008152600401610a699291906126ab565b60405180910390fd5b806006819055507f24a0b2e591795f2c27be52ff14a57d0a39ac957304305bc05e8b04be49e8fe1581604051610aa89190612161565b60405180910390a150565b5f60055f9054906101000a900473ffffffffffffffffffffffffffffffffffffffff16905090565b5f5f610ae683610dd6565b905080841115610b31578284826040517f284ff667000000000000000000000000000000000000000000000000000000008152600401610b2893929190612634565b60405180910390fd5b5f610b3b85610c0d565b9050610b50610b486110b2565b8583886112d3565b809250505092915050565b606060048054610b6a9061253d565b80601f0160208091040260200160405190810160405280929190818152602001828054610b969061253d565b8015610be15780601f10610bb857610100808354040283529160200191610be1565b820191905f5260205f20905b815481529060010190602001808311610bc457829003601f168201915b5050505050905090565b5f5f610bf56110b2565b9050610c0281858561119c565b600191505092915050565b5f5f610c18836114a3565b9050610c2b81610c266114b6565b6110d4565b81610c36919061259a565b915050919050565b5f5f610c4983610e11565b905080851115610c94578285826040517ffe9cceec000000000000000000000000000000000000000000000000000000008152600401610c8b93929190612634565b60405180910390fd5b5f610c9e86610825565b9050610cb4610cab6110b2565b868689856114bf565b80925050509392505050565b610cc8611359565b6103e8811115610d1357806103e86040517fe757126a000000000000000000000000000000000000000000000000000000008152600401610d0a9291906126ab565b60405180910390fd5b806007819055507f859032f804ed5430b8e45b8150b2ba750fc74328fe3b00f4fc89d50198983b2181604051610d499190612161565b60405180910390a150565b5f5f610d5f83610e2b565b905080851115610daa578285826040517fb94abeec000000000000000000000000000000000000000000000000000000008152600401610da193929190612634565b60405180910390fd5b5f610db486610916565b9050610dca610dc16110b2565b8686848a6114bf565b80925050509392505050565b5f7fffffffffffffffffffffffffffffffffffffffffffffffffffffffffffffffff9050919050565b5f610e0a825f611547565b9050919050565b5f610e24610e1e836109c7565b5f61105a565b9050919050565b5f610e35826109c7565b9050919050565b5f60015f8473ffffffffffffffffffffffffffffffffffffffff1673ffffffffffffffffffffffffffffffffffffffff1681526020019081526020015f205f8373ffffffffffffffffffffffffffffffffffffffff1673ffffffffffffffffffffffffffffffffffffffff1681526020019081526020015f2054905092915050565b610ec6611359565b5f73ffffffffffffffffffffffffffffffffffffffff168173ffffffffffffffffffffffffffffffffffffffff1603610f2b576040517fe6c4247b00000000000000000000000000000000000000000000000000000000815260040160405180910390fd5b8060085f6101000a81548173ffffffffffffffffffffffffffffffffffffffff021916908373ffffffffffffffffffffffffffffffffffffffff1602179055507f7a7b5a0a132f9e0581eb8527f66eae9ee89c2a3e79d4ac7e41a1f1f4d48a7fc281604051610f9a91906123c1565b60405180910390a150565b5f5f610fb883610fb36114b6565b6112a5565b9050610fce8184610fc99190612601565b61159f565b915050919050565b610fde611359565b5f73ffffffffffffffffffffffffffffffffffffffff168173ffffffffffffffffffffffffffffffffffffffff160361104e575f6040517f1e4fbdf700000000000000000000000000000000000000000000000000000000815260040161104591906123c1565b60405180910390fd5b611057816113e0565b50565b5f6110aa60016110686106c3565b611072919061259a565b61107a61128c565b600a6110869190612801565b61108e610856565b611098919061259a565b84866115b1909392919063ffffffff16565b905092915050565b5f33905090565b6110c68383836001611606565b505050565b5f600754905090565b5f6110ef826127106001866115b1909392919063ffffffff16565b905092915050565b5f611103826001611547565b9050919050565b5f6111158484610e3c565b90507fffffffffffffffffffffffffffffffffffffffffffffffffffffffffffffffff81146111965781811015611187578281836040517ffb8f41b200000000000000000000000000000000000000000000000000000000815260040161117e93929190612634565b60405180910390fd5b61119584848484035f611606565b5b50505050565b5f73ffffffffffffffffffffffffffffffffffffffff168373ffffffffffffffffffffffffffffffffffffffff160361120c575f6040517f96c6fd1e00000000000000000000000000000000000000000000000000000000815260040161120391906123c1565b60405180910390fd5b5f73ffffffffffffffffffffffffffffffffffffffff168273ffffffffffffffffffffffffffffffffffffffff160361127c575f6040517fec442f0500000000000000000000000000000000000000000000000000000000815260040161127391906123c1565b60405180910390fd5b6112878383836117d5565b505050565b5f5f905090565b5f61129e825f61105a565b9050919050565b5f6112cb82612710846112b8919061259a565b6001866115b1909392919063ffffffff16565b905092915050565b5f6112e5836112e06114b6565b6112a5565b90505f6112f06119ee565b90506112fe86868686611a16565b5f8211801561133957503073ffffffffffffffffffffffffffffffffffffffff168173ffffffffffffffffffffffffffffffffffffffff1614155b15611351576113506113496108c6565b8284611ab9565b5b505050505050565b6113616110b2565b73ffffffffffffffffffffffffffffffffffffffff1661137f610ab3565b73ffffffffffffffffffffffffffffffffffffffff16146113de576113a26110b2565b6040517f118cdaa70000000000000000000000000000000000000000000000000000000081526004016113d591906123c1565b60405180910390fd5b565b5f60055f9054906101000a900473ffffffffffffffffffffffffffffffffffffffff1690508160055f6101000a81548173ffffffffffffffffffffffffffffffffffffffff021916908373ffffffffffffffffffffffffffffffffffffffff1602179055508173ffffffffffffffffffffffffffffffffffffffff168173ffffffffffffffffffffffffffffffffffffffff167f8be0079c531659141344cd1fd0a4f28419497f9722a3daafe3b4186f6b6457e060405160405180910390a35050565b5f6114af82600161105a565b9050919050565b5f600654905090565b5f6114d1836114cc6110cb565b6110d4565b90505f6114dc611b38565b90506114eb8787878787611b60565b5f8211801561152657503073ffffffffffffffffffffffffffffffffffffffff168173ffffffffffffffffffffffffffffffffffffffff1614155b1561153e5761153d6115366108c6565b8284611ab9565b5b50505050505050565b5f61159761155361128c565b600a61155f9190612801565b611567610856565b611571919061259a565b600161157b6106c3565b611585919061259a565b84866115b1909392919063ffffffff16565b905092915050565b5f6115aa825f611547565b9050919050565b5f5f6115be868686611c59565b90506115c983611d58565b80156115e557505f84806115e0576115df61284b565b5b868809115b156115fa576001816115f7919061259a565b90505b80915050949350505050565b5f73ffffffffffffffffffffffffffffffffffffffff168473ffffffffffffffffffffffffffffffffffffffff1603611676575f6040517fe602df0500000000000000000000000000000000000000000000000000000000815260040161166d91906123c1565b60405180910390fd5b5f73ffffffffffffffffffffffffffffffffffffffff168373ffffffffffffffffffffffffffffffffffffffff16036116e6575f6040517f94280d620000000000000000000000000000000000000000000000000000000081526004016116dd91906123c1565b60405180910390fd5b8160015f8673ffffffffffffffffffffffffffffffffffffffff1673ffffffffffffffffffffffffffffffffffffffff1681526020019081526020015f205f8573ffffffffffffffffffffffffffffffffffffffff1673ffffffffffffffffffffffffffffffffffffffff1681526020019081526020015f208190555080156117cf578273ffffffffffffffffffffffffffffffffffffffff168473ffffffffffffffffffffffffffffffffffffffff167f8c5be1e5ebec7d5bd14f71427d1e84f3dd0314c0f7b2291e5b200ac8c7c3b925846040516117c69190612161565b60405180910390a35b50505050565b5f73ffffffffffffffffffffffffffffffffffffffff168373ffffffffffffffffffffffffffffffffffffffff1603611825578060025f828254611819919061259a565b925050819055506118f3565b5f5f5f8573ffffffffffffffffffffffffffffffffffffffff1673ffffffffffffffffffffffffffffffffffffffff1681526020019081526020015f20549050818110156118ae578381836040517fe450d38c0000000000000000000000000000000000000000000000000000000081526004016118a593929190612634565b60405180910390fd5b8181035f5f8673ffffffffffffffffffffffffffffffffffffffff1673ffffffffffffffffffffffffffffffffffffffff1681526020019081526020015f2081905550505b5f73ffffffffffffffffffffffffffffffffffffffff168273ffffffffffffffffffffffffffffffffffffffff160361193a578060025f8282540392505081905550611984565b805f5f8473ffffffffffffffffffffffffffffffffffffffff1673ffffffffffffffffffffffffffffffffffffffff1681526020019081526020015f205f82825401925050819055505b8173ffffffffffffffffffffffffffffffffffffffff168373ffffffffffffffffffffffffffffffffffffffff167fddf252ad1be2c89b69c2b068fc378daa952ba7f163c4a11628f55a4df523b3ef836040516119e19190612161565b60405180910390a3505050565b5f60085f9054906101000a900473ffffffffffffffffffffffffffffffffffffffff16905090565b611a427f0000000000000000000000000000000000000000000000000000000000000000853085611d85565b611a4c8382611e07565b8273ffffffffffffffffffffffffffffffffffffffff168473ffffffffffffffffffffffffffffffffffffffff167fdcbc1c05240f31ff3ad067ef1ee35ce4997762752e3a095284754544f4c709d78484604051611aab929190612878565b60405180910390a350505050565b611b33838473ffffffffffffffffffffffffffffffffffffffff1663a9059cbb8585604051602401611aec92919061289f565b604051602081830303815290604052915060e01b6020820180517bffffffffffffffffffffffffffffffffffffffffffffffffffffffff8381831617835250505050611e86565b505050565b5f60085f9054906101000a900473ffffffffffffffffffffffffffffffffffffffff16905090565b8273ffffffffffffffffffffffffffffffffffffffff168573ffffffffffffffffffffffffffffffffffffffff1614611b9f57611b9e83868361110a565b5b611ba98382611f1b565b611bd47f00000000000000000000000000000000000000000000000000000000000000008584611ab9565b8273ffffffffffffffffffffffffffffffffffffffff168473ffffffffffffffffffffffffffffffffffffffff168673ffffffffffffffffffffffffffffffffffffffff167ffbde797d201c681b91056529119e0b02407c7bb96a4a2c75c01fc9667232c8db8585604051611c4a929190612878565b60405180910390a45050505050565b5f5f83850290505f5f19858709828110838203039150505f8103611c9157838281611c8757611c8661284b565b5b0492505050611d51565b808411611cca576040517f227bc15300000000000000000000000000000000000000000000000000000000815260040160405180910390fd5b5f8486880990508281118203915080830392505f855f038616905080860495508084049350600181825f0304019050808302841793505f600287600302189050808702600203810290508087026002038102905080870260020381029050808702600203810290508087026002038102905080870260020381029050808502955050505050505b9392505050565b5f60016002836003811115611d7057611d6f6128c6565b5b611d7a91906128f3565b60ff16149050919050565b611e01848573ffffffffffffffffffffffffffffffffffffffff166323b872dd868686604051602401611dba93929190612923565b604051602081830303815290604052915060e01b6020820180517bffffffffffffffffffffffffffffffffffffffffffffffffffffffff8381831617835250505050611e86565b50505050565b5f73ffffffffffffffffffffffffffffffffffffffff168273ffffffffffffffffffffffffffffffffffffffff1603611e77575f6040517fec442f05000000000000000000000000000000000000000000000000000000008152600401611e6e91906123c1565b60405180910390fd5b611e825f83836117d5565b5050565b5f611eb0828473ffffffffffffffffffffffffffffffffffffffff16611f9a90919063ffffffff16565b90505f815114158015611ed4575080806020019051810190611ed29190612982565b155b15611f1657826040517f5274afe7000000000000000000000000000000000000000000000000000000008152600401611f0d91906123c1565b60405180910390fd5b505050565b5f73ffffffffffffffffffffffffffffffffffffffff168273ffffffffffffffffffffffffffffffffffffffff1603611f8b575f6040517f96c6fd1e000000000000000000000000000000000000000000000000000000008152600401611f8291906123c1565b60405180910390fd5b611f96825f836117d5565b5050565b6060611fa783835f611faf565b905092915050565b606081471015611ff657306040517fcd786059000000000000000000000000000000000000000000000000000000008152600401611fed91906123c1565b60405180910390fd5b5f5f8573ffffffffffffffffffffffffffffffffffffffff16848660405161201e91906129f1565b5f6040518083038185875af1925050503d805f8114612058576040519150601f19603f3d011682016040523d82523d5f602084013e61205d565b606091505b509150915061206d868383612078565b925050509392505050565b60608261208d5761208882612105565b6120fd565b5f82511480156120b357505f8473ffffffffffffffffffffffffffffffffffffffff163b145b156120f557836040517f9996b3150000000000000000000000000000000000000000000000000000000081526004016120ec91906123c1565b60405180910390fd5b8190506120fe565b5b9392505050565b5f815111156121175780518082602001fd5b6040517f1425ea4200000000000000000000000000000000000000000000000000000000815260040160405180910390fd5b5f819050919050565b61215b81612149565b82525050565b5f6020820190506121745f830184612152565b92915050565b5f81519050919050565b5f82825260208201905092915050565b8281835e5f83830152505050565b5f601f19601f8301169050919050565b5f6121bc8261217a565b6121c68185612184565b93506121d6818560208601612194565b6121df816121a2565b840191505092915050565b5f6020820190508181035f83015261220281846121b2565b905092915050565b5f5ffd5b61221781612149565b8114612221575f5ffd5b50565b5f813590506122328161220e565b92915050565b5f6020828403121561224d5761224c61220a565b5b5f61225a84828501612224565b91505092915050565b5f73ffffffffffffffffffffffffffffffffffffffff82169050919050565b5f61228c82612263565b9050919050565b61229c81612282565b81146122a6575f5ffd5b50565b5f813590506122b781612293565b92915050565b5f5f604083850312156122d3576122d261220a565b5b5f6122e0858286016122a9565b92505060206122f185828601612224565b9150509250929050565b5f8115159050919050565b61230f816122fb565b82525050565b5f6020820190506123285f830184612306565b92915050565b5f5f5f606084860312156123455761234461220a565b5b5f612352868287016122a9565b9350506020612363868287016122a9565b925050604061237486828701612224565b9150509250925092565b5f60ff82169050919050565b6123938161237e565b82525050565b5f6020820190506123ac5f83018461238a565b92915050565b6123bb81612282565b82525050565b5f6020820190506123d45f8301846123b2565b92915050565b5f602082840312156123ef576123ee61220a565b5b5f6123fc848285016122a9565b91505092915050565b5f5f6040838503121561241b5761241a61220a565b5b5f61242885828601612224565b9250506020612439858286016122a9565b9150509250929050565b5f5f5f6060848603121561245a5761245961220a565b5b5f61246786828701612224565b9350506020612478868287016122a9565b9250506040612489868287016122a9565b9150509250925092565b5f5f604083850312156124a9576124a861220a565b5b5f6124b6858286016122a9565b92505060206124c7858286016122a9565b9150509250929050565b5f815190506124df8161220e565b92915050565b5f602082840312156124fa576124f961220a565b5b5f612507848285016124d1565b91505092915050565b7f4e487b71000000000000000000000000000000000000000000000000000000005f52602260045260245ffd5b5f600282049050600182168061255457607f821691505b60208210810361256757612566612510565b5b50919050565b7f4e487b71000000000000000000000000000000000000000000000000000000005f52601160045260245ffd5b5f6125a482612149565b91506125af83612149565b92508282019050808211156125c7576125c661256d565b5b92915050565b5f6125d78261237e565b91506125e28361237e565b9250828201905060ff8111156125fb576125fa61256d565b5b92915050565b5f61260b82612149565b915061261683612149565b925082820390508181111561262e5761262d61256d565b5b92915050565b5f6060820190506126475f8301866123b2565b6126546020830185612152565b6126616040830184612152565b949350505050565b5f819050919050565b5f819050919050565b5f61269561269061268b84612669565b612672565b612149565b9050919050565b6126a58161267b565b82525050565b5f6040820190506126be5f830185612152565b6126cb602083018461269c565b9392505050565b5f8160011c9050919050565b5f5f8291508390505b6001851115612727578086048111156127035761270261256d565b5b60018516156127125780820291505b8081029050612720856126d2565b94506126e7565b94509492505050565b5f8261273f57600190506127fa565b8161274c575f90506127fa565b8160018114612762576002811461276c5761279b565b60019150506127fa565b60ff84111561277e5761277d61256d565b5b8360020a9150848211156127955761279461256d565b5b506127fa565b5060208310610133831016604e8410600b84101617156127d05782820a9050838111156127cb576127ca61256d565b5b6127fa565b6127dd84848460016126de565b925090508184048111156127f4576127f361256d565b5b81810290505b9392505050565b5f61280b82612149565b91506128168361237e565b92506128437fffffffffffffffffffffffffffffffffffffffffffffffffffffffffffffffff8484612730565b905092915050565b7f4e487b71000000000000000000000000000000000000000000000000000000005f52601260045260245ffd5b5f60408201905061288b5f830185612152565b6128986020830184612152565b9392505050565b5f6040820190506128b25f8301856123b2565b6128bf6020830184612152565b9392505050565b7f4e487b71000000000000000000000000000000000000000000000000000000005f52602160045260245ffd5b5f6128fd8261237e565b91506129088361237e565b9250826129185761291761284b565b5b828206905092915050565b5f6060820190506129365f8301866123b2565b61294360208301856123b2565b6129506040830184612152565b949350505050565b612961816122fb565b811461296b575f5ffd5b50565b5f8151905061297c81612958565b92915050565b5f602082840312156129975761299661220a565b5b5f6129a48482850161296e565b91505092915050565b5f81519050919050565b5f81905092915050565b5f6129cb826129ad565b6129d581856129b7565b93506129e5818560208601612194565b80840191505092915050565b5f6129fc82846129c1565b91508190509291505056fea26469706673582212200ef17e15459c5668323486c141e7450e712d0b5cb49605260d340c6bff18c43164736f6c634300081e0033","linkReferences":{}},"methodIdentifiers":{"allowance(address,address)":"dd62ed3e","approve(address,uint256)":"095ea7b3","asset()":"38d52e0f","balanceOf(address)":"70a08231","convertToAssets(uint256)":"07a2d13a","convertToShares(uint256)":"c6e6f592","decimals()":"313ce567","deposit(uint256,address)":"6e553f65","maxDeposit(address)":"402d267d","maxMint(address)":"c63d75b6","maxRedeem(address)":"d905777e","maxWithdraw(address)":"ce96cb77","mint(uint256,address)":"94bf804d","name()":"06fdde03","owner()":"8da5cb5b","previewDeposit(uint256)":"ef8b30f7","previewMint(uint256)":"b3d7f6b9","previewRedeem(uint256)":"4cdad506","previewWithdraw(uint256)":"0a28a477","redeem(uint256,address,address)":"ba087652","renounceOwnership()":"715018a6","setEntryFeeBp(uint256)":"890d0e91","setExitFeeBp(uint256)":"b82230f0","setFeeRecipient(address)":"e74b981b","symbol()":"95d89b41","totalAssets()":"01e1d114","totalSupply()":"18160ddd","transfer(address,uint256)":"a9059cbb","transferFrom(address,address,uint256)":"23b872dd","transferOwnership(address)":"f2fde38b","withdraw(uint256,address,address)":"b460af94"},"id":12}