{"abi":[{"type":"constructor","inputs":[{"name":"initialAdmin","type":"address","internalType":"address"}],"stateMutability":"nonpayable"},{"type":"function","name":"ADMIN","inputs":[],"outputs":[{"name":"","type":"bytes32","internalType":"bytes32"}],"stateMutability":"view"},{"type":"function","name":"DEFAULT_ADMIN_ROLE","inputs":[],"outputs":[{"name":"","type":"bytes32","internalType":"bytes32"}],"stateMutability":"view"},{"type":"function","name":"EMPLOYEE","inputs":[],"outputs":[{"name":"","type":"bytes32","internalType":"bytes32"}],"stateMutability":"view"},{"type":"function","name":"MANAGER","inputs":[],"outputs":[{"name":"","type":"bytes32","internalType":"bytes32"}],"stateMutability":"view"},{"type":"function","name":"addEmployee","inputs":[{"name":"employee","type":"address","internalType":"address"}],"outputs":[],"stateMutability":"nonpayable"},{"type":"function","name":"addManager","inputs":[{"name":"manager","type":"address","internalType":"address"}],"outputs":[],"stateMutability":"nonpayable"},{"type":"function","name":"approve","inputs":[{"name":"to","type":"address","internalType":"address"},{"name":"tokenId","type":"uint256","internalType":"uint256"}],"outputs":[],"stateMutability":"nonpayable"},{"type":"function","name":"assets","inputs":[{"name":"","type":"uint256","internalType":"uint256"}],"outputs":[{"name":"name","type":"string","internalType":"string"},{"name":"description","type":"string","internalType":"string"},{"name":"value","type":"uint256","internalType":"uint256"},{"name":"creationDate","type":"uint256","internalType":"uint256"},{"name":"responsible","type":"address","internalType":"address"}],"stateMutability":"view"},{"type":"function","name":"balanceOf","inputs":[{"name":"owner","type":"address","internalType":"address"}],"outputs":[{"name":"","type":"uint256","internalType":"uint256"}],"stateMutability":"view"},{"type":"function","name":"createAsset","inputs":[{"name":"to","type":"address","internalType":"address"},{"name":"name","type":"string","internalType":"string"},{"name":"description","type":"string","internalType":"string"},{"name":"value","type":"uint256","internalType":"uint256"},{"name":"uri","type":"string","internalType":"string"}],"outputs":[{"name":"","type":"uint256","internalType":"uint256"}],"stateMutability":"nonpayable"},{"type":"function","name":"getApproved","inputs":[{"name":"tokenId","type":"uint256","internalType":"uint256"}],"outputs":[{"name":"","type":"address","internalType":"address"}],"stateMutability":"view"},{"type":"function","name":"getAsset","inputs":[{"name":"tokenId","type":"uint256","internalType":"uint256"}],"outputs":[{"name":"","type":"tuple","internalType":"struct CompanyAsset.Asset","components":[{"name":"name","type":"string","internalType":"string"},{"name":"description","type":"string","internalType":"string"},{"name":"value","type":"uint256","internalType":"uint256"},{"name":"creationDate","type":"uint256","internalType":"uint256"},{"name":"responsible","type":"address","internalType":"address"}]}],"stateMutability":"view"},{"type":"function","name":"getRoleAdmin","inputs":[{"name":"role","type":"bytes32","internalType":"bytes32"}],"outputs":[{"name":"","type":"bytes32","internalType":"bytes32"}],"stateMutability":"view"},{"type":"function","name":"getTotalAssets","inputs":[],"outputs":[{"name":"","type":"uint256","internalType":"uint256"}],"stateMutability":"view"},{"type":"function","name":"grantRole","inputs":[{"name":"role","type":"bytes32","internalType":"bytes32"},{"name":"account","type":"address","internalType":"address"}],"outputs":[],"stateMutability":"nonpayable"},{"type":"function","name":"hasRole","inputs":[{"name":"role","type":"bytes32","internalType":"bytes32"},{"name":"account","type":"address","internalType":"address"}],"outputs":[{"name":"","type":"bool","internalType":"bool"}],"stateMutability":"view"},{"type":"function","name":"isApprovedForAll","inputs":[{"name":"owner","type":"address","internalType":"address"},{"name":"operator","type":"address","internalType":"address"}],"outputs":[{"name":"","type":"bool","internalType":"bool"}],"stateMutability":"view"},{"type":"function","name":"name","inputs":[],"outputs":[{"name":"","type":"string","internalType":"string"}],"stateMutability":"view"},{"type":"function","name":"ownerOf","inputs":[{"name":"tokenId","type":"uint256","internalType":"uint256"}],"outputs":[{"name":"","type":"address","internalType":"address"}],"stateMutability":"view"},{"type":"function","name":"removeEmployee","inputs":[{"name":"employee","type":"address","internalType":"address"}],"outputs":[],"stateMutability":"nonpayable"},{"type":"function","name":"removeManager","inputs":[{"name":"manager","type":"address","internalType":"address"}],"outputs":[],"stateMutability":"nonpayable"},{"type":"function","name":"renounceRole","inputs":[{"name":"role","type":"bytes32","internalType":"bytes32"},{"name":"callerConfirmation","type":"address","internalType":"address"}],"outputs":[],"stateMutability":"nonpayable"},{"type":"function","name":"revokeRole","inputs":[{"name":"role","type":"bytes32","internalType":"bytes32"},{"name":"account","type":"address","internalType":"address"}],"outputs":[],"stateMutability":"nonpayable"},{"type":"function","name":"safeTransferFrom","inputs":[{"name":"from","type":"address","internalType":"address"},{"name":"to","type":"address","internalType":"address"},{"name":"tokenId","type":"uint256","internalType":"uint256"}],"outputs":[],"stateMutability":"nonpayable"},{"type":"function","name":"safeTransferFrom","inputs":[{"name":"from","type":"address","internalType":"address"},{"name":"to","type":"address","internalType":"address"},{"name":"tokenId","type":"uint256","internalType":"uint256"},{"name":"data","type":"bytes","internalType":"bytes"}],"outputs":[],"stateMutability":"nonpayable"},{"type":"function","name":"setApprovalForAll","inputs":[{"name":"operator","type":"address","internalType":"address"},{"name":"approved","type":"bool","internalType":"bool"}],"outputs":[],"stateMutability":"nonpayable"},{"type":"function","name":"supportsInterface","inputs":[{"name":"interfaceId","type":"bytes4","internalType":"bytes4"}],"outputs":[{"name":"","type":"bool","internalType":"bool"}],"stateMutability":"view"},{"type":"function","name":"symbol","inputs":[],"outputs":[{"name":"","type":"string","internalType":"string"}],"stateMutability":"view"},{"type":"function","name":"tokenURI","inputs":[{"name":"tokenId","type":"uint256","internalType":"uint256"}],"outputs":[{"name":"","type":"string","internalType":"string"}],"stateMutability":"view"},{"type":"function","name":"transferAsset","inputs":[{"name":"tokenId","type":"uint256","internalType":"uint256"},{"name":"newResponsible","type":"address","internalType":"address"}],"outputs":[],"stateMutability":"nonpayable"},{"type":"function","name":"transferFrom","inputs":[{"name":"from","type":"address","internalType":"address"},{"name":"to","type":"address","internalType":"address"},{"name":"tokenId","type":"uint256","internalType":"uint256"}],"outputs":[],"stateMutability":"nonpayable"},{"type":"function","name":"updateAssetDescription","inputs":[{"name":"tokenId","type":"uint256","internalType":"uint256"},{"name":"newDescription","type":"string","internalType":"string"}],"outputs":[],"stateMutability":"nonpayable"},{"type":"function","name":"updateAssetValue","inputs":[{"name":"tokenId","type":"uint256","internalType":"uint256"},{"name":"newValue","type":"uint256","internalType":"uint256"}],"outputs":[],"stateMutability":"nonpayable"},{"type":"event","name":"Approval","inputs":[{"name":"owner","type":"address","indexed":true,"internalType":"address"},{"name":"approved","type":"address","indexed":true,"internalType":"address"},{"name":"tokenId","type":"uint256","indexed":true,"internalType":"uint256"}],"anonymous":false},{"type":"event","name":"ApprovalForAll","inputs":[{"name":"owner","type":"address","indexed":true,"internalType":"address"},{"name":"operator","type":"address","indexed":true,"internalType":"address"},{"name":"approved","type":"bool","indexed":false,"internalType":"bool"}],"anonymous":false},{"type":"event","name":"AssetCreated","inputs":[{"name":"tokenId","type":"uint256","indexed":true,"internalType":"uint256"},{"name":"name","type":"string","indexed":false,"internalType":"string"},{"name":"responsible","type":"address","indexed":true,"internalType":"address"},{"name":"value","type":"uint256","indexed":false,"internalType":"uint256"}],"anonymous":false},{"type":"event","name":"AssetDescriptionUpdated","inputs":[{"name":"tokenId","type":"uint256","indexed":true,"internalType":"uint256"},{"name":"updatedBy","type":"address","indexed":true,"internalType":"address"}],"anonymous":false},{"type":"event","name":"AssetTransferred","inputs":[{"name":"tokenId","type":"uint256","indexed":true,"internalType":"uint256"},{"name":"from","type":"address","indexed":true,"internalType":"address"},{"name":"to","type":"address","indexed":true,"internalType":"address"}],"anonymous":false},{"type":"event","name":"AssetValueUpdated","inputs":[{"name":"tokenId","type":"uint256","indexed":true,"internalType":"uint256"},{"name":"oldValue","type":"uint256","indexed":false,"internalType":"uint256"},{"name":"newValue","type":"uint256","indexed":false,"internalType":"uint256"}],"anonymous":false},{"type":"event","name":"BatchMetadataUpdate","inputs":[{"name":"_fromTokenId","type":"uint256","indexed":false,"internalType":"uint256"},{"name":"_toTokenId","type":"uint256","indexed":false,"internalType":"uint256"}],"anonymous":false},{"type":"event","name":"EmployeeAdded","inputs":[{"name":"employee","type":"address","indexed":true,"internalType":"address"},{"name":"addedBy","type":"address","indexed":true,"internalType":"address"}],"anonymous":false},{"type":"event","name":"EmployeeRemoved","inputs":[{"name":"employee","type":"address","indexed":true,"internalType":"address"},{"name":"removedBy","type":"address","indexed":true,"internalType":"address"}],"anonymous":false},{"type":"event","name":"ManagerAdded","inputs":[{"name":"manager","type":"address","indexed":true,"internalType":"address"},{"name":"addedBy","type":"address","indexed":true,"internalType":"address"}],"anonymous":false},{"type":"event","name":"ManagerRemoved","inputs":[{"name":"manager","type":"address","indexed":true,"internalType":"address"},{"name":"removedBy","type":"address","indexed":true,"internalType":"address"}],"anonymous":false},{"type":"event","name":"MetadataUpdate","inputs":[{"name":"_tokenId","type":"uint256","indexed":false,"internalType":"uint256"}],"anonymous":false},{"type":"event","name":"RoleAdminChanged","inputs":[{"name":"role","type":"bytes32","indexed":true,"internalType":"bytes32"},{"name":"previousAdminRole","type":"bytes32","indexed":true,"internalType":"bytes32"},{"name":"newAdminRole","type":"bytes32","indexed":true,"internalType":"bytes32"}],"anonymous":false},{"type":"event","name":"RoleGranted","inputs":[{"name":"role","type":"bytes32","indexed":true,"internalType":"bytes32"},{"name":"account","type":"address","indexed":true,"internalType":"address"},{"name":"sender","type":"address","indexed":true,"internalType":"address"}],"anonymous":false},{"type":"event","name":"RoleRevoked","inputs":[{"name":"role","type":"bytes32","indexed":true,"internalType":"bytes32"},{"name":"account","type":"address","indexed":true,"internalType":"address"},{"name":"sender","type":"address","indexed":true,"internalType":"address"}],"anonymous":false},{"type":"event","name":"Transfer","inputs":[{"name":"from","type":"address","indexed":true,"internalType":"address"},{"name":"to","type":"address","indexed":true,"internalType":"address"},{"name":"tokenId","type":"uint256","indexed":true,"internalType":"uint256"}],"anonymous":false},{"type":"error","name":"AccessControlBadConfirmation","inputs":[]},{"type":"error","name":"AccessControlUnauthorizedAccount","inputs":[{"name":"account","type":"address","internalType":"address"},{"name":"neededRole","type":"bytes32","internalType":"bytes32"}]},{"type":"error","name":"AssetNotFound","inputs":[{"name":"tokenId","type":"uint256","internalType":"uint256"}]},{"type":"error","name":"ERC721IncorrectOwner","inputs":[{"name":"sender","type":"address","internalType":"address"},{"name":"tokenId","type":"uint256","internalType":"uint256"},{"name":"owner","type":"address","internalType":"address"}]},{"type":"error","name":"ERC721InsufficientApproval","inputs":[{"name":"operator","type":"address","internalType":"address"},{"name":"tokenId","type":"uint256","internalType":"uint256"}]},{"type":"error","name":"ERC721InvalidApprover","inputs":[{"name":"approver","type":"address","internalType":"address"}]},{"type":"error","name":"ERC721InvalidOperator","inputs":[{"name":"operator","type":"address","internalType":"address"}]},{"type":"error","name":"ERC721InvalidOwner","inputs":[{"name":"owner","type":"address","internalType":"address"}]},{"type":"error","name":"ERC721InvalidReceiver","inputs":[{"name":"receiver","type":"address","internalType":"address"}]},{"type":"error","name":"ERC721InvalidSender","inputs":[{"name":"sender","type":"address","internalType":"address"}]},{"type":"error","name":"ERC721NonexistentToken","inputs":[{"name":"tokenId","type":"uint256","internalType":"uint256"}]},{"type":"error","name":"EmptyAssetName","inputs":[]},{"type":"error","name":"InsufficientPermissions","inputs":[{"name":"user","type":"address","internalType":"address"},{"name":"requiredRole","type":"bytes32","internalType":"bytes32"}]},{"type":"error","name":"InvalidAddress","inputs":[{"name":"addr","type":"address","internalType":"address"}]},{"type":"error","name":"NotTokenOwner","inputs":[{"name":"caller","type":"address","internalType":"address"},{"name":"tokenId","type":"uint256","internalType":"uint256"}]},{"type":"error","name":"SameResponsible","inputs":[{"name":"current","type":"address","internalType":"address"},{"name":"new_","type":"address","internalType":"address"}]},{"type":"error","name":"ZeroValue","inputs":[]}],"bytecode":{"object":"0x60806040526001600855348015610014575f5ffd5b506040516146e13803806146e18339818101604052810190610036919061033c565b6040518060400160405280600c81526020017f436f6d70616e79417373657400000000000000000000000000000000000000008152506040518060400160405280600381526020017f434d500000000000000000000000000000000000000000000000000000000000815250815f90816100b091906105a4565b5080600190816100c091906105a4565b5050505f73ffffffffffffffffffffffffffffffffffffffff168173ffffffffffffffffffffffffffffffffffffffff160361013357806040517f8e4c8aa600000000000000000000000000000000000000000000000000000000815260040161012a9190610682565b60405180910390fd5b6101455f5f1b8261017d60201b60201c565b506101767fdf8b4c520ffe197c5343c6f5aec59570151ef9a492f2c624fd45ddde6135ec428261017d60201b60201c565b505061069b565b5f61018e838361027360201b60201c565b61026957600160075f8581526020019081526020015f205f015f8473ffffffffffffffffffffffffffffffffffffffff1673ffffffffffffffffffffffffffffffffffffffff1681526020019081526020015f205f6101000a81548160ff0219169083151502179055506102066102d760201b60201c565b73ffffffffffffffffffffffffffffffffffffffff168273ffffffffffffffffffffffffffffffffffffffff16847f2f8788117e7eff1d82e926ec794901d17c78024a50270940304540a733656f0d60405160405180910390a46001905061026d565b5f90505b92915050565b5f60075f8481526020019081526020015f205f015f8373ffffffffffffffffffffffffffffffffffffffff1673ffffffffffffffffffffffffffffffffffffffff1681526020019081526020015f205f9054906101000a900460ff16905092915050565b5f33905090565b5f5ffd5b5f73ffffffffffffffffffffffffffffffffffffffff82169050919050565b5f61030b826102e2565b9050919050565b61031b81610301565b8114610325575f5ffd5b50565b5f8151905061033681610312565b92915050565b5f60208284031215610351576103506102de565b5b5f61035e84828501610328565b91505092915050565b5f81519050919050565b7f4e487b71000000000000000000000000000000000000000000000000000000005f52604160045260245ffd5b7f4e487b71000000000000000000000000000000000000000000000000000000005f52602260045260245ffd5b5f60028204905060018216806103e257607f821691505b6020821081036103f5576103f461039e565b5b50919050565b5f819050815f5260205f209050919050565b5f6020601f8301049050919050565b5f82821b905092915050565b5f600883026104577fffffffffffffffffffffffffffffffffffffffffffffffffffffffffffffffff8261041c565b610461868361041c565b95508019841693508086168417925050509392505050565b5f819050919050565b5f819050919050565b5f6104a56104a061049b84610479565b610482565b610479565b9050919050565b5f819050919050565b6104be8361048b565b6104d26104ca826104ac565b848454610428565b825550505050565b5f5f905090565b6104e96104da565b6104f48184846104b5565b505050565b5b818110156105175761050c5f826104e1565b6001810190506104fa565b5050565b601f82111561055c5761052d816103fb565b6105368461040d565b81016020851015610545578190505b6105596105518561040d565b8301826104f9565b50505b505050565b5f82821c905092915050565b5f61057c5f1984600802610561565b1980831691505092915050565b5f610594838361056d565b9150826002028217905092915050565b6105ad82610367565b67ffffffffffffffff8111156105c6576105c5610371565b5b6105d082546103cb565b6105db82828561051b565b5f60209050601f83116001811461060c575f84156105fa578287015190505b6106048582610589565b86555061066b565b601f19841661061a866103fb565b5f5b828110156106415784890151825560018201915060208501945060208101905061061c565b8683101561065e578489015161065a601f89168261056d565b8355505b6001600288020188555050505b505050505050565b61067c81610301565b82525050565b5f6020820190506106955f830184610673565b92915050565b614039806106a85f395ff3fe608060405234801561000f575f5ffd5b50600436106101f9575f3560e01c806370a0823111610118578063c87b56dd116100ab578063e7336d141161007a578063e7336d14146105d1578063e985e9c5146105ef578063eac8f5b81461061f578063f3cb8c311461064f578063fa62ee8d1461066b576101f9565b8063c87b56dd14610535578063cf35bdd014610565578063d108177a14610599578063d547741f146105b5576101f9565b8063a22cb465116100e7578063a22cb465146104c5578063ac18de43146104e1578063b88d4fde146104fd578063c471c87514610519576101f9565b806370a082311461042957806391d148541461045957806395d89b4114610489578063a217fddf146104a7576101f9565b80632d06177a116101905780634f681ad91161015f5780634f681ad91461038f57806360c4dce3146103bf5780636352211e146103db5780636e07302b1461040b576101f9565b80632d06177a1461031f5780632f2ff15d1461033b57806336568abe1461035757806342842e0e14610373576101f9565b80631b2df850116101cc5780631b2df8501461029757806323b872dd146102b5578063248a9ca3146102d15780632a0acc6a14610301576101f9565b806301ffc9a7146101fd57806306fdde031461022d578063081812fc1461024b578063095ea7b31461027b575b5f5ffd5b610217600480360381019061021291906130c9565b610687565b604051610224919061310e565b60405180910390f35b610235610698565b6040516102429190613197565b60405180910390f35b610265600480360381019061026091906131ea565b610727565b6040516102729190613254565b60405180910390f35b61029560048036038101906102909190613297565b610742565b005b61029f610758565b6040516102ac91906132ed565b60405180910390f35b6102cf60048036038101906102ca9190613306565b61077c565b005b6102eb60048036038101906102e69190613380565b61087b565b6040516102f891906132ed565b60405180910390f35b610309610898565b60405161031691906132ed565b60405180910390f35b610339600480360381019061033491906133ab565b6108bc565b005b610355600480360381019061035091906133d6565b6109df565b005b610371600480360381019061036c91906133d6565b610a01565b005b61038d60048036038101906103889190613306565b610a7c565b005b6103a960048036038101906103a49190613540565b610a9b565b6040516103b6919061361a565b60405180910390f35b6103d960048036038101906103d49190613633565b610d0a565b005b6103f560048036038101906103f091906131ea565b610de8565b6040516104029190613254565b60405180910390f35b610413610df9565b604051610420919061361a565b60405180910390f35b610443600480360381019061043e91906133ab565b610e0e565b604051610450919061361a565b60405180910390f35b610473600480360381019061046e91906133d6565b610ec4565b604051610480919061310e565b60405180910390f35b610491610f28565b60405161049e9190613197565b60405180910390f35b6104af610fb8565b6040516104bc91906132ed565b60405180910390f35b6104df60048036038101906104da919061369b565b610fbe565b005b6104fb60048036038101906104f691906133ab565b610fd4565b005b61051760048036038101906105129190613777565b6110f7565b005b610533600480360381019061052e91906137f7565b611114565b005b61054f600480360381019061054a91906131ea565b61122d565b60405161055c9190613197565b60405180910390f35b61057f600480360381019061057a91906131ea565b61123f565b604051610590959493929190613851565b60405180910390f35b6105b360048036038101906105ae91906133ab565b61139c565b005b6105cf60048036038101906105ca91906133d6565b6114bf565b005b6105d96114e1565b6040516105e691906132ed565b60405180910390f35b610609600480360381019061060491906138b0565b611505565b604051610616919061310e565b60405180910390f35b610639600480360381019061063491906131ea565b611593565b60405161064691906139ce565b60405180910390f35b610669600480360381019061066491906133ab565b611750565b005b610685600480360381019061068091906139ee565b611873565b005b5f61069182611bbd565b9050919050565b60605f80546106a690613a59565b80601f01602080910402602001604051908101604052809291908181526020018280546106d290613a59565b801561071d5780601f106106f45761010080835404028352916020019161071d565b820191905f5260205f20905b81548152906001019060200180831161070057829003601f168201915b5050505050905090565b5f61073182611c36565b5061073b82611cbc565b9050919050565b610754828261074f611cf5565b611cfc565b5050565b7faf290d8680820aad922855f39b306097b20e28774d6c1ad35a20325630c3a02c81565b5f73ffffffffffffffffffffffffffffffffffffffff168273ffffffffffffffffffffffffffffffffffffffff16036107ec575f6040517f64a0ae920000000000000000000000000000000000000000000000000000000081526004016107e39190613254565b60405180910390fd5b5f6107ff83836107fa611cf5565b611d0e565b90508373ffffffffffffffffffffffffffffffffffffffff168173ffffffffffffffffffffffffffffffffffffffff1614610875578382826040517f64283d7b00000000000000000000000000000000000000000000000000000000815260040161086c93929190613a89565b60405180910390fd5b50505050565b5f60075f8381526020019081526020015f20600101549050919050565b7fdf8b4c520ffe197c5343c6f5aec59570151ef9a492f2c624fd45ddde6135ec4281565b7fdf8b4c520ffe197c5343c6f5aec59570151ef9a492f2c624fd45ddde6135ec426108e681611f19565b5f73ffffffffffffffffffffffffffffffffffffffff168273ffffffffffffffffffffffffffffffffffffffff160361095657816040517f8e4c8aa600000000000000000000000000000000000000000000000000000000815260040161094d9190613254565b60405180910390fd5b6109807faf290d8680820aad922855f39b306097b20e28774d6c1ad35a20325630c3a02c83611f2d565b503373ffffffffffffffffffffffffffffffffffffffff168273ffffffffffffffffffffffffffffffffffffffff167f05a4006f300442cf8b7fdb885f5ee958812020bffb5c5a8e655fde64e5f987ed60405160405180910390a35050565b6109e88261087b565b6109f181611f19565b6109fb8383611f2d565b50505050565b610a09611cf5565b73ffffffffffffffffffffffffffffffffffffffff168173ffffffffffffffffffffffffffffffffffffffff1614610a6d576040517f6697b23200000000000000000000000000000000000000000000000000000000815260040160405180910390fd5b610a778282612017565b505050565b610a9683838360405180602001604052805f8152506110f7565b505050565b5f7fdf8b4c520ffe197c5343c6f5aec59570151ef9a492f2c624fd45ddde6135ec42610ac681611f19565b5f73ffffffffffffffffffffffffffffffffffffffff168773ffffffffffffffffffffffffffffffffffffffff1603610b3657866040517f8e4c8aa6000000000000000000000000000000000000000000000000000000008152600401610b2d9190613254565b60405180910390fd5b5f865103610b70576040517fc741740300000000000000000000000000000000000000000000000000000000815260040160405180910390fd5b5f8403610ba9576040517f7c946ed700000000000000000000000000000000000000000000000000000000815260040160405180910390fd5b5f60085f815480929190610bbc90613aeb565b9190505590506040518060a001604052808881526020018781526020018681526020014281526020018973ffffffffffffffffffffffffffffffffffffffff1681525060095f8381526020019081526020015f205f820151815f019081610c239190613cd2565b506020820151816001019081610c399190613cd2565b5060408201518160020155606082015181600301556080820151816004015f6101000a81548173ffffffffffffffffffffffffffffffffffffffff021916908373ffffffffffffffffffffffffffffffffffffffff160217905550905050610ca18882612101565b610cab818561211e565b8773ffffffffffffffffffffffffffffffffffffffff16817feb91049e6a13023471019ba0940258b38c0bc930a2f1cb2efd078737d59781b48988604051610cf4929190613da1565b60405180910390a3809250505095945050505050565b7fdf8b4c520ffe197c5343c6f5aec59570151ef9a492f2c624fd45ddde6135ec42610d3481611f19565b610d3d83611c36565b505f8203610d77576040517f7c946ed700000000000000000000000000000000000000000000000000000000815260040160405180910390fd5b5f60095f8581526020019081526020015f206002015490508260095f8681526020019081526020015f2060020181905550837f151b3a78795c707eff48f31606a09e1213aff636c47901555df889c1c2b345158285604051610dda929190613dcf565b60405180910390a250505050565b5f610df282611c36565b9050919050565b5f6001600854610e099190613df6565b905090565b5f5f73ffffffffffffffffffffffffffffffffffffffff168273ffffffffffffffffffffffffffffffffffffffff1603610e7f575f6040517f89c62b64000000000000000000000000000000000000000000000000000000008152600401610e769190613254565b60405180910390fd5b60035f8373ffffffffffffffffffffffffffffffffffffffff1673ffffffffffffffffffffffffffffffffffffffff1681526020019081526020015f20549050919050565b5f60075f8481526020019081526020015f205f015f8373ffffffffffffffffffffffffffffffffffffffff1673ffffffffffffffffffffffffffffffffffffffff1681526020019081526020015f205f9054906101000a900460ff16905092915050565b606060018054610f3790613a59565b80601f0160208091040260200160405190810160405280929190818152602001828054610f6390613a59565b8015610fae5780601f10610f8557610100808354040283529160200191610fae565b820191905f5260205f20905b815481529060010190602001808311610f9157829003601f168201915b5050505050905090565b5f5f1b81565b610fd0610fc9611cf5565b8383612178565b5050565b7fdf8b4c520ffe197c5343c6f5aec59570151ef9a492f2c624fd45ddde6135ec42610ffe81611f19565b5f73ffffffffffffffffffffffffffffffffffffffff168273ffffffffffffffffffffffffffffffffffffffff160361106e57816040517f8e4c8aa60000000000000000000000000000000000000000000000000000000081526004016110659190613254565b60405180910390fd5b6110987faf290d8680820aad922855f39b306097b20e28774d6c1ad35a20325630c3a02c83612017565b503373ffffffffffffffffffffffffffffffffffffffff168273ffffffffffffffffffffffffffffffffffffffff167f3e902a6ee93dd5b2d48bd1009c7701a481be512b1ef73dbed2f95ea44c59ea8860405160405180910390a35050565b61110284848461077c565b61110e848484846122e1565b50505050565b3373ffffffffffffffffffffffffffffffffffffffff1661113483612493565b73ffffffffffffffffffffffffffffffffffffffff161415801561117f575061117d7fdf8b4c520ffe197c5343c6f5aec59570151ef9a492f2c624fd45ddde6135ec4233610ec4565b155b156111c35733826040517f58a5e2220000000000000000000000000000000000000000000000000000000081526004016111ba929190613e29565b60405180910390fd5b8060095f8481526020019081526020015f2060010190816111e49190613cd2565b503373ffffffffffffffffffffffffffffffffffffffff16827fd118a116d0a884605c33ea775d9766fa0f7582aa3fd0a6cf1124f2b7ad5a464660405160405180910390a35050565b6060611238826124cc565b9050919050565b6009602052805f5260405f205f91509050805f01805461125e90613a59565b80601f016020809104026020016040519081016040528092919081815260200182805461128a90613a59565b80156112d55780601f106112ac576101008083540402835291602001916112d5565b820191905f5260205f20905b8154815290600101906020018083116112b857829003601f168201915b5050505050908060010180546112ea90613a59565b80601f016020809104026020016040519081016040528092919081815260200182805461131690613a59565b80156113615780601f1061133857610100808354040283529160200191611361565b820191905f5260205f20905b81548152906001019060200180831161134457829003601f168201915b505050505090806002015490806003015490806004015f9054906101000a900473ffffffffffffffffffffffffffffffffffffffff16905085565b7fdf8b4c520ffe197c5343c6f5aec59570151ef9a492f2c624fd45ddde6135ec426113c681611f19565b5f73ffffffffffffffffffffffffffffffffffffffff168273ffffffffffffffffffffffffffffffffffffffff160361143657816040517f8e4c8aa600000000000000000000000000000000000000000000000000000000815260040161142d9190613254565b60405180910390fd5b6114607f989b8681e34e5a140922589c8eca8a05e6973c253a67caab2922847f87aa8bde83612017565b503373ffffffffffffffffffffffffffffffffffffffff168273ffffffffffffffffffffffffffffffffffffffff167fd4716fe84fe9b9e8ad0e74be0042e8275c0d826a6d7aa655d88db0caa85c928f60405160405180910390a35050565b6114c88261087b565b6114d181611f19565b6114db8383612017565b50505050565b7f989b8681e34e5a140922589c8eca8a05e6973c253a67caab2922847f87aa8bde81565b5f60055f8473ffffffffffffffffffffffffffffffffffffffff1673ffffffffffffffffffffffffffffffffffffffff1681526020019081526020015f205f8373ffffffffffffffffffffffffffffffffffffffff1673ffffffffffffffffffffffffffffffffffffffff1681526020019081526020015f205f9054906101000a900460ff16905092915050565b61159b613021565b6115a482611c36565b5060095f8381526020019081526020015f206040518060a00160405290815f820180546115d090613a59565b80601f01602080910402602001604051908101604052809291908181526020018280546115fc90613a59565b80156116475780601f1061161e57610100808354040283529160200191611647565b820191905f5260205f20905b81548152906001019060200180831161162a57829003601f168201915b5050505050815260200160018201805461166090613a59565b80601f016020809104026020016040519081016040528092919081815260200182805461168c90613a59565b80156116d75780601f106116ae576101008083540402835291602001916116d7565b820191905f5260205f20905b8154815290600101906020018083116116ba57829003601f168201915b505050505081526020016002820154815260200160038201548152602001600482015f9054906101000a900473ffffffffffffffffffffffffffffffffffffffff1673ffffffffffffffffffffffffffffffffffffffff1673ffffffffffffffffffffffffffffffffffffffff16815250509050919050565b7fdf8b4c520ffe197c5343c6f5aec59570151ef9a492f2c624fd45ddde6135ec4261177a81611f19565b5f73ffffffffffffffffffffffffffffffffffffffff168273ffffffffffffffffffffffffffffffffffffffff16036117ea57816040517f8e4c8aa60000000000000000000000000000000000000000000000000000000081526004016117e19190613254565b60405180910390fd5b6118147f989b8681e34e5a140922589c8eca8a05e6973c253a67caab2922847f87aa8bde83611f2d565b503373ffffffffffffffffffffffffffffffffffffffff168273ffffffffffffffffffffffffffffffffffffffff167fd41127bc1ef851a201f5a1dfbd1e1c6476563f6d0379f2ad3c63598549ed420860405160405180910390a35050565b3373ffffffffffffffffffffffffffffffffffffffff1661189383612493565b73ffffffffffffffffffffffffffffffffffffffff16146118ed5733826040517f58a5e2220000000000000000000000000000000000000000000000000000000081526004016118e4929190613e29565b60405180910390fd5b5f73ffffffffffffffffffffffffffffffffffffffff168173ffffffffffffffffffffffffffffffffffffffff160361195d57806040517f8e4c8aa60000000000000000000000000000000000000000000000000000000081526004016119549190613254565b60405180910390fd5b6119877f989b8681e34e5a140922589c8eca8a05e6973c253a67caab2922847f87aa8bde82610ec4565b1580156119bb57506119b97faf290d8680820aad922855f39b306097b20e28774d6c1ad35a20325630c3a02c82610ec4565b155b80156119ee57506119ec7fdf8b4c520ffe197c5343c6f5aec59570151ef9a492f2c624fd45ddde6135ec4282610ec4565b155b15611a5257807f989b8681e34e5a140922589c8eca8a05e6973c253a67caab2922847f87aa8bde6040517f3a005014000000000000000000000000000000000000000000000000000000008152600401611a49929190613e50565b60405180910390fd5b5f60095f8481526020019081526020015f206004015f9054906101000a900473ffffffffffffffffffffffffffffffffffffffff1690508173ffffffffffffffffffffffffffffffffffffffff168173ffffffffffffffffffffffffffffffffffffffff1603611afb5780826040517f9eece7e5000000000000000000000000000000000000000000000000000000008152600401611af2929190613e77565b60405180910390fd5b5f339050611b0a8184866125d7565b8260095f8681526020019081526020015f206004015f6101000a81548173ffffffffffffffffffffffffffffffffffffffff021916908373ffffffffffffffffffffffffffffffffffffffff1602179055508273ffffffffffffffffffffffffffffffffffffffff168173ffffffffffffffffffffffffffffffffffffffff16857fa993eb3a10693085bc7afc1de0202310fbd5992b9e51edd263b198f62f20cdae60405160405180910390a450505050565b5f7f7965db0b000000000000000000000000000000000000000000000000000000007bffffffffffffffffffffffffffffffffffffffffffffffffffffffff1916827bffffffffffffffffffffffffffffffffffffffffffffffffffffffff19161480611c2f5750611c2e8261273f565b5b9050919050565b5f5f611c4183612493565b90505f73ffffffffffffffffffffffffffffffffffffffff168173ffffffffffffffffffffffffffffffffffffffff1603611cb357826040517f7e273289000000000000000000000000000000000000000000000000000000008152600401611caa919061361a565b60405180910390fd5b80915050919050565b5f60045f8381526020019081526020015f205f9054906101000a900473ffffffffffffffffffffffffffffffffffffffff169050919050565b5f33905090565b611d09838383600161279f565b505050565b5f5f611d1984612493565b90505f73ffffffffffffffffffffffffffffffffffffffff168373ffffffffffffffffffffffffffffffffffffffff1614611d5a57611d5981848661295e565b5b5f73ffffffffffffffffffffffffffffffffffffffff168173ffffffffffffffffffffffffffffffffffffffff1614611de557611d995f855f5f61279f565b600160035f8373ffffffffffffffffffffffffffffffffffffffff1673ffffffffffffffffffffffffffffffffffffffff1681526020019081526020015f205f82825403925050819055505b5f73ffffffffffffffffffffffffffffffffffffffff168573ffffffffffffffffffffffffffffffffffffffff1614611e6457600160035f8773ffffffffffffffffffffffffffffffffffffffff1673ffffffffffffffffffffffffffffffffffffffff1681526020019081526020015f205f82825401925050819055505b8460025f8681526020019081526020015f205f6101000a81548173ffffffffffffffffffffffffffffffffffffffff021916908373ffffffffffffffffffffffffffffffffffffffff160217905550838573ffffffffffffffffffffffffffffffffffffffff168273ffffffffffffffffffffffffffffffffffffffff167fddf252ad1be2c89b69c2b068fc378daa952ba7f163c4a11628f55a4df523b3ef60405160405180910390a4809150509392505050565b611f2a81611f25611cf5565b612a21565b50565b5f611f388383610ec4565b61200d57600160075f8581526020019081526020015f205f015f8473ffffffffffffffffffffffffffffffffffffffff1673ffffffffffffffffffffffffffffffffffffffff1681526020019081526020015f205f6101000a81548160ff021916908315150217905550611faa611cf5565b73ffffffffffffffffffffffffffffffffffffffff168273ffffffffffffffffffffffffffffffffffffffff16847f2f8788117e7eff1d82e926ec794901d17c78024a50270940304540a733656f0d60405160405180910390a460019050612011565b5f90505b92915050565b5f6120228383610ec4565b156120f7575f60075f8581526020019081526020015f205f015f8473ffffffffffffffffffffffffffffffffffffffff1673ffffffffffffffffffffffffffffffffffffffff1681526020019081526020015f205f6101000a81548160ff021916908315150217905550612094611cf5565b73ffffffffffffffffffffffffffffffffffffffff168273ffffffffffffffffffffffffffffffffffffffff16847ff6391f5c32d9c69d2a47ea670b442974b53935d1edc7fd64eb21e047a839171b60405160405180910390a4600190506120fb565b5f90505b92915050565b61211a828260405180602001604052805f815250612a72565b5050565b8060065f8481526020019081526020015f20908161213c9190613cd2565b507ff8e1a15aba9398e019f0b49df1a4fde98ee17ae345cb5f6b5e2c27f5033e8ce78260405161216c919061361a565b60405180910390a15050565b5f73ffffffffffffffffffffffffffffffffffffffff168273ffffffffffffffffffffffffffffffffffffffff16036121e857816040517f5b08ba180000000000000000000000000000000000000000000000000000000081526004016121df9190613254565b60405180910390fd5b8060055f8573ffffffffffffffffffffffffffffffffffffffff1673ffffffffffffffffffffffffffffffffffffffff1681526020019081526020015f205f8473ffffffffffffffffffffffffffffffffffffffff1673ffffffffffffffffffffffffffffffffffffffff1681526020019081526020015f205f6101000a81548160ff0219169083151502179055508173ffffffffffffffffffffffffffffffffffffffff168373ffffffffffffffffffffffffffffffffffffffff167f17307eab39ab6107e8899845ad3d59bd9653f200f220920489ca2b5937696c31836040516122d4919061310e565b60405180910390a3505050565b5f8373ffffffffffffffffffffffffffffffffffffffff163b111561248d578273ffffffffffffffffffffffffffffffffffffffff1663150b7a02612324611cf5565b8685856040518563ffffffff1660e01b81526004016123469493929190613ef0565b6020604051808303815f875af192505050801561238157506040513d601f19601f8201168201806040525081019061237e9190613f4e565b60015b612402573d805f81146123af576040519150601f19603f3d011682016040523d82523d5f602084013e6123b4565b606091505b505f8151036123fa57836040517f64a0ae920000000000000000000000000000000000000000000000000000000081526004016123f19190613254565b60405180910390fd5b805181602001fd5b63150b7a0260e01b7bffffffffffffffffffffffffffffffffffffffffffffffffffffffff1916817bffffffffffffffffffffffffffffffffffffffffffffffffffffffff19161461248b57836040517f64a0ae920000000000000000000000000000000000000000000000000000000081526004016124829190613254565b60405180910390fd5b505b50505050565b5f60025f8381526020019081526020015f205f9054906101000a900473ffffffffffffffffffffffffffffffffffffffff169050919050565b60606124d782611c36565b505f60065f8481526020019081526020015f2080546124f590613a59565b80601f016020809104026020016040519081016040528092919081815260200182805461252190613a59565b801561256c5780601f106125435761010080835404028352916020019161256c565b820191905f5260205f20905b81548152906001019060200180831161254f57829003601f168201915b505050505090505f61257c612a8d565b90505f8151036125905781925050506125d2565b5f825111156125c45780826040516020016125ac929190613fb3565b604051602081830303815290604052925050506125d2565b6125cd84612aa3565b925050505b919050565b5f73ffffffffffffffffffffffffffffffffffffffff168273ffffffffffffffffffffffffffffffffffffffff1603612647575f6040517f64a0ae9200000000000000000000000000000000000000000000000000000000815260040161263e9190613254565b60405180910390fd5b5f61265383835f611d0e565b90505f73ffffffffffffffffffffffffffffffffffffffff168173ffffffffffffffffffffffffffffffffffffffff16036126c557816040517f7e2732890000000000000000000000000000000000000000000000000000000081526004016126bc919061361a565b60405180910390fd5b8373ffffffffffffffffffffffffffffffffffffffff168173ffffffffffffffffffffffffffffffffffffffff1614612739578382826040517f64283d7b00000000000000000000000000000000000000000000000000000000815260040161273093929190613a89565b60405180910390fd5b50505050565b5f634906490660e01b7bffffffffffffffffffffffffffffffffffffffffffffffffffffffff1916827bffffffffffffffffffffffffffffffffffffffffffffffffffffffff19161480612798575061279782612b09565b5b9050919050565b80806127d757505f73ffffffffffffffffffffffffffffffffffffffff168273ffffffffffffffffffffffffffffffffffffffff1614155b15612909575f6127e684611c36565b90505f73ffffffffffffffffffffffffffffffffffffffff168373ffffffffffffffffffffffffffffffffffffffff161415801561285057508273ffffffffffffffffffffffffffffffffffffffff168173ffffffffffffffffffffffffffffffffffffffff1614155b801561286357506128618184611505565b155b156128a557826040517fa9fbf51f00000000000000000000000000000000000000000000000000000000815260040161289c9190613254565b60405180910390fd5b811561290757838573ffffffffffffffffffffffffffffffffffffffff168273ffffffffffffffffffffffffffffffffffffffff167f8c5be1e5ebec7d5bd14f71427d1e84f3dd0314c0f7b2291e5b200ac8c7c3b92560405160405180910390a45b505b8360045f8581526020019081526020015f205f6101000a81548173ffffffffffffffffffffffffffffffffffffffff021916908373ffffffffffffffffffffffffffffffffffffffff16021790555050505050565b612969838383612bea565b612a1c575f73ffffffffffffffffffffffffffffffffffffffff168373ffffffffffffffffffffffffffffffffffffffff16036129dd57806040517f7e2732890000000000000000000000000000000000000000000000000000000081526004016129d4919061361a565b60405180910390fd5b81816040517f177e802f000000000000000000000000000000000000000000000000000000008152600401612a13929190613e29565b60405180910390fd5b505050565b612a2b8282610ec4565b612a6e5780826040517fe2517d3f000000000000000000000000000000000000000000000000000000008152600401612a65929190613e50565b60405180910390fd5b5050565b612a7c8383612caa565b612a885f8484846122e1565b505050565b606060405180602001604052805f815250905090565b6060612aae82611c36565b505f612ab8612a8d565b90505f815111612ad65760405180602001604052805f815250612b01565b80612ae084612d9d565b604051602001612af1929190613fb3565b6040516020818303038152906040525b915050919050565b5f7f80ac58cd000000000000000000000000000000000000000000000000000000007bffffffffffffffffffffffffffffffffffffffffffffffffffffffff1916827bffffffffffffffffffffffffffffffffffffffffffffffffffffffff19161480612bd357507f5b5e139f000000000000000000000000000000000000000000000000000000007bffffffffffffffffffffffffffffffffffffffffffffffffffffffff1916827bffffffffffffffffffffffffffffffffffffffffffffffffffffffff1916145b80612be35750612be282612e67565b5b9050919050565b5f5f73ffffffffffffffffffffffffffffffffffffffff168373ffffffffffffffffffffffffffffffffffffffff1614158015612ca157508273ffffffffffffffffffffffffffffffffffffffff168473ffffffffffffffffffffffffffffffffffffffff161480612c625750612c618484611505565b5b80612ca057508273ffffffffffffffffffffffffffffffffffffffff16612c8883611cbc565b73ffffffffffffffffffffffffffffffffffffffff16145b5b90509392505050565b5f73ffffffffffffffffffffffffffffffffffffffff168273ffffffffffffffffffffffffffffffffffffffff1603612d1a575f6040517f64a0ae92000000000000000000000000000000000000000000000000000000008152600401612d119190613254565b60405180910390fd5b5f612d2683835f611d0e565b90505f73ffffffffffffffffffffffffffffffffffffffff168173ffffffffffffffffffffffffffffffffffffffff1614612d98575f6040517f73c6ac6e000000000000000000000000000000000000000000000000000000008152600401612d8f9190613254565b60405180910390fd5b505050565b60605f6001612dab84612ed0565b0190505f8167ffffffffffffffff811115612dc957612dc861341c565b5b6040519080825280601f01601f191660200182016040528015612dfb5781602001600182028036833780820191505090505b5090505f82602001820190505b600115612e5c578080600190039150507f3031323334353637383961626364656600000000000000000000000000000000600a86061a8153600a8581612e5157612e50613fd6565b5b0494505f8503612e08575b819350505050919050565b5f7f01ffc9a7000000000000000000000000000000000000000000000000000000007bffffffffffffffffffffffffffffffffffffffffffffffffffffffff1916827bffffffffffffffffffffffffffffffffffffffffffffffffffffffff1916149050919050565b5f5f5f90507a184f03e93ff9f4daa797ed6e38ed64bf6a1f0100000000000000008310612f2c577a184f03e93ff9f4daa797ed6e38ed64bf6a1f0100000000000000008381612f2257612f21613fd6565b5b0492506040810190505b6d04ee2d6d415b85acef81000000008310612f69576d04ee2d6d415b85acef81000000008381612f5f57612f5e613fd6565b5b0492506020810190505b662386f26fc100008310612f9857662386f26fc100008381612f8e57612f8d613fd6565b5b0492506010810190505b6305f5e1008310612fc1576305f5e1008381612fb757612fb6613fd6565b5b0492506008810190505b6127108310612fe6576127108381612fdc57612fdb613fd6565b5b0492506004810190505b606483106130095760648381612fff57612ffe613fd6565b5b0492506002810190505b600a8310613018576001810190505b80915050919050565b6040518060a0016040528060608152602001606081526020015f81526020015f81526020015f73ffffffffffffffffffffffffffffffffffffffff1681525090565b5f604051905090565b5f5ffd5b5f5ffd5b5f7fffffffff0000000000000000000000000000000000000000000000000000000082169050919050565b6130a881613074565b81146130b2575f5ffd5b50565b5f813590506130c38161309f565b92915050565b5f602082840312156130de576130dd61306c565b5b5f6130eb848285016130b5565b91505092915050565b5f8115159050919050565b613108816130f4565b82525050565b5f6020820190506131215f8301846130ff565b92915050565b5f81519050919050565b5f82825260208201905092915050565b8281835e5f83830152505050565b5f601f19601f8301169050919050565b5f61316982613127565b6131738185613131565b9350613183818560208601613141565b61318c8161314f565b840191505092915050565b5f6020820190508181035f8301526131af818461315f565b905092915050565b5f819050919050565b6131c9816131b7565b81146131d3575f5ffd5b50565b5f813590506131e4816131c0565b92915050565b5f602082840312156131ff576131fe61306c565b5b5f61320c848285016131d6565b91505092915050565b5f73ffffffffffffffffffffffffffffffffffffffff82169050919050565b5f61323e82613215565b9050919050565b61324e81613234565b82525050565b5f6020820190506132675f830184613245565b92915050565b61327681613234565b8114613280575f5ffd5b50565b5f813590506132918161326d565b92915050565b5f5f604083850312156132ad576132ac61306c565b5b5f6132ba85828601613283565b92505060206132cb858286016131d6565b9150509250929050565b5f819050919050565b6132e7816132d5565b82525050565b5f6020820190506133005f8301846132de565b92915050565b5f5f5f6060848603121561331d5761331c61306c565b5b5f61332a86828701613283565b935050602061333b86828701613283565b925050604061334c868287016131d6565b9150509250925092565b61335f816132d5565b8114613369575f5ffd5b50565b5f8135905061337a81613356565b92915050565b5f602082840312156133955761339461306c565b5b5f6133a28482850161336c565b91505092915050565b5f602082840312156133c0576133bf61306c565b5b5f6133cd84828501613283565b91505092915050565b5f5f604083850312156133ec576133eb61306c565b5b5f6133f98582860161336c565b925050602061340a85828601613283565b9150509250929050565b5f5ffd5b5f5ffd5b7f4e487b71000000000000000000000000000000000000000000000000000000005f52604160045260245ffd5b6134528261314f565b810181811067ffffffffffffffff821117156134715761347061341c565b5b80604052505050565b5f613483613063565b905061348f8282613449565b919050565b5f67ffffffffffffffff8211156134ae576134ad61341c565b5b6134b78261314f565b9050602081019050919050565b828183375f83830152505050565b5f6134e46134df84613494565b61347a565b905082815260208101848484011115613500576134ff613418565b5b61350b8482856134c4565b509392505050565b5f82601f83011261352757613526613414565b5b81356135378482602086016134d2565b91505092915050565b5f5f5f5f5f60a086880312156135595761355861306c565b5b5f61356688828901613283565b955050602086013567ffffffffffffffff81111561358757613586613070565b5b61359388828901613513565b945050604086013567ffffffffffffffff8111156135b4576135b3613070565b5b6135c088828901613513565b93505060606135d1888289016131d6565b925050608086013567ffffffffffffffff8111156135f2576135f1613070565b5b6135fe88828901613513565b9150509295509295909350565b613614816131b7565b82525050565b5f60208201905061362d5f83018461360b565b92915050565b5f5f604083850312156136495761364861306c565b5b5f613656858286016131d6565b9250506020613667858286016131d6565b9150509250929050565b61367a816130f4565b8114613684575f5ffd5b50565b5f8135905061369581613671565b92915050565b5f5f604083850312156136b1576136b061306c565b5b5f6136be85828601613283565b92505060206136cf85828601613687565b9150509250929050565b5f67ffffffffffffffff8211156136f3576136f261341c565b5b6136fc8261314f565b9050602081019050919050565b5f61371b613716846136d9565b61347a565b90508281526020810184848401111561373757613736613418565b5b6137428482856134c4565b509392505050565b5f82601f83011261375e5761375d613414565b5b813561376e848260208601613709565b91505092915050565b5f5f5f5f6080858703121561378f5761378e61306c565b5b5f61379c87828801613283565b94505060206137ad87828801613283565b93505060406137be878288016131d6565b925050606085013567ffffffffffffffff8111156137df576137de613070565b5b6137eb8782880161374a565b91505092959194509250565b5f5f6040838503121561380d5761380c61306c565b5b5f61381a858286016131d6565b925050602083013567ffffffffffffffff81111561383b5761383a613070565b5b61384785828601613513565b9150509250929050565b5f60a0820190508181035f830152613869818861315f565b9050818103602083015261387d818761315f565b905061388c604083018661360b565b613899606083018561360b565b6138a66080830184613245565b9695505050505050565b5f5f604083850312156138c6576138c561306c565b5b5f6138d385828601613283565b92505060206138e485828601613283565b9150509250929050565b5f82825260208201905092915050565b5f61390882613127565b61391281856138ee565b9350613922818560208601613141565b61392b8161314f565b840191505092915050565b61393f816131b7565b82525050565b61394e81613234565b82525050565b5f60a083015f8301518482035f86015261396e82826138fe565b9150506020830151848203602086015261398882826138fe565b915050604083015161399d6040860182613936565b5060608301516139b06060860182613936565b5060808301516139c36080860182613945565b508091505092915050565b5f6020820190508181035f8301526139e68184613954565b905092915050565b5f5f60408385031215613a0457613a0361306c565b5b5f613a11858286016131d6565b9250506020613a2285828601613283565b9150509250929050565b7f4e487b71000000000000000000000000000000000000000000000000000000005f52602260045260245ffd5b5f6002820490506001821680613a7057607f821691505b602082108103613a8357613a82613a2c565b5b50919050565b5f606082019050613a9c5f830186613245565b613aa9602083018561360b565b613ab66040830184613245565b949350505050565b7f4e487b71000000000000000000000000000000000000000000000000000000005f52601160045260245ffd5b5f613af5826131b7565b91507fffffffffffffffffffffffffffffffffffffffffffffffffffffffffffffffff8203613b2757613b26613abe565b5b600182019050919050565b5f819050815f5260205f209050919050565b5f6020601f8301049050919050565b5f82821b905092915050565b5f60088302613b8e7fffffffffffffffffffffffffffffffffffffffffffffffffffffffffffffffff82613b53565b613b988683613b53565b95508019841693508086168417925050509392505050565b5f819050919050565b5f613bd3613bce613bc9846131b7565b613bb0565b6131b7565b9050919050565b5f819050919050565b613bec83613bb9565b613c00613bf882613bda565b848454613b5f565b825550505050565b5f5f905090565b613c17613c08565b613c22818484613be3565b505050565b5b81811015613c4557613c3a5f82613c0f565b600181019050613c28565b5050565b601f821115613c8a57613c5b81613b32565b613c6484613b44565b81016020851015613c73578190505b613c87613c7f85613b44565b830182613c27565b50505b505050565b5f82821c905092915050565b5f613caa5f1984600802613c8f565b1980831691505092915050565b5f613cc28383613c9b565b9150826002028217905092915050565b613cdb82613127565b67ffffffffffffffff811115613cf457613cf361341c565b5b613cfe8254613a59565b613d09828285613c49565b5f60209050601f831160018114613d3a575f8415613d28578287015190505b613d328582613cb7565b865550613d99565b601f198416613d4886613b32565b5f5b82811015613d6f57848901518255600182019150602085019450602081019050613d4a565b86831015613d8c5784890151613d88601f891682613c9b565b8355505b6001600288020188555050505b505050505050565b5f6040820190508181035f830152613db9818561315f565b9050613dc8602083018461360b565b9392505050565b5f604082019050613de25f83018561360b565b613def602083018461360b565b9392505050565b5f613e00826131b7565b9150613e0b836131b7565b9250828203905081811115613e2357613e22613abe565b5b92915050565b5f604082019050613e3c5f830185613245565b613e49602083018461360b565b9392505050565b5f604082019050613e635f830185613245565b613e7060208301846132de565b9392505050565b5f604082019050613e8a5f830185613245565b613e976020830184613245565b9392505050565b5f81519050919050565b5f82825260208201905092915050565b5f613ec282613e9e565b613ecc8185613ea8565b9350613edc818560208601613141565b613ee58161314f565b840191505092915050565b5f608082019050613f035f830187613245565b613f106020830186613245565b613f1d604083018561360b565b8181036060830152613f2f8184613eb8565b905095945050505050565b5f81519050613f488161309f565b92915050565b5f60208284031215613f6357613f6261306c565b5b5f613f7084828501613f3a565b91505092915050565b5f81905092915050565b5f613f8d82613127565b613f978185613f79565b9350613fa7818560208601613141565b80840191505092915050565b5f613fbe8285613f83565b9150613fca8284613f83565b91508190509392505050565b7f4e487b71000000000000000000000000000000000000000000000000000000005f52601260045260245ffdfea26469706673582212207eebbd6278d4cccfd9b9133f6abc746ee98737dfc9dee5007beea1fb7070921864736f6c634300081e0033","linkReferences":{}},"methodIdentifiers":{"ADMIN()":"2a0acc6a","DEFAULT_ADMIN_ROLE()":"a217fddf","EMPLOYEE()":"e7336d14","MANAGER()":"1b2df850","addEmployee(address)":"f3cb8c31","addManager(address)":"2d06177a","approve(address,uint256)":"095ea7b3","assets(uint256)":"cf35bdd0","balanceOf(address)":"70a08231","createAsset(address,string,string,uint256,string)":"4f681ad9","getApproved(uint256)":"081812fc","getAsset(uint256)":"eac8f5b8","getRoleAdmin(bytes32)":"248a9ca3","getTotalAssets()":"6e07302b","grantRole(bytes32,address)":"2f2ff15d","hasRole(bytes32,address)":"91d14854","isApprovedForAll(address,address)":"e985e9c5","name()":"06fdde03","ownerOf(uint256)":"6352211e","removeEmployee(address)":"d108177a","removeManager(address)":"ac18de43","renounceRole(bytes32,address)":"36568abe","revokeRole(bytes32,address)":"d547741f","safeTransferFrom(address,address,uint256)":"42842e0e","safeTransferFrom(address,address,uint256,bytes)":"b88d4fde","setApprovalForAll(address,bool)":"a22cb465","supportsInterface(bytes4)":"01ffc9a7","symbol()":"95d89b41","tokenURI(uint256)":"c87b56dd","transferAsset(uint256,address)":"fa62ee8d","transferFrom(address,address,uint256)":"23b872dd","updateAssetDescription(uint256,string)":"c471c875","updateAssetValue(uint256,uint256)":"60c4dce3"},"id":17}