{"abi":[{"type":"constructor","inputs":[{"name":"initialAdmin","type":"address","internalType":"address"}],"stateMutability":"nonpayable"},{"type":"function","name":"ADMIN_ROLE","inputs":[],"outputs":[{"name":"","type":"bytes32","internalType":"bytes32"}],"stateMutability":"view"},{"type":"function","name":"ASSET_MANAGER_ROLE","inputs":[],"outputs":[{"name":"","type":"bytes32","internalType":"bytes32"}],"stateMutability":"view"},{"type":"function","name":"CLOUD_CREDITS","inputs":[],"outputs":[{"name":"","type":"uint256","internalType":"uint256"}],"stateMutability":"view"},{"type":"function","name":"DEFAULT_ADMIN_ROLE","inputs":[],"outputs":[{"name":"","type":"bytes32","internalType":"bytes32"}],"stateMutability":"view"},{"type":"function","name":"DEPARTMENT_HEAD_ROLE","inputs":[],"outputs":[{"name":"","type":"bytes32","internalType":"bytes32"}],"stateMutability":"view"},{"type":"function","name":"EMPLOYEE_ROLE","inputs":[],"outputs":[{"name":"","type":"bytes32","internalType":"bytes32"}],"stateMutability":"view"},{"type":"function","name":"EQUIPMENT_VOUCHER","inputs":[],"outputs":[{"name":"","type":"uint256","internalType":"uint256"}],"stateMutability":"view"},{"type":"function","name":"MARKETING_BUDGET","inputs":[],"outputs":[{"name":"","type":"uint256","internalType":"uint256"}],"stateMutability":"view"},{"type":"function","name":"MEETING_ROOM_HOUR","inputs":[],"outputs":[{"name":"","type":"uint256","internalType":"uint256"}],"stateMutability":"view"},{"type":"function","name":"RESEARCH_GRANT","inputs":[],"outputs":[{"name":"","type":"uint256","internalType":"uint256"}],"stateMutability":"view"},{"type":"function","name":"SOFTWARE_LICENSE","inputs":[],"outputs":[{"name":"","type":"uint256","internalType":"uint256"}],"stateMutability":"view"},{"type":"function","name":"TRAINING_VOUCHER","inputs":[],"outputs":[{"name":"","type":"uint256","internalType":"uint256"}],"stateMutability":"view"},{"type":"function","name":"TRAVEL_BUDGET","inputs":[],"outputs":[{"name":"","type":"uint256","internalType":"uint256"}],"stateMutability":"view"},{"type":"function","name":"addAssetManager","inputs":[{"name":"manager","type":"address","internalType":"address"}],"outputs":[],"stateMutability":"nonpayable"},{"type":"function","name":"addDepartmentHead","inputs":[{"name":"head","type":"address","internalType":"address"}],"outputs":[],"stateMutability":"nonpayable"},{"type":"function","name":"addEmployee","inputs":[{"name":"employee","type":"address","internalType":"address"}],"outputs":[],"stateMutability":"nonpayable"},{"type":"function","name":"allocateAssets","inputs":[{"name":"recipient","type":"address","internalType":"address"},{"name":"assetType","type":"uint256","internalType":"uint256"},{"name":"amount","type":"uint256","internalType":"uint256"}],"outputs":[],"stateMutability":"nonpayable"},{"type":"function","name":"assetInfo","inputs":[{"name":"","type":"uint256","internalType":"uint256"}],"outputs":[{"name":"name","type":"string","internalType":"string"},{"name":"description","type":"string","internalType":"string"},{"name":"unitValue","type":"uint256","internalType":"uint256"},{"name":"maxSupply","type":"uint256","internalType":"uint256"},{"name":"transferable","type":"bool","internalType":"bool"},{"name":"active","type":"bool","internalType":"bool"},{"name":"expirationTime","type":"uint256","internalType":"uint256"},{"name":"department","type":"string","internalType":"string"}],"stateMutability":"view"},{"type":"function","name":"assignDepartment","inputs":[{"name":"user","type":"address","internalType":"address"},{"name":"department","type":"string","internalType":"string"}],"outputs":[],"stateMutability":"nonpayable"},{"type":"function","name":"balanceOf","inputs":[{"name":"account","type":"address","internalType":"address"},{"name":"id","type":"uint256","internalType":"uint256"}],"outputs":[{"name":"","type":"uint256","internalType":"uint256"}],"stateMutability":"view"},{"type":"function","name":"balanceOfBatch","inputs":[{"name":"accounts","type":"address[]","internalType":"address[]"},{"name":"ids","type":"uint256[]","internalType":"uint256[]"}],"outputs":[{"name":"","type":"uint256[]","internalType":"uint256[]"}],"stateMutability":"view"},{"type":"function","name":"batchAllocateAssets","inputs":[{"name":"recipient","type":"address","internalType":"address"},{"name":"assetTypes","type":"uint256[]","internalType":"uint256[]"},{"name":"amounts","type":"uint256[]","internalType":"uint256[]"}],"outputs":[],"stateMutability":"nonpayable"},{"type":"function","name":"createAssetType","inputs":[{"name":"assetType","type":"uint256","internalType":"uint256"},{"name":"name","type":"string","internalType":"string"},{"name":"description","type":"string","internalType":"string"},{"name":"unitValue","type":"uint256","internalType":"uint256"},{"name":"maxSupply","type":"uint256","internalType":"uint256"},{"name":"transferable","type":"bool","internalType":"bool"},{"name":"expirationDays","type":"uint256","internalType":"uint256"},{"name":"department","type":"string","internalType":"string"}],"outputs":[],"stateMutability":"nonpayable"},{"type":"function","name":"exists","inputs":[{"name":"id","type":"uint256","internalType":"uint256"}],"outputs":[{"name":"","type":"bool","internalType":"bool"}],"stateMutability":"view"},{"type":"function","name":"getRemainingSupply","inputs":[{"name":"assetType","type":"uint256","internalType":"uint256"}],"outputs":[{"name":"","type":"uint256","internalType":"uint256"}],"stateMutability":"view"},{"type":"function","name":"getRoleAdmin","inputs":[{"name":"role","type":"bytes32","internalType":"bytes32"}],"outputs":[{"name":"","type":"bytes32","internalType":"bytes32"}],"stateMutability":"view"},{"type":"function","name":"getUserSpentAmount","inputs":[{"name":"user","type":"address","internalType":"address"},{"name":"assetType","type":"uint256","internalType":"uint256"}],"outputs":[{"name":"","type":"uint256","internalType":"uint256"}],"stateMutability":"view"},{"type":"function","name":"grantRole","inputs":[{"name":"role","type":"bytes32","internalType":"bytes32"},{"name":"account","type":"address","internalType":"address"}],"outputs":[],"stateMutability":"nonpayable"},{"type":"function","name":"hasRole","inputs":[{"name":"role","type":"bytes32","internalType":"bytes32"},{"name":"account","type":"address","internalType":"address"}],"outputs":[{"name":"","type":"bool","internalType":"bool"}],"stateMutability":"view"},{"type":"function","name":"isApprovedForAll","inputs":[{"name":"account","type":"address","internalType":"address"},{"name":"operator","type":"address","internalType":"address"}],"outputs":[{"name":"","type":"bool","internalType":"bool"}],"stateMutability":"view"},{"type":"function","name":"isAssetExpired","inputs":[{"name":"assetType","type":"uint256","internalType":"uint256"}],"outputs":[{"name":"","type":"bool","internalType":"bool"}],"stateMutability":"view"},{"type":"function","name":"reclaimAssets","inputs":[{"name":"from","type":"address","internalType":"address"},{"name":"assetType","type":"uint256","internalType":"uint256"},{"name":"amount","type":"uint256","internalType":"uint256"}],"outputs":[],"stateMutability":"nonpayable"},{"type":"function","name":"renounceRole","inputs":[{"name":"role","type":"bytes32","internalType":"bytes32"},{"name":"callerConfirmation","type":"address","internalType":"address"}],"outputs":[],"stateMutability":"nonpayable"},{"type":"function","name":"revokeRole","inputs":[{"name":"role","type":"bytes32","internalType":"bytes32"},{"name":"account","type":"address","internalType":"address"}],"outputs":[],"stateMutability":"nonpayable"},{"type":"function","name":"safeBatchTransferFrom","inputs":[{"name":"from","type":"address","internalType":"address"},{"name":"to","type":"address","internalType":"address"},{"name":"ids","type":"uint256[]","internalType":"uint256[]"},{"name":"values","type":"uint256[]","internalType":"uint256[]"},{"name":"data","type":"bytes","internalType":"bytes"}],"outputs":[],"stateMutability":"nonpayable"},{"type":"function","name":"safeTransferFrom","inputs":[{"name":"from","type":"address","internalType":"address"},{"name":"to","type":"address","internalType":"address"},{"name":"id","type":"uint256","internalType":"uint256"},{"name":"value","type":"uint256","internalType":"uint256"},{"name":"data","type":"bytes","internalType":"bytes"}],"outputs":[],"stateMutability":"nonpayable"},{"type":"function","name":"setApprovalForAll","inputs":[{"name":"operator","type":"address","internalType":"address"},{"name":"approved","type":"bool","internalType":"bool"}],"outputs":[],"stateMutability":"nonpayable"},{"type":"function","name":"setAssetStatus","inputs":[{"name":"assetType","type":"uint256","internalType":"uint256"},{"name":"active","type":"bool","internalType":"bool"}],"outputs":[],"stateMutability":"nonpayable"},{"type":"function","name":"spendAsset","inputs":[{"name":"assetType","type":"uint256","internalType":"uint256"},{"name":"amount","type":"uint256","internalType":"uint256"},{"name":"purpose","type":"string","internalType":"string"}],"outputs":[],"stateMutability":"nonpayable"},{"type":"function","name":"supportsInterface","inputs":[{"name":"interfaceId","type":"bytes4","internalType":"bytes4"}],"outputs":[{"name":"","type":"bool","internalType":"bool"}],"stateMutability":"view"},{"type":"function","name":"totalSupply","inputs":[],"outputs":[{"name":"","type":"uint256","internalType":"uint256"}],"stateMutability":"view"},{"type":"function","name":"totalSupply","inputs":[{"name":"id","type":"uint256","internalType":"uint256"}],"outputs":[{"name":"","type":"uint256","internalType":"uint256"}],"stateMutability":"view"},{"type":"function","name":"uri","inputs":[{"name":"tokenId","type":"uint256","internalType":"uint256"}],"outputs":[{"name":"","type":"string","internalType":"string"}],"stateMutability":"view"},{"type":"function","name":"userDepartments","inputs":[{"name":"","type":"address","internalType":"address"}],"outputs":[{"name":"","type":"string","internalType":"string"}],"stateMutability":"view"},{"type":"function","name":"userSpentAmount","inputs":[{"name":"","type":"uint256","internalType":"uint256"},{"name":"","type":"address","internalType":"address"}],"outputs":[{"name":"","type":"uint256","internalType":"uint256"}],"stateMutability":"view"},{"type":"event","name":"ApprovalForAll","inputs":[{"name":"account","type":"address","indexed":true,"internalType":"address"},{"name":"operator","type":"address","indexed":true,"internalType":"address"},{"name":"approved","type":"bool","indexed":false,"internalType":"bool"}],"anonymous":false},{"type":"event","name":"AssetAllocated","inputs":[{"name":"recipient","type":"address","indexed":true,"internalType":"address"},{"name":"assetType","type":"uint256","indexed":true,"internalType":"uint256"},{"name":"amount","type":"uint256","indexed":false,"internalType":"uint256"},{"name":"allocatedBy","type":"address","indexed":true,"internalType":"address"}],"anonymous":false},{"type":"event","name":"AssetCreated","inputs":[{"name":"assetType","type":"uint256","indexed":true,"internalType":"uint256"},{"name":"name","type":"string","indexed":false,"internalType":"string"},{"name":"maxSupply","type":"uint256","indexed":false,"internalType":"uint256"},{"name":"department","type":"string","indexed":true,"internalType":"string"}],"anonymous":false},{"type":"event","name":"AssetExpiredNotification","inputs":[{"name":"assetType","type":"uint256","indexed":true,"internalType":"uint256"},{"name":"expiration","type":"uint256","indexed":false,"internalType":"uint256"}],"anonymous":false},{"type":"event","name":"AssetReclaimed","inputs":[{"name":"from","type":"address","indexed":true,"internalType":"address"},{"name":"assetType","type":"uint256","indexed":true,"internalType":"uint256"},{"name":"amount","type":"uint256","indexed":false,"internalType":"uint256"},{"name":"reclaimedBy","type":"address","indexed":true,"internalType":"address"}],"anonymous":false},{"type":"event","name":"AssetSpent","inputs":[{"name":"user","type":"address","indexed":true,"internalType":"address"},{"name":"assetType","type":"uint256","indexed":true,"internalType":"uint256"},{"name":"amount","type":"uint256","indexed":false,"internalType":"uint256"},{"name":"purpose","type":"string","indexed":false,"internalType":"string"}],"anonymous":false},{"type":"event","name":"AssetStatusChanged","inputs":[{"name":"assetType","type":"uint256","indexed":true,"internalType":"uint256"},{"name":"active","type":"bool","indexed":false,"internalType":"bool"}],"anonymous":false},{"type":"event","name":"DepartmentAssigned","inputs":[{"name":"user","type":"address","indexed":true,"internalType":"address"},{"name":"department","type":"string","indexed":false,"internalType":"string"}],"anonymous":false},{"type":"event","name":"RoleAdminChanged","inputs":[{"name":"role","type":"bytes32","indexed":true,"internalType":"bytes32"},{"name":"previousAdminRole","type":"bytes32","indexed":true,"internalType":"bytes32"},{"name":"newAdminRole","type":"bytes32","indexed":true,"internalType":"bytes32"}],"anonymous":false},{"type":"event","name":"RoleGranted","inputs":[{"name":"role","type":"bytes32","indexed":true,"internalType":"bytes32"},{"name":"account","type":"address","indexed":true,"internalType":"address"},{"name":"sender","type":"address","indexed":true,"internalType":"address"}],"anonymous":false},{"type":"event","name":"RoleRevoked","inputs":[{"name":"role","type":"bytes32","indexed":true,"internalType":"bytes32"},{"name":"account","type":"address","indexed":true,"internalType":"address"},{"name":"sender","type":"address","indexed":true,"internalType":"address"}],"anonymous":false},{"type":"event","name":"TransferBatch","inputs":[{"name":"operator","type":"address","indexed":true,"internalType":"address"},{"name":"from","type":"address","indexed":true,"internalType":"address"},{"name":"to","type":"address","indexed":true,"internalType":"address"},{"name":"ids","type":"uint256[]","indexed":false,"internalType":"uint256[]"},{"name":"values","type":"uint256[]","indexed":false,"internalType":"uint256[]"}],"anonymous":false},{"type":"event","name":"TransferSingle","inputs":[{"name":"operator","type":"address","indexed":true,"internalType":"address"},{"name":"from","type":"address","indexed":true,"internalType":"address"},{"name":"to","type":"address","indexed":true,"internalType":"address"},{"name":"id","type":"uint256","indexed":false,"internalType":"uint256"},{"name":"value","type":"uint256","indexed":false,"internalType":"uint256"}],"anonymous":false},{"type":"event","name":"URI","inputs":[{"name":"value","type":"string","indexed":false,"internalType":"string"},{"name":"id","type":"uint256","indexed":true,"internalType":"uint256"}],"anonymous":false},{"type":"error","name":"AccessControlBadConfirmation","inputs":[]},{"type":"error","name":"AccessControlUnauthorizedAccount","inputs":[{"name":"account","type":"address","internalType":"address"},{"name":"neededRole","type":"bytes32","internalType":"bytes32"}]},{"type":"error","name":"AssetAlreadyExists","inputs":[{"name":"assetType","type":"uint256","internalType":"uint256"}]},{"type":"error","name":"AssetExpired","inputs":[{"name":"assetType","type":"uint256","internalType":"uint256"},{"name":"expiration","type":"uint256","internalType":"uint256"}]},{"type":"error","name":"AssetInactive","inputs":[{"name":"assetType","type":"uint256","internalType":"uint256"}]},{"type":"error","name":"AssetNotTransferable","inputs":[{"name":"assetType","type":"uint256","internalType":"uint256"}]},{"type":"error","name":"ERC1155InsufficientBalance","inputs":[{"name":"sender","type":"address","internalType":"address"},{"name":"balance","type":"uint256","internalType":"uint256"},{"name":"needed","type":"uint256","internalType":"uint256"},{"name":"tokenId","type":"uint256","internalType":"uint256"}]},{"type":"error","name":"ERC1155InvalidApprover","inputs":[{"name":"approver","type":"address","internalType":"address"}]},{"type":"error","name":"ERC1155InvalidArrayLength","inputs":[{"name":"idsLength","type":"uint256","internalType":"uint256"},{"name":"valuesLength","type":"uint256","internalType":"uint256"}]},{"type":"error","name":"ERC1155InvalidOperator","inputs":[{"name":"operator","type":"address","internalType":"address"}]},{"type":"error","name":"ERC1155InvalidReceiver","inputs":[{"name":"receiver","type":"address","internalType":"address"}]},{"type":"error","name":"ERC1155InvalidSender","inputs":[{"name":"sender","type":"address","internalType":"address"}]},{"type":"error","name":"ERC1155MissingApprovalForAll","inputs":[{"name":"operator","type":"address","internalType":"address"},{"name":"owner","type":"address","internalType":"address"}]},{"type":"error","name":"ExceedsMaxSupply","inputs":[{"name":"assetType","type":"uint256","internalType":"uint256"},{"name":"requested","type":"uint256","internalType":"uint256"},{"name":"maxSupply","type":"uint256","internalType":"uint256"}]},{"type":"error","name":"InsufficientBalance","inputs":[{"name":"user","type":"address","internalType":"address"},{"name":"assetType","type":"uint256","internalType":"uint256"},{"name":"requested","type":"uint256","internalType":"uint256"},{"name":"available","type":"uint256","internalType":"uint256"}]},{"type":"error","name":"InvalidAddress","inputs":[{"name":"addr","type":"address","internalType":"address"}]},{"type":"error","name":"InvalidAmount","inputs":[{"name":"amount","type":"uint256","internalType":"uint256"}]},{"type":"error","name":"InvalidAssetType","inputs":[{"name":"assetType","type":"uint256","internalType":"uint256"}]},{"type":"error","name":"InvalidExpirationTime","inputs":[{"name":"expiration","type":"uint256","internalType":"uint256"}]},{"type":"error","name":"UnauthorizedDepartment","inputs":[{"name":"userDept","type":"string","internalType":"string"},{"name":"assetDept","type":"string","internalType":"string"}]}],"bytecode":{"object":"0x608060405260405180602001604052805f815250600590816100219190610c8f565b5034801561002d575f5ffd5b506040516162ff3803806162ff833981810160405281019061004f9190610dbc565b6040518060600160405280603281526020016162ac603291396100778161014060201b60201c565b505f73ffffffffffffffffffffffffffffffffffffffff168173ffffffffffffffffffffffffffffffffffffffff16036100e857806040517f8e4c8aa60000000000000000000000000000000000000000000000000000000081526004016100df9190610df6565b60405180910390fd5b6100fa5f5f1b8261015360201b60201c565b5061012b7fa49807205ce4d355092ef5a8a18f56e8913cf4a201fbe287825b095693c217758261015360201b60201c565b5061013a61024960201b60201c565b50610f02565b806002908161014f9190610c8f565b5050565b5f610164838361089d60201b60201c565b61023f57600160075f8581526020019081526020015f205f015f8473ffffffffffffffffffffffffffffffffffffffff1673ffffffffffffffffffffffffffffffffffffffff1681526020019081526020015f205f6101000a81548160ff0219169083151502179055506101dc61090160201b60201c565b73ffffffffffffffffffffffffffffffffffffffff168273ffffffffffffffffffffffffffffffffffffffff16847f2f8788117e7eff1d82e926ec794901d17c78024a50270940304540a733656f0d60405160405180910390a460019050610243565b5f90505b92915050565b61030a5f6040518060400160405280601081526020017f536f667477617265204c6963656e7365000000000000000000000000000000008152506040518060400160405280601b81526020017f436f72706f7261746520736f667477617265206c6963656e7365730000000000815250683635c9adc5dea0000061271060015f6040518060400160405280600281526020017f495400000000000000000000000000000000000000000000000000000000000081525061090860201b60201c565b6103e860016040518060400160405280600d81526020017f436c6f75642043726564697473000000000000000000000000000000000000008152506040518060400160405280601781526020017f436c6f756420636f6d707574696e672063726564697473000000000000000000815250670de0b6b3a76400007fffffffffffffffffffffffffffffffffffffffffffffffffffffffffffffffff5f5f6040518060400160405280600281526020017f495400000000000000000000000000000000000000000000000000000000000081525061090860201b60201c565b6104ae60026040518060400160405280601081526020017f547261696e696e6720566f7563686572000000000000000000000000000000008152506040518060400160405280601a81526020017f456d706c6f79656520747261696e696e6720766f756368657273000000000000815250681b1ae4d6e2ef5000006103e860016301e133806040518060400160405280600281526020017f485200000000000000000000000000000000000000000000000000000000000081525061090860201b60201c565b61057360036040518060400160405280601181526020017f4d656574696e6720526f6f6d20486f75720000000000000000000000000000008152506040518060400160405280601d81526020017f436f6e666572656e636520726f6f6d20626f6f6b696e6720686f7572730000008152506802b5e3af16b1880000612710600162278d006040518060400160405280600a81526020017f4f7065726174696f6e730000000000000000000000000000000000000000000081525061090860201b60201c565b61063760046040518060400160405280601181526020017f45717569706d656e7420566f75636865720000000000000000000000000000008152506040518060400160405280601b81526020017f45717569706d656e7420707572636861736520766f7563686572730000000000815250686c6b935b8bbd4000006101f45f62ed4e006040518060400160405280600b81526020017f50726f637572656d656e7400000000000000000000000000000000000000000081525061090860201b60201c565b6106f860056040518060400160405280600d81526020017f54726176656c20427564676574000000000000000000000000000000000000008152506040518060600160405280602181526020016162de60219139670de0b6b3a76400007fffffffffffffffffffffffffffffffffffffffffffffffffffffffffffffffff5f5f6040518060400160405280600781526020017f46696e616e63650000000000000000000000000000000000000000000000000081525061090860201b60201c565b6107d660066040518060400160405280601081526020017f4d61726b6574696e6720427564676574000000000000000000000000000000008152506040518060400160405280601981526020017f4d61726b6574696e672063616d706169676e2062756467657400000000000000815250670de0b6b3a76400007fffffffffffffffffffffffffffffffffffffffffffffffffffffffffffffffff5f5f6040518060400160405280600981526020017f4d61726b6574696e67000000000000000000000000000000000000000000000081525061090860201b60201c565b61089b60076040518060400160405280600e81526020017f5265736561726368204772616e740000000000000000000000000000000000008152506040518060400160405280601481526020017f5226442072657365617263682066756e64696e6700000000000000000000000081525069021e19e0c9bab240000060645f6301e133806040518060400160405280600881526020017f526573656172636800000000000000000000000000000000000000000000000081525061090860201b60201c565b565b5f60075f8481526020019081526020015f205f015f8373ffffffffffffffffffffffffffffffffffffffff1673ffffffffffffffffffffffffffffffffffffffff1681526020019081526020015f205f9054906101000a900460ff16905092915050565b5f33905090565b60405180610100016040528088815260200187815260200186815260200185815260200184151581526020016001151581526020018381526020018281525060085f8a81526020019081526020015f205f820151815f01908161096b9190610c8f565b5060208201518160010190816109819190610c8f565b5060408201518160020155606082015181600301556080820151816004015f6101000a81548160ff02191690831515021790555060a08201518160040160016101000a81548160ff02191690831515021790555060c0820151816005015560e08201518160060190816109f49190610c8f565b5090505080604051610a069190610e57565b6040518091039020887faabc2553b4bf17d03a5f62b5d79d46a221a9f593c4fa29aece483da4670a675b8987604051610a40929190610ed4565b60405180910390a35050505050505050565b5f81519050919050565b7f4e487b71000000000000000000000000000000000000000000000000000000005f52604160045260245ffd5b7f4e487b71000000000000000000000000000000000000000000000000000000005f52602260045260245ffd5b5f6002820490506001821680610acd57607f821691505b602082108103610ae057610adf610a89565b5b50919050565b5f819050815f5260205f209050919050565b5f6020601f8301049050919050565b5f82821b905092915050565b5f60088302610b427fffffffffffffffffffffffffffffffffffffffffffffffffffffffffffffffff82610b07565b610b4c8683610b07565b95508019841693508086168417925050509392505050565b5f819050919050565b5f819050919050565b5f610b90610b8b610b8684610b64565b610b6d565b610b64565b9050919050565b5f819050919050565b610ba983610b76565b610bbd610bb582610b97565b848454610b13565b825550505050565b5f5f905090565b610bd4610bc5565b610bdf818484610ba0565b505050565b5b81811015610c0257610bf75f82610bcc565b600181019050610be5565b5050565b601f821115610c4757610c1881610ae6565b610c2184610af8565b81016020851015610c30578190505b610c44610c3c85610af8565b830182610be4565b50505b505050565b5f82821c905092915050565b5f610c675f1984600802610c4c565b1980831691505092915050565b5f610c7f8383610c58565b9150826002028217905092915050565b610c9882610a52565b67ffffffffffffffff811115610cb157610cb0610a5c565b5b610cbb8254610ab6565b610cc6828285610c06565b5f60209050601f831160018114610cf7575f8415610ce5578287015190505b610cef8582610c74565b865550610d56565b601f198416610d0586610ae6565b5f5b82811015610d2c57848901518255600182019150602085019450602081019050610d07565b86831015610d495784890151610d45601f891682610c58565b8355505b6001600288020188555050505b505050505050565b5f5ffd5b5f73ffffffffffffffffffffffffffffffffffffffff82169050919050565b5f610d8b82610d62565b9050919050565b610d9b81610d81565b8114610da5575f5ffd5b50565b5f81519050610db681610d92565b92915050565b5f60208284031215610dd157610dd0610d5e565b5b5f610dde84828501610da8565b91505092915050565b610df081610d81565b82525050565b5f602082019050610e095f830184610de7565b92915050565b5f81905092915050565b8281835e5f83830152505050565b5f610e3182610a52565b610e3b8185610e0f565b9350610e4b818560208601610e19565b80840191505092915050565b5f610e628284610e27565b915081905092915050565b5f82825260208201905092915050565b5f601f19601f8301169050919050565b5f610e9782610a52565b610ea18185610e6d565b9350610eb1818560208601610e19565b610eba81610e7d565b840191505092915050565b610ece81610b64565b82525050565b5f6040820190508181035f830152610eec8185610e8d565b9050610efb6020830184610ec5565b9392505050565b61539d80610f0f5f395ff3fe608060405234801561000f575f5ffd5b506004361061027c575f3560e01c80638c858a141161015a578063b4bb13ba116100cc578063e317ad6811610085578063e317ad68146107e9578063e831ce9114610805578063e985e9c514610823578063f242432a14610853578063f2edd9c31461086f578063f3cb8c311461089f5761027c565b8063b4bb13ba14610727578063b8732e2314610743578063bd85b03914610761578063cd42d32814610791578063d547741f146107af578063dc5a9531146107cb5761027c565b80639ebc2fc51161011e5780639ebc2fc51461065c578063a217fddf1461067a578063a22cb46514610698578063a4b32de8146106b4578063a879fcbb146106d2578063ade0a3c5146107095761027c565b80638c858a14146105a657806391d14854146105d6578063933c102514610606578063987ea899146106225780639eb102691461063e5761027c565b80632f2ff15d116101f35780634e54b108116101b75780634e54b108146104d25780634f558e79146104f057806360f8b0011461052057806375b238fc1461053c5780637876f85c1461055a5780637e233f191461058a5761027c565b80632f2ff15d1461040a5780632ff46d6514610426578063363387181461045657806336568abe146104865780634e1273f4146104a25761027c565b806318160ddd1161024557806318160ddd146103485780631dd5209014610366578063248a9ca31461038457806324e75ca0146103b45780632a4cab90146103d05780632eb2c2d6146103ee5761027c565b8062fdd58e1461028057806301ffc9a7146102b05780630957dfd0146102e05780630e89341c146102fc57806311be42f41461032c575b5f5ffd5b61029a60048036038101906102959190613e4e565b6108bb565b6040516102a79190613e9b565b60405180910390f35b6102ca60048036038101906102c59190613f09565b610910565b6040516102d79190613f4e565b60405180910390f35b6102fa60048036038101906102f591906140a3565b610921565b005b6103166004803603810190610311919061410f565b610d48565b604051610323919061419a565b60405180910390f35b610346600480360381019061034191906141ba565b610d5a565b005b6103506111e9565b60405161035d9190613e9b565b60405180910390f35b61036e6111f2565b60405161037b9190613e9b565b60405180910390f35b61039e6004803603810190610399919061423d565b6111f7565b6040516103ab9190614277565b60405180910390f35b6103ce60048036038101906103c991906142ba565b611214565b005b6103d86112a7565b6040516103e59190614277565b60405180910390f35b6104086004803603810190610403919061445a565b6112cb565b005b610424600480360381019061041f9190614525565b611391565b005b610440600480360381019061043b9190614563565b6113b3565b60405161044d9190613e9b565b60405180910390f35b610470600480360381019061046b91906145a1565b6113d3565b60405161047d919061419a565b60405180910390f35b6104a0600480360381019061049b9190614525565b61146e565b005b6104bc60048036038101906104b7919061468c565b6114e9565b6040516104c991906147b9565b60405180910390f35b6104da6115f3565b6040516104e79190613e9b565b60405180910390f35b61050a6004803603810190610505919061410f565b6115f8565b6040516105179190613f4e565b60405180910390f35b61053a600480360381019061053591906147d9565b61160b565b005b610544611bbe565b6040516105519190614277565b60405180910390f35b610574600480360381019061056f9190613e4e565b611be2565b6040516105819190613e9b565b60405180910390f35b6105a4600480360381019061059f9190614861565b611c38565b005b6105c060048036038101906105bb919061410f565b611d0d565b6040516105cd9190613e9b565b60405180910390f35b6105f060048036038101906105eb9190614525565b611d55565b6040516105fd9190613f4e565b60405180910390f35b610620600480360381019061061b9190614966565b611db9565b005b61063c600480360381019061063791906145a1565b611ef1565b005b610646611fba565b6040516106539190613e9b565b60405180910390f35b610664611fbf565b6040516106719190613e9b565b60405180910390f35b610682611fc4565b60405161068f9190614277565b60405180910390f35b6106b260048036038101906106ad91906149c0565b611fca565b005b6106bc611fe0565b6040516106c99190614277565b60405180910390f35b6106ec60048036038101906106e7919061410f565b612004565b6040516107009897969594939291906149fe565b60405180910390f35b6107116121f3565b60405161071e9190613e9b565b60405180910390f35b610741600480360381019061073c91906145a1565b6121f8565b005b61074b6122c1565b6040516107589190613e9b565b60405180910390f35b61077b6004803603810190610776919061410f565b6122c6565b6040516107889190613e9b565b60405180910390f35b6107996122e0565b6040516107a69190613e9b565b60405180910390f35b6107c960048036038101906107c49190614525565b6122e4565b005b6107d3612306565b6040516107e09190613e9b565b60405180910390f35b61080360048036038101906107fe91906141ba565b61230b565b005b61080d6124b9565b60405161081a9190614277565b60405180910390f35b61083d60048036038101906108389190614a8f565b6124dd565b60405161084a9190613f4e565b60405180910390f35b61086d60048036038101906108689190614acd565b61256b565b005b6108896004803603810190610884919061410f565b6125e1565b6040516108969190613f4e565b60405180910390f35b6108b960048036038101906108b491906145a1565b612610565b005b5f5f5f8381526020019081526020015f205f8473ffffffffffffffffffffffffffffffffffffffff1673ffffffffffffffffffffffffffffffffffffffff1681526020019081526020015f2054905092915050565b5f61091a826126d9565b9050919050565b5f820361096557816040517f3728b83d00000000000000000000000000000000000000000000000000000000815260040161095c9190613e9b565b60405180910390fd5b5f61097033856108bb565b9050828110156109bd57338484836040517f670f00450000000000000000000000000000000000000000000000000000000081526004016109b49493929190614b6f565b60405180910390fd5b5f60085f8681526020019081526020015f20604051806101000160405290815f820180546109ea90614bdf565b80601f0160208091040260200160405190810160405280929190818152602001828054610a1690614bdf565b8015610a615780601f10610a3857610100808354040283529160200191610a61565b820191905f5260205f20905b815481529060010190602001808311610a4457829003601f168201915b50505050508152602001600182018054610a7a90614bdf565b80601f0160208091040260200160405190810160405280929190818152602001828054610aa690614bdf565b8015610af15780601f10610ac857610100808354040283529160200191610af1565b820191905f5260205f20905b815481529060010190602001808311610ad457829003601f168201915b505050505081526020016002820154815260200160038201548152602001600482015f9054906101000a900460ff161515151581526020016004820160019054906101000a900460ff1615151515815260200160058201548152602001600682018054610b5d90614bdf565b80601f0160208091040260200160405190810160405280929190818152602001828054610b8990614bdf565b8015610bd45780601f10610bab57610100808354040283529160200191610bd4565b820191905f5260205f20905b815481529060010190602001808311610bb757829003601f168201915b50505050508152505090508060a00151610c2557846040517fde050f77000000000000000000000000000000000000000000000000000000008152600401610c1c9190613e9b565b60405180910390fd5b5f8160c00151118015610c3b57508060c0015142115b15610c8357848160c001516040517fd91895e7000000000000000000000000000000000000000000000000000000008152600401610c7a929190614c0f565b60405180910390fd5b610c8e338686612752565b8360095f8781526020019081526020015f205f3373ffffffffffffffffffffffffffffffffffffffff1673ffffffffffffffffffffffffffffffffffffffff1681526020019081526020015f205f828254610ce99190614c63565b92505081905550843373ffffffffffffffffffffffffffffffffffffffff167fe55debcaf9b56f26ac61e84dac0636925db39649632eb0c87e408e94257460eb8686604051610d39929190614c96565b60405180910390a35050505050565b6060610d53826127f4565b9050919050565b7fb1fadd3142ab2ad7f1337ea4d97112bcc8337fc11ce5b20cb04ad038adf99819610d84816128d3565b5f73ffffffffffffffffffffffffffffffffffffffff168473ffffffffffffffffffffffffffffffffffffffff1603610df457836040517f8e4c8aa6000000000000000000000000000000000000000000000000000000008152600401610deb9190614cc4565b60405180910390fd5b5f8203610e3857816040517f3728b83d000000000000000000000000000000000000000000000000000000008152600401610e2f9190613e9b565b60405180910390fd5b5f60085f8581526020019081526020015f20604051806101000160405290815f82018054610e6590614bdf565b80601f0160208091040260200160405190810160405280929190818152602001828054610e9190614bdf565b8015610edc5780601f10610eb357610100808354040283529160200191610edc565b820191905f5260205f20905b815481529060010190602001808311610ebf57829003601f168201915b50505050508152602001600182018054610ef590614bdf565b80601f0160208091040260200160405190810160405280929190818152602001828054610f2190614bdf565b8015610f6c5780601f10610f4357610100808354040283529160200191610f6c565b820191905f5260205f20905b815481529060010190602001808311610f4f57829003601f168201915b505050505081526020016002820154815260200160038201548152602001600482015f9054906101000a900460ff161515151581526020016004820160019054906101000a900460ff1615151515815260200160058201548152602001600682018054610fd890614bdf565b80601f016020809104026020016040519081016040528092919081815260200182805461100490614bdf565b801561104f5780601f106110265761010080835404028352916020019161104f565b820191905f5260205f20905b81548152906001019060200180831161103257829003601f168201915b50505050508152505090508060a001516110a057836040517fde050f770000000000000000000000000000000000000000000000000000000081526004016110979190613e9b565b60405180910390fd5b5f8160c001511180156110b657508060c0015142115b156110fe57838160c001516040517fd91895e70000000000000000000000000000000000000000000000000000000081526004016110f5929190614c0f565b60405180910390fd5b80606001518361110d866122c6565b6111179190614c63565b111561116257838382606001516040517fea27aea800000000000000000000000000000000000000000000000000000000815260040161115993929190614cdd565b60405180910390fd5b61117c85858560405180602001604052805f8152506128e7565b3373ffffffffffffffffffffffffffffffffffffffff16848673ffffffffffffffffffffffffffffffffffffffff167f646231e92ebb058f3fa398a70946820e128bd6c0d9ec679362cbeda9337221b5866040516111da9190613e9b565b60405180910390a45050505050565b5f600454905090565b600381565b5f60075f8381526020019081526020015f20600101549050919050565b7fa49807205ce4d355092ef5a8a18f56e8913cf4a201fbe287825b095693c2177561123e816128d3565b8160085f8581526020019081526020015f2060040160016101000a81548160ff021916908315150217905550827f3aaff362d7ee3a2f8f3627b2c06bf3d51795d4c32927d4caf17c32569045f5308360405161129a9190613f4e565b60405180910390a2505050565b7f5a3425ea67e73c95853ecfc0c443062de292a303c186bc2aac1178ae1b86c62a81565b5f5f90505b835181101561137c5760085f8583815181106112ef576112ee614d12565b5b602002602001015181526020019081526020015f206004015f9054906101000a900460ff1661136f5783818151811061132b5761132a614d12565b5b60200260200101516040517f48a5eb530000000000000000000000000000000000000000000000000000000081526004016113669190613e9b565b60405180910390fd5b80806001019150506112d0565b5061138a858585858561297c565b5050505050565b61139a826111f7565b6113a3816128d3565b6113ad8383612a23565b50505050565b6009602052815f5260405f20602052805f5260405f205f91509150505481565b600a602052805f5260405f205f9150905080546113ef90614bdf565b80601f016020809104026020016040519081016040528092919081815260200182805461141b90614bdf565b80156114665780601f1061143d57610100808354040283529160200191611466565b820191905f5260205f20905b81548152906001019060200180831161144957829003601f168201915b505050505081565b611476612b0d565b73ffffffffffffffffffffffffffffffffffffffff168173ffffffffffffffffffffffffffffffffffffffff16146114da576040517f6697b23200000000000000000000000000000000000000000000000000000000815260040160405180910390fd5b6114e48282612b14565b505050565b6060815183511461153557815183516040517f5b05999100000000000000000000000000000000000000000000000000000000815260040161152c929190614c0f565b60405180910390fd5b5f835167ffffffffffffffff81111561155157611550613f7f565b5b60405190808252806020026020018201604052801561157f5781602001602082028036833780820191505090505b5090505f5f90505b84518110156115e8576115be6115a68287612bfe90919063ffffffff16565b6115b98387612c1190919063ffffffff16565b6108bb565b8282815181106115d1576115d0614d12565b5b602002602001018181525050806001019050611587565b508091505092915050565b600481565b5f5f611603836122c6565b119050919050565b7fb1fadd3142ab2ad7f1337ea4d97112bcc8337fc11ce5b20cb04ad038adf99819611635816128d3565b5f73ffffffffffffffffffffffffffffffffffffffff168473ffffffffffffffffffffffffffffffffffffffff16036116a557836040517f8e4c8aa600000000000000000000000000000000000000000000000000000000815260040161169c9190614cc4565b60405180910390fd5b81518351146116eb575f6040517f3728b83d0000000000000000000000000000000000000000000000000000000081526004016116e29190614d81565b60405180910390fd5b5f5f90505b8351811015611ae7575f60085f8684815181106117105761170f614d12565b5b602002602001015181526020019081526020015f20604051806101000160405290815f8201805461174090614bdf565b80601f016020809104026020016040519081016040528092919081815260200182805461176c90614bdf565b80156117b75780601f1061178e576101008083540402835291602001916117b7565b820191905f5260205f20905b81548152906001019060200180831161179a57829003601f168201915b505050505081526020016001820180546117d090614bdf565b80601f01602080910402602001604051908101604052809291908181526020018280546117fc90614bdf565b80156118475780601f1061181e57610100808354040283529160200191611847565b820191905f5260205f20905b81548152906001019060200180831161182a57829003601f168201915b505050505081526020016002820154815260200160038201548152602001600482015f9054906101000a900460ff161515151581526020016004820160019054906101000a900460ff16151515158152602001600582015481526020016006820180546118b390614bdf565b80601f01602080910402602001604051908101604052809291908181526020018280546118df90614bdf565b801561192a5780601f106119015761010080835404028352916020019161192a565b820191905f5260205f20905b81548152906001019060200180831161190d57829003601f168201915b50505050508152505090508060a001516119955784828151811061195157611950614d12565b5b60200260200101516040517fde050f7700000000000000000000000000000000000000000000000000000000815260040161198c9190613e9b565b60405180910390fd5b5f8160c001511180156119ab57508060c0015142115b15611a0d578482815181106119c3576119c2614d12565b5b60200260200101518160c001516040517fd91895e7000000000000000000000000000000000000000000000000000000008152600401611a04929190614c0f565b60405180910390fd5b8060600151848381518110611a2557611a24614d12565b5b6020026020010151611a50878581518110611a4357611a42614d12565b5b60200260200101516122c6565b611a5a9190614c63565b1115611ad957848281518110611a7357611a72614d12565b5b6020026020010151848381518110611a8e57611a8d614d12565b5b602002602001015182606001516040517fea27aea8000000000000000000000000000000000000000000000000000000008152600401611ad093929190614cdd565b60405180910390fd5b5080806001019150506116f0565b50611b0284848460405180602001604052805f815250612c24565b5f5f90505b8351811015611bb7573373ffffffffffffffffffffffffffffffffffffffff16848281518110611b3a57611b39614d12565b5b60200260200101518673ffffffffffffffffffffffffffffffffffffffff167f646231e92ebb058f3fa398a70946820e128bd6c0d9ec679362cbeda9337221b5868581518110611b8d57611b8c614d12565b5b6020026020010151604051611ba29190613e9b565b60405180910390a48080600101915050611b07565b5050505050565b7fa49807205ce4d355092ef5a8a18f56e8913cf4a201fbe287825b095693c2177581565b5f60095f8381526020019081526020015f205f8473ffffffffffffffffffffffffffffffffffffffff1673ffffffffffffffffffffffffffffffffffffffff1681526020019081526020015f2054905092915050565b7fa49807205ce4d355092ef5a8a18f56e8913cf4a201fbe287825b095693c21775611c62816128d3565b60085f8a81526020019081526020015f2060040160019054906101000a900460ff1615611cc657886040517ff2641c54000000000000000000000000000000000000000000000000000000008152600401611cbd9190613e9b565b60405180910390fd5b5f5f8411611cd4575f611cef565b6201518084611ce39190614d9a565b42611cee9190614c63565b5b9050611d018a8a8a8a8a8a878a612ca7565b50505050505050505050565b5f5f60085f8481526020019081526020015f206003015490505f611d30846122c6565b9050808211611d3f575f611d4c565b8082611d4b9190614ddb565b5b92505050919050565b5f60075f8481526020019081526020015f205f015f8373ffffffffffffffffffffffffffffffffffffffff1673ffffffffffffffffffffffffffffffffffffffff1681526020019081526020015f205f9054906101000a900460ff16905092915050565b7fa49807205ce4d355092ef5a8a18f56e8913cf4a201fbe287825b095693c21775611de3816128d3565b5f73ffffffffffffffffffffffffffffffffffffffff168373ffffffffffffffffffffffffffffffffffffffff1603611e5357826040517f8e4c8aa6000000000000000000000000000000000000000000000000000000008152600401611e4a9190614cc4565b60405180910390fd5b81600a5f8573ffffffffffffffffffffffffffffffffffffffff1673ffffffffffffffffffffffffffffffffffffffff1681526020019081526020015f209081611e9d9190614fa5565b508273ffffffffffffffffffffffffffffffffffffffff167fc7bdec6c03e9ff62938ba3b710e8e0842aafbd16c11ebf8404c475419918cc0883604051611ee4919061419a565b60405180910390a2505050565b7fa49807205ce4d355092ef5a8a18f56e8913cf4a201fbe287825b095693c21775611f1b816128d3565b5f73ffffffffffffffffffffffffffffffffffffffff168273ffffffffffffffffffffffffffffffffffffffff1603611f8b57816040517f8e4c8aa6000000000000000000000000000000000000000000000000000000008152600401611f829190614cc4565b60405180910390fd5b611fb57fb1fadd3142ab2ad7f1337ea4d97112bcc8337fc11ce5b20cb04ad038adf9981983612a23565b505050565b600581565b600281565b5f5f1b81565b611fdc611fd5612b0d565b8383612df1565b5050565b7fb1fadd3142ab2ad7f1337ea4d97112bcc8337fc11ce5b20cb04ad038adf9981981565b6008602052805f5260405f205f91509050805f01805461202390614bdf565b80601f016020809104026020016040519081016040528092919081815260200182805461204f90614bdf565b801561209a5780601f106120715761010080835404028352916020019161209a565b820191905f5260205f20905b81548152906001019060200180831161207d57829003601f168201915b5050505050908060010180546120af90614bdf565b80601f01602080910402602001604051908101604052809291908181526020018280546120db90614bdf565b80156121265780601f106120fd57610100808354040283529160200191612126565b820191905f5260205f20905b81548152906001019060200180831161210957829003601f168201915b505050505090806002015490806003015490806004015f9054906101000a900460ff16908060040160019054906101000a900460ff169080600501549080600601805461217290614bdf565b80601f016020809104026020016040519081016040528092919081815260200182805461219e90614bdf565b80156121e95780601f106121c0576101008083540402835291602001916121e9565b820191905f5260205f20905b8154815290600101906020018083116121cc57829003601f168201915b5050505050905088565b600781565b7fa49807205ce4d355092ef5a8a18f56e8913cf4a201fbe287825b095693c21775612222816128d3565b5f73ffffffffffffffffffffffffffffffffffffffff168273ffffffffffffffffffffffffffffffffffffffff160361229257816040517f8e4c8aa60000000000000000000000000000000000000000000000000000000081526004016122899190614cc4565b60405180910390fd5b6122bc7f9b1f37b329dc3b6ddba707fb04dd2a092d6fa3a054ac450a3b4dc23ede3c6b9483612a23565b505050565b600681565b5f60035f8381526020019081526020015f20549050919050565b5f81565b6122ed826111f7565b6122f6816128d3565b6123008383612b14565b50505050565b600181565b7fb1fadd3142ab2ad7f1337ea4d97112bcc8337fc11ce5b20cb04ad038adf99819612335816128d3565b5f73ffffffffffffffffffffffffffffffffffffffff168473ffffffffffffffffffffffffffffffffffffffff16036123a557836040517f8e4c8aa600000000000000000000000000000000000000000000000000000000815260040161239c9190614cc4565b60405180910390fd5b5f82036123e957816040517f3728b83d0000000000000000000000000000000000000000000000000000000081526004016123e09190613e9b565b60405180910390fd5b5f6123f485856108bb565b90508281101561244157848484836040517f670f00450000000000000000000000000000000000000000000000000000000081526004016124389493929190614b6f565b60405180910390fd5b61244c858585612752565b3373ffffffffffffffffffffffffffffffffffffffff16848673ffffffffffffffffffffffffffffffffffffffff167fe471419d65a2b56b33856d6a025edae1e3cfed8eb2b27ec21ac7a3d11fc97d6e866040516124aa9190613e9b565b60405180910390a45050505050565b7f9b1f37b329dc3b6ddba707fb04dd2a092d6fa3a054ac450a3b4dc23ede3c6b9481565b5f60015f8473ffffffffffffffffffffffffffffffffffffffff1673ffffffffffffffffffffffffffffffffffffffff1681526020019081526020015f205f8373ffffffffffffffffffffffffffffffffffffffff1673ffffffffffffffffffffffffffffffffffffffff1681526020019081526020015f205f9054906101000a900460ff16905092915050565b60085f8481526020019081526020015f206004015f9054906101000a900460ff166125cd57826040517f48a5eb530000000000000000000000000000000000000000000000000000000081526004016125c49190613e9b565b60405180910390fd5b6125da8585858585612f5a565b5050505050565b5f5f60085f8481526020019081526020015f206005015490505f8111801561260857508042115b915050919050565b7fb1fadd3142ab2ad7f1337ea4d97112bcc8337fc11ce5b20cb04ad038adf9981961263a816128d3565b5f73ffffffffffffffffffffffffffffffffffffffff168273ffffffffffffffffffffffffffffffffffffffff16036126aa57816040517f8e4c8aa60000000000000000000000000000000000000000000000000000000081526004016126a19190614cc4565b60405180910390fd5b6126d47f5a3425ea67e73c95853ecfc0c443062de292a303c186bc2aac1178ae1b86c62a83612a23565b505050565b5f7f7965db0b000000000000000000000000000000000000000000000000000000007bffffffffffffffffffffffffffffffffffffffffffffffffffffffff1916827bffffffffffffffffffffffffffffffffffffffffffffffffffffffff1916148061274b575061274a82613001565b5b9050919050565b5f73ffffffffffffffffffffffffffffffffffffffff168373ffffffffffffffffffffffffffffffffffffffff16036127c2575f6040517f01a835140000000000000000000000000000000000000000000000000000000081526004016127b99190614cc4565b60405180910390fd5b5f5f6127ce84846130e2565b915091506127ed855f848460405180602001604052805f815250613112565b5050505050565b60605f60065f8481526020019081526020015f20805461281390614bdf565b80601f016020809104026020016040519081016040528092919081815260200182805461283f90614bdf565b801561288a5780601f106128615761010080835404028352916020019161288a565b820191905f5260205f20905b81548152906001019060200180831161286d57829003601f168201915b505050505090505f8151116128a7576128a2836131be565b6128cb565b6005816040516020016128bb92919061512e565b6040516020818303038152906040525b915050919050565b6128e4816128df612b0d565b613250565b50565b5f73ffffffffffffffffffffffffffffffffffffffff168473ffffffffffffffffffffffffffffffffffffffff1603612957575f6040517f57f447ce00000000000000000000000000000000000000000000000000000000815260040161294e9190614cc4565b60405180910390fd5b5f5f61296385856130e2565b915091506129745f87848487613112565b505050505050565b5f612985612b0d565b90508073ffffffffffffffffffffffffffffffffffffffff168673ffffffffffffffffffffffffffffffffffffffff16141580156129ca57506129c886826124dd565b155b15612a0e5780866040517fe237d922000000000000000000000000000000000000000000000000000000008152600401612a05929190615151565b60405180910390fd5b612a1b86868686866132a1565b505050505050565b5f612a2e8383611d55565b612b0357600160075f8581526020019081526020015f205f015f8473ffffffffffffffffffffffffffffffffffffffff1673ffffffffffffffffffffffffffffffffffffffff1681526020019081526020015f205f6101000a81548160ff021916908315150217905550612aa0612b0d565b73ffffffffffffffffffffffffffffffffffffffff168273ffffffffffffffffffffffffffffffffffffffff16847f2f8788117e7eff1d82e926ec794901d17c78024a50270940304540a733656f0d60405160405180910390a460019050612b07565b5f90505b92915050565b5f33905090565b5f612b1f8383611d55565b15612bf4575f60075f8581526020019081526020015f205f015f8473ffffffffffffffffffffffffffffffffffffffff1673ffffffffffffffffffffffffffffffffffffffff1681526020019081526020015f205f6101000a81548160ff021916908315150217905550612b91612b0d565b73ffffffffffffffffffffffffffffffffffffffff168273ffffffffffffffffffffffffffffffffffffffff16847ff6391f5c32d9c69d2a47ea670b442974b53935d1edc7fd64eb21e047a839171b60405160405180910390a460019050612bf8565b5f90505b92915050565b5f60208202602084010151905092915050565b5f60208202602084010151905092915050565b5f73ffffffffffffffffffffffffffffffffffffffff168473ffffffffffffffffffffffffffffffffffffffff1603612c94575f6040517f57f447ce000000000000000000000000000000000000000000000000000000008152600401612c8b9190614cc4565b60405180910390fd5b612ca15f85858585613112565b50505050565b60405180610100016040528088815260200187815260200186815260200185815260200184151581526020016001151581526020018381526020018281525060085f8a81526020019081526020015f205f820151815f019081612d0a9190614fa5565b506020820151816001019081612d209190614fa5565b5060408201518160020155606082015181600301556080820151816004015f6101000a81548160ff02191690831515021790555060a08201518160040160016101000a81548160ff02191690831515021790555060c0820151816005015560e0820151816006019081612d939190614fa5565b5090505080604051612da59190615178565b6040518091039020887faabc2553b4bf17d03a5f62b5d79d46a221a9f593c4fa29aece483da4670a675b8987604051612ddf92919061518e565b60405180910390a35050505050505050565b5f73ffffffffffffffffffffffffffffffffffffffff168273ffffffffffffffffffffffffffffffffffffffff1603612e61575f6040517fced3e100000000000000000000000000000000000000000000000000000000008152600401612e589190614cc4565b60405180910390fd5b8060015f8573ffffffffffffffffffffffffffffffffffffffff1673ffffffffffffffffffffffffffffffffffffffff1681526020019081526020015f205f8473ffffffffffffffffffffffffffffffffffffffff1673ffffffffffffffffffffffffffffffffffffffff1681526020019081526020015f205f6101000a81548160ff0219169083151502179055508173ffffffffffffffffffffffffffffffffffffffff168373ffffffffffffffffffffffffffffffffffffffff167f17307eab39ab6107e8899845ad3d59bd9653f200f220920489ca2b5937696c3183604051612f4d9190613f4e565b60405180910390a3505050565b5f612f63612b0d565b90508073ffffffffffffffffffffffffffffffffffffffff168673ffffffffffffffffffffffffffffffffffffffff1614158015612fa85750612fa686826124dd565b155b15612fec5780866040517fe237d922000000000000000000000000000000000000000000000000000000008152600401612fe3929190615151565b60405180910390fd5b612ff98686868686613395565b505050505050565b5f7fd9b67a26000000000000000000000000000000000000000000000000000000007bffffffffffffffffffffffffffffffffffffffffffffffffffffffff1916827bffffffffffffffffffffffffffffffffffffffffffffffffffffffff191614806130cb57507f0e89341c000000000000000000000000000000000000000000000000000000007bffffffffffffffffffffffffffffffffffffffffffffffffffffffff1916827bffffffffffffffffffffffffffffffffffffffffffffffffffffffff1916145b806130db57506130da8261349b565b5b9050919050565b60608060405191506001825283602083015260408201905060018152826020820152604081016040529250929050565b61311e85858585613504565b5f73ffffffffffffffffffffffffffffffffffffffff168473ffffffffffffffffffffffffffffffffffffffff16146131b7575f61315a612b0d565b905060018451036131a6575f6131795f86612c1190919063ffffffff16565b90505f61318f5f86612c1190919063ffffffff16565b905061319f838989858589613516565b50506131b5565b6131b48187878787876136c5565b5b505b5050505050565b6060600280546131cd90614bdf565b80601f01602080910402602001604051908101604052809291908181526020018280546131f990614bdf565b80156132445780601f1061321b57610100808354040283529160200191613244565b820191905f5260205f20905b81548152906001019060200180831161322757829003601f168201915b50505050509050919050565b61325a8282611d55565b61329d5780826040517fe2517d3f0000000000000000000000000000000000000000000000000000000081526004016132949291906151bc565b60405180910390fd5b5050565b5f73ffffffffffffffffffffffffffffffffffffffff168473ffffffffffffffffffffffffffffffffffffffff1603613311575f6040517f57f447ce0000000000000000000000000000000000000000000000000000000081526004016133089190614cc4565b60405180910390fd5b5f73ffffffffffffffffffffffffffffffffffffffff168573ffffffffffffffffffffffffffffffffffffffff1603613381575f6040517f01a835140000000000000000000000000000000000000000000000000000000081526004016133789190614cc4565b60405180910390fd5b61338e8585858585613112565b5050505050565b5f73ffffffffffffffffffffffffffffffffffffffff168473ffffffffffffffffffffffffffffffffffffffff1603613405575f6040517f57f447ce0000000000000000000000000000000000000000000000000000000081526004016133fc9190614cc4565b60405180910390fd5b5f73ffffffffffffffffffffffffffffffffffffffff168573ffffffffffffffffffffffffffffffffffffffff1603613475575f6040517f01a8351400000000000000000000000000000000000000000000000000000000815260040161346c9190614cc4565b60405180910390fd5b5f5f61348185856130e2565b915091506134928787848487613112565b50505050505050565b5f7f01ffc9a7000000000000000000000000000000000000000000000000000000007bffffffffffffffffffffffffffffffffffffffffffffffffffffffff1916827bffffffffffffffffffffffffffffffffffffffffffffffffffffffff1916149050919050565b61351084848484613874565b50505050565b5f8473ffffffffffffffffffffffffffffffffffffffff163b11156136bd578373ffffffffffffffffffffffffffffffffffffffff1663f23a6e6187878686866040518663ffffffff1660e01b8152600401613576959493929190615235565b6020604051808303815f875af19250505080156135b157506040513d601f19601f820116820180604052508101906135ae91906152a1565b60015b613632573d805f81146135df576040519150601f19603f3d011682016040523d82523d5f602084013e6135e4565b606091505b505f81510361362a57846040517f57f447ce0000000000000000000000000000000000000000000000000000000081526004016136219190614cc4565b60405180910390fd5b805181602001fd5b63f23a6e6160e01b7bffffffffffffffffffffffffffffffffffffffffffffffffffffffff1916817bffffffffffffffffffffffffffffffffffffffffffffffffffffffff1916146136bb57846040517f57f447ce0000000000000000000000000000000000000000000000000000000081526004016136b29190614cc4565b60405180910390fd5b505b505050505050565b5f8473ffffffffffffffffffffffffffffffffffffffff163b111561386c578373ffffffffffffffffffffffffffffffffffffffff1663bc197c8187878686866040518663ffffffff1660e01b81526004016137259594939291906152cc565b6020604051808303815f875af192505050801561376057506040513d601f19601f8201168201806040525081019061375d91906152a1565b60015b6137e1573d805f811461378e576040519150601f19603f3d011682016040523d82523d5f602084013e613793565b606091505b505f8151036137d957846040517f57f447ce0000000000000000000000000000000000000000000000000000000081526004016137d09190614cc4565b60405180910390fd5b805181602001fd5b63bc197c8160e01b7bffffffffffffffffffffffffffffffffffffffffffffffffffffffff1916817bffffffffffffffffffffffffffffffffffffffffffffffffffffffff19161461386a57846040517f57f447ce0000000000000000000000000000000000000000000000000000000081526004016138619190614cc4565b60405180910390fd5b505b505050505050565b61388084848484613a1d565b5f73ffffffffffffffffffffffffffffffffffffffff168473ffffffffffffffffffffffffffffffffffffffff1603613959575f5f90505f5f90505b835181101561393e575f8382815181106138d9576138d8614d12565b5b602002602001015190508060035f8785815181106138fa576138f9614d12565b5b602002602001015181526020019081526020015f205f82825461391d9190614c63565b9250508190555080836139309190614c63565b9250508060010190506138bc565b508060045f8282546139509190614c63565b92505081905550505b5f73ffffffffffffffffffffffffffffffffffffffff168373ffffffffffffffffffffffffffffffffffffffff1603613a17575f5f90505f5f90505b8351811015613a05575f8382815181106139b2576139b1614d12565b5b602002602001015190508060035f8785815181106139d3576139d2614d12565b5b602002602001015181526020019081526020015f205f8282540392505081905550808301925050806001019050613995565b508060045f8282540392505081905550505b50505050565b8051825114613a6757815181516040517f5b059991000000000000000000000000000000000000000000000000000000008152600401613a5e929190614c0f565b60405180910390fd5b5f613a70612b0d565b90505f5f90505b8351811015613c6f575f613a948286612c1190919063ffffffff16565b90505f613aaa8386612c1190919063ffffffff16565b90505f73ffffffffffffffffffffffffffffffffffffffff168873ffffffffffffffffffffffffffffffffffffffff1614613bcd575f5f5f8481526020019081526020015f205f8a73ffffffffffffffffffffffffffffffffffffffff1673ffffffffffffffffffffffffffffffffffffffff1681526020019081526020015f2054905081811015613b7957888183856040517f03dee4c5000000000000000000000000000000000000000000000000000000008152600401613b709493929190614b6f565b60405180910390fd5b8181035f5f8581526020019081526020015f205f8b73ffffffffffffffffffffffffffffffffffffffff1673ffffffffffffffffffffffffffffffffffffffff1681526020019081526020015f2081905550505b5f73ffffffffffffffffffffffffffffffffffffffff168773ffffffffffffffffffffffffffffffffffffffff1614613c6257805f5f8481526020019081526020015f205f8973ffffffffffffffffffffffffffffffffffffffff1673ffffffffffffffffffffffffffffffffffffffff1681526020019081526020015f205f828254613c5a9190614c63565b925050819055505b5050806001019050613a77565b506001835103613d2a575f613c8d5f85612c1190919063ffffffff16565b90505f613ca35f85612c1190919063ffffffff16565b90508573ffffffffffffffffffffffffffffffffffffffff168773ffffffffffffffffffffffffffffffffffffffff168473ffffffffffffffffffffffffffffffffffffffff167fc3d58168c5ae7397731d063d5bbf3d657854427343f4c083240f7aacaa2d0f628585604051613d1b929190614c0f565b60405180910390a45050613da9565b8373ffffffffffffffffffffffffffffffffffffffff168573ffffffffffffffffffffffffffffffffffffffff168273ffffffffffffffffffffffffffffffffffffffff167f4a39dc06d4c0dbc64b70af90fd698a233a518aa5d07e595d983b8c0526c8f7fb8686604051613da0929190615332565b60405180910390a45b5050505050565b5f604051905090565b5f5ffd5b5f5ffd5b5f73ffffffffffffffffffffffffffffffffffffffff82169050919050565b5f613dea82613dc1565b9050919050565b613dfa81613de0565b8114613e04575f5ffd5b50565b5f81359050613e1581613df1565b92915050565b5f819050919050565b613e2d81613e1b565b8114613e37575f5ffd5b50565b5f81359050613e4881613e24565b92915050565b5f5f60408385031215613e6457613e63613db9565b5b5f613e7185828601613e07565b9250506020613e8285828601613e3a565b9150509250929050565b613e9581613e1b565b82525050565b5f602082019050613eae5f830184613e8c565b92915050565b5f7fffffffff0000000000000000000000000000000000000000000000000000000082169050919050565b613ee881613eb4565b8114613ef2575f5ffd5b50565b5f81359050613f0381613edf565b92915050565b5f60208284031215613f1e57613f1d613db9565b5b5f613f2b84828501613ef5565b91505092915050565b5f8115159050919050565b613f4881613f34565b82525050565b5f602082019050613f615f830184613f3f565b92915050565b5f5ffd5b5f5ffd5b5f601f19601f8301169050919050565b7f4e487b71000000000000000000000000000000000000000000000000000000005f52604160045260245ffd5b613fb582613f6f565b810181811067ffffffffffffffff82111715613fd457613fd3613f7f565b5b80604052505050565b5f613fe6613db0565b9050613ff28282613fac565b919050565b5f67ffffffffffffffff82111561401157614010613f7f565b5b61401a82613f6f565b9050602081019050919050565b828183375f83830152505050565b5f61404761404284613ff7565b613fdd565b90508281526020810184848401111561406357614062613f6b565b5b61406e848285614027565b509392505050565b5f82601f83011261408a57614089613f67565b5b813561409a848260208601614035565b91505092915050565b5f5f5f606084860312156140ba576140b9613db9565b5b5f6140c786828701613e3a565b93505060206140d886828701613e3a565b925050604084013567ffffffffffffffff8111156140f9576140f8613dbd565b5b61410586828701614076565b9150509250925092565b5f6020828403121561412457614123613db9565b5b5f61413184828501613e3a565b91505092915050565b5f81519050919050565b5f82825260208201905092915050565b8281835e5f83830152505050565b5f61416c8261413a565b6141768185614144565b9350614186818560208601614154565b61418f81613f6f565b840191505092915050565b5f6020820190508181035f8301526141b28184614162565b905092915050565b5f5f5f606084860312156141d1576141d0613db9565b5b5f6141de86828701613e07565b93505060206141ef86828701613e3a565b925050604061420086828701613e3a565b9150509250925092565b5f819050919050565b61421c8161420a565b8114614226575f5ffd5b50565b5f8135905061423781614213565b92915050565b5f6020828403121561425257614251613db9565b5b5f61425f84828501614229565b91505092915050565b6142718161420a565b82525050565b5f60208201905061428a5f830184614268565b92915050565b61429981613f34565b81146142a3575f5ffd5b50565b5f813590506142b481614290565b92915050565b5f5f604083850312156142d0576142cf613db9565b5b5f6142dd85828601613e3a565b92505060206142ee858286016142a6565b9150509250929050565b5f67ffffffffffffffff82111561431257614311613f7f565b5b602082029050602081019050919050565b5f5ffd5b5f614339614334846142f8565b613fdd565b9050808382526020820190506020840283018581111561435c5761435b614323565b5b835b8181101561438557806143718882613e3a565b84526020840193505060208101905061435e565b5050509392505050565b5f82601f8301126143a3576143a2613f67565b5b81356143b3848260208601614327565b91505092915050565b5f67ffffffffffffffff8211156143d6576143d5613f7f565b5b6143df82613f6f565b9050602081019050919050565b5f6143fe6143f9846143bc565b613fdd565b90508281526020810184848401111561441a57614419613f6b565b5b614425848285614027565b509392505050565b5f82601f83011261444157614440613f67565b5b81356144518482602086016143ec565b91505092915050565b5f5f5f5f5f60a0868803121561447357614472613db9565b5b5f61448088828901613e07565b955050602061449188828901613e07565b945050604086013567ffffffffffffffff8111156144b2576144b1613dbd565b5b6144be8882890161438f565b935050606086013567ffffffffffffffff8111156144df576144de613dbd565b5b6144eb8882890161438f565b925050608086013567ffffffffffffffff81111561450c5761450b613dbd565b5b6145188882890161442d565b9150509295509295909350565b5f5f6040838503121561453b5761453a613db9565b5b5f61454885828601614229565b925050602061455985828601613e07565b9150509250929050565b5f5f6040838503121561457957614578613db9565b5b5f61458685828601613e3a565b925050602061459785828601613e07565b9150509250929050565b5f602082840312156145b6576145b5613db9565b5b5f6145c384828501613e07565b91505092915050565b5f67ffffffffffffffff8211156145e6576145e5613f7f565b5b602082029050602081019050919050565b5f614609614604846145cc565b613fdd565b9050808382526020820190506020840283018581111561462c5761462b614323565b5b835b8181101561465557806146418882613e07565b84526020840193505060208101905061462e565b5050509392505050565b5f82601f83011261467357614672613f67565b5b81356146838482602086016145f7565b91505092915050565b5f5f604083850312156146a2576146a1613db9565b5b5f83013567ffffffffffffffff8111156146bf576146be613dbd565b5b6146cb8582860161465f565b925050602083013567ffffffffffffffff8111156146ec576146eb613dbd565b5b6146f88582860161438f565b9150509250929050565b5f81519050919050565b5f82825260208201905092915050565b5f819050602082019050919050565b61473481613e1b565b82525050565b5f614745838361472b565b60208301905092915050565b5f602082019050919050565b5f61476782614702565b614771818561470c565b935061477c8361471c565b805f5b838110156147ac578151614793888261473a565b975061479e83614751565b92505060018101905061477f565b5085935050505092915050565b5f6020820190508181035f8301526147d1818461475d565b905092915050565b5f5f5f606084860312156147f0576147ef613db9565b5b5f6147fd86828701613e07565b935050602084013567ffffffffffffffff81111561481e5761481d613dbd565b5b61482a8682870161438f565b925050604084013567ffffffffffffffff81111561484b5761484a613dbd565b5b6148578682870161438f565b9150509250925092565b5f5f5f5f5f5f5f5f610100898b03121561487e5761487d613db9565b5b5f61488b8b828c01613e3a565b985050602089013567ffffffffffffffff8111156148ac576148ab613dbd565b5b6148b88b828c01614076565b975050604089013567ffffffffffffffff8111156148d9576148d8613dbd565b5b6148e58b828c01614076565b96505060606148f68b828c01613e3a565b95505060806149078b828c01613e3a565b94505060a06149188b828c016142a6565b93505060c06149298b828c01613e3a565b92505060e089013567ffffffffffffffff81111561494a57614949613dbd565b5b6149568b828c01614076565b9150509295985092959890939650565b5f5f6040838503121561497c5761497b613db9565b5b5f61498985828601613e07565b925050602083013567ffffffffffffffff8111156149aa576149a9613dbd565b5b6149b685828601614076565b9150509250929050565b5f5f604083850312156149d6576149d5613db9565b5b5f6149e385828601613e07565b92505060206149f4858286016142a6565b9150509250929050565b5f610100820190508181035f830152614a17818b614162565b90508181036020830152614a2b818a614162565b9050614a3a6040830189613e8c565b614a476060830188613e8c565b614a546080830187613f3f565b614a6160a0830186613f3f565b614a6e60c0830185613e8c565b81810360e0830152614a808184614162565b90509998505050505050505050565b5f5f60408385031215614aa557614aa4613db9565b5b5f614ab285828601613e07565b9250506020614ac385828601613e07565b9150509250929050565b5f5f5f5f5f60a08688031215614ae657614ae5613db9565b5b5f614af388828901613e07565b9550506020614b0488828901613e07565b9450506040614b1588828901613e3a565b9350506060614b2688828901613e3a565b925050608086013567ffffffffffffffff811115614b4757614b46613dbd565b5b614b538882890161442d565b9150509295509295909350565b614b6981613de0565b82525050565b5f608082019050614b825f830187614b60565b614b8f6020830186613e8c565b614b9c6040830185613e8c565b614ba96060830184613e8c565b95945050505050565b7f4e487b71000000000000000000000000000000000000000000000000000000005f52602260045260245ffd5b5f6002820490506001821680614bf657607f821691505b602082108103614c0957614c08614bb2565b5b50919050565b5f604082019050614c225f830185613e8c565b614c2f6020830184613e8c565b9392505050565b7f4e487b71000000000000000000000000000000000000000000000000000000005f52601160045260245ffd5b5f614c6d82613e1b565b9150614c7883613e1b565b9250828201905080821115614c9057614c8f614c36565b5b92915050565b5f604082019050614ca95f830185613e8c565b8181036020830152614cbb8184614162565b90509392505050565b5f602082019050614cd75f830184614b60565b92915050565b5f606082019050614cf05f830186613e8c565b614cfd6020830185613e8c565b614d0a6040830184613e8c565b949350505050565b7f4e487b71000000000000000000000000000000000000000000000000000000005f52603260045260245ffd5b5f819050919050565b5f819050919050565b5f614d6b614d66614d6184614d3f565b614d48565b613e1b565b9050919050565b614d7b81614d51565b82525050565b5f602082019050614d945f830184614d72565b92915050565b5f614da482613e1b565b9150614daf83613e1b565b9250828202614dbd81613e1b565b91508282048414831517614dd457614dd3614c36565b5b5092915050565b5f614de582613e1b565b9150614df083613e1b565b9250828203905081811115614e0857614e07614c36565b5b92915050565b5f819050815f5260205f209050919050565b5f6020601f8301049050919050565b5f82821b905092915050565b5f60088302614e6a7fffffffffffffffffffffffffffffffffffffffffffffffffffffffffffffffff82614e2f565b614e748683614e2f565b95508019841693508086168417925050509392505050565b5f614ea6614ea1614e9c84613e1b565b614d48565b613e1b565b9050919050565b5f819050919050565b614ebf83614e8c565b614ed3614ecb82614ead565b848454614e3b565b825550505050565b5f5f905090565b614eea614edb565b614ef5818484614eb6565b505050565b5b81811015614f1857614f0d5f82614ee2565b600181019050614efb565b5050565b601f821115614f5d57614f2e81614e0e565b614f3784614e20565b81016020851015614f46578190505b614f5a614f5285614e20565b830182614efa565b50505b505050565b5f82821c905092915050565b5f614f7d5f1984600802614f62565b1980831691505092915050565b5f614f958383614f6e565b9150826002028217905092915050565b614fae8261413a565b67ffffffffffffffff811115614fc757614fc6613f7f565b5b614fd18254614bdf565b614fdc828285614f1c565b5f60209050601f83116001811461500d575f8415614ffb578287015190505b6150058582614f8a565b86555061506c565b601f19841661501b86614e0e565b5f5b828110156150425784890151825560018201915060208501945060208101905061501d565b8683101561505f578489015161505b601f891682614f6e565b8355505b6001600288020188555050505b505050505050565b5f81905092915050565b5f815461508a81614bdf565b6150948186615074565b9450600182165f81146150ae57600181146150c3576150f5565b60ff19831686528115158202860193506150f5565b6150cc85614e0e565b5f5b838110156150ed578154818901526001820191506020810190506150ce565b838801955050505b50505092915050565b5f6151088261413a565b6151128185615074565b9350615122818560208601614154565b80840191505092915050565b5f615139828561507e565b915061514582846150fe565b91508190509392505050565b5f6040820190506151645f830185614b60565b6151716020830184614b60565b9392505050565b5f61518382846150fe565b915081905092915050565b5f6040820190508181035f8301526151a68185614162565b90506151b56020830184613e8c565b9392505050565b5f6040820190506151cf5f830185614b60565b6151dc6020830184614268565b9392505050565b5f81519050919050565b5f82825260208201905092915050565b5f615207826151e3565b61521181856151ed565b9350615221818560208601614154565b61522a81613f6f565b840191505092915050565b5f60a0820190506152485f830188614b60565b6152556020830187614b60565b6152626040830186613e8c565b61526f6060830185613e8c565b818103608083015261528181846151fd565b90509695505050505050565b5f8151905061529b81613edf565b92915050565b5f602082840312156152b6576152b5613db9565b5b5f6152c38482850161528d565b91505092915050565b5f60a0820190506152df5f830188614b60565b6152ec6020830187614b60565b81810360408301526152fe818661475d565b90508181036060830152615312818561475d565b9050818103608083015261532681846151fd565b90509695505050505050565b5f6040820190508181035f83015261534a818561475d565b9050818103602083015261535e818461475d565b9050939250505056fea2646970667358221220dfdfc79ae2df00afab4ad414ddf91a95875a2fd2e638d603874f88534a004d0864736f6c634300081e003368747470733a2f2f656e74657270726973652e636f6d70616e792e636f6d2f6170692f61737365742f7b69647d2e6a736f6e427573696e6573732074726176656c2062756467657420616c6c6f636174696f6e","linkReferences":{}},"methodIdentifiers":{"ADMIN_ROLE()":"75b238fc","ASSET_MANAGER_ROLE()":"a4b32de8","CLOUD_CREDITS()":"dc5a9531","DEFAULT_ADMIN_ROLE()":"a217fddf","DEPARTMENT_HEAD_ROLE()":"e831ce91","EMPLOYEE_ROLE()":"2a4cab90","EQUIPMENT_VOUCHER()":"4e54b108","MARKETING_BUDGET()":"b8732e23","MEETING_ROOM_HOUR()":"1dd52090","RESEARCH_GRANT()":"ade0a3c5","SOFTWARE_LICENSE()":"cd42d328","TRAINING_VOUCHER()":"9ebc2fc5","TRAVEL_BUDGET()":"9eb10269","addAssetManager(address)":"987ea899","addDepartmentHead(address)":"b4bb13ba","addEmployee(address)":"f3cb8c31","allocateAssets(address,uint256,uint256)":"11be42f4","assetInfo(uint256)":"a879fcbb","assignDepartment(address,string)":"933c1025","balanceOf(address,uint256)":"00fdd58e","balanceOfBatch(address[],uint256[])":"4e1273f4","batchAllocateAssets(address,uint256[],uint256[])":"60f8b001","createAssetType(uint256,string,string,uint256,uint256,bool,uint256,string)":"7e233f19","exists(uint256)":"4f558e79","getRemainingSupply(uint256)":"8c858a14","getRoleAdmin(bytes32)":"248a9ca3","getUserSpentAmount(address,uint256)":"7876f85c","grantRole(bytes32,address)":"2f2ff15d","hasRole(bytes32,address)":"91d14854","isApprovedForAll(address,address)":"e985e9c5","isAssetExpired(uint256)":"f2edd9c3","reclaimAssets(address,uint256,uint256)":"e317ad68","renounceRole(bytes32,address)":"36568abe","revokeRole(bytes32,address)":"d547741f","safeBatchTransferFrom(address,address,uint256[],uint256[],bytes)":"2eb2c2d6","safeTransferFrom(address,address,uint256,uint256,bytes)":"f242432a","setApprovalForAll(address,bool)":"a22cb465","setAssetStatus(uint256,bool)":"24e75ca0","spendAsset(uint256,uint256,string)":"0957dfd0","supportsInterface(bytes4)":"01ffc9a7","totalSupply()":"18160ddd","totalSupply(uint256)":"bd85b039","uri(uint256)":"0e89341c","userDepartments(address)":"36338718","userSpentAmount(uint256,address)":"2ff46d65"},"id":17}