{"abi":[{"type":"constructor","inputs":[{"name":"uri","type":"string","internalType":"string"}],"stateMutability":"nonpayable"},{"type":"function","name":"AUDITOR_ROLE","inputs":[],"outputs":[{"name":"","type":"bytes32","internalType":"bytes32"}],"stateMutability":"view"},{"type":"function","name":"DEFAULT_ADMIN_ROLE","inputs":[],"outputs":[{"name":"","type":"bytes32","internalType":"bytes32"}],"stateMutability":"view"},{"type":"function","name":"ISSUER_ROLE","inputs":[],"outputs":[{"name":"","type":"bytes32","internalType":"bytes32"}],"stateMutability":"view"},{"type":"function","name":"PAUSER_ROLE","inputs":[],"outputs":[{"name":"","type":"bytes32","internalType":"bytes32"}],"stateMutability":"view"},{"type":"function","name":"VALIDATOR_ROLE","inputs":[],"outputs":[{"name":"","type":"bytes32","internalType":"bytes32"}],"stateMutability":"view"},{"type":"function","name":"activateReceivable","inputs":[{"name":"_tokenId","type":"uint256","internalType":"uint256"},{"name":"_reason","type":"string","internalType":"string"}],"outputs":[],"stateMutability":"nonpayable"},{"type":"function","name":"addNotes","inputs":[{"name":"_tokenId","type":"uint256","internalType":"uint256"},{"name":"_notes","type":"string","internalType":"string"}],"outputs":[],"stateMutability":"nonpayable"},{"type":"function","name":"balanceOf","inputs":[{"name":"account","type":"address","internalType":"address"},{"name":"id","type":"uint256","internalType":"uint256"}],"outputs":[{"name":"","type":"uint256","internalType":"uint256"}],"stateMutability":"view"},{"type":"function","name":"balanceOfBatch","inputs":[{"name":"accounts","type":"address[]","internalType":"address[]"},{"name":"ids","type":"uint256[]","internalType":"uint256[]"}],"outputs":[{"name":"","type":"uint256[]","internalType":"uint256[]"}],"stateMutability":"view"},{"type":"function","name":"cancelReceivable","inputs":[{"name":"_tokenId","type":"uint256","internalType":"uint256"},{"name":"_reason","type":"string","internalType":"string"},{"name":"_evidenceHash","type":"bytes32","internalType":"bytes32"}],"outputs":[],"stateMutability":"nonpayable"},{"type":"function","name":"cnpjReceivables","inputs":[{"name":"","type":"string","internalType":"string"},{"name":"","type":"uint256","internalType":"uint256"}],"outputs":[{"name":"","type":"uint256","internalType":"uint256"}],"stateMutability":"view"},{"type":"function","name":"cnpjTotalOwed","inputs":[{"name":"","type":"string","internalType":"string"}],"outputs":[{"name":"","type":"uint256","internalType":"uint256"}],"stateMutability":"view"},{"type":"function","name":"documentNumberToTokenId","inputs":[{"name":"","type":"string","internalType":"string"}],"outputs":[{"name":"","type":"uint256","internalType":"uint256"}],"stateMutability":"view"},{"type":"function","name":"exists","inputs":[{"name":"_tokenId","type":"uint256","internalType":"uint256"}],"outputs":[{"name":"","type":"bool","internalType":"bool"}],"stateMutability":"view"},{"type":"function","name":"getCNPJReceivables","inputs":[{"name":"_cnpj","type":"string","internalType":"string"}],"outputs":[{"name":"","type":"uint256[]","internalType":"uint256[]"}],"stateMutability":"view"},{"type":"function","name":"getCNPJSummary","inputs":[{"name":"_cnpj","type":"string","internalType":"string"}],"outputs":[{"name":"summary","type":"tuple","internalType":"struct ChippedReceivablesTracker.CNPJSummary","components":[{"name":"totalReceivables","type":"uint256","internalType":"uint256"},{"name":"totalValue","type":"uint256","internalType":"uint256"},{"name":"paidValue","type":"uint256","internalType":"uint256"},{"name":"pendingValue","type":"uint256","internalType":"uint256"},{"name":"overdueCount","type":"uint256","internalType":"uint256"}]}],"stateMutability":"view"},{"type":"function","name":"getIssuerReceivables","inputs":[{"name":"_issuer","type":"address","internalType":"address"}],"outputs":[{"name":"","type":"uint256[]","internalType":"uint256[]"}],"stateMutability":"view"},{"type":"function","name":"getPaymentHistory","inputs":[{"name":"_tokenId","type":"uint256","internalType":"uint256"}],"outputs":[{"name":"","type":"tuple[]","internalType":"struct ChippedReceivablesTracker.PaymentRecord[]","components":[{"name":"timestamp","type":"uint256","internalType":"uint256"},{"name":"amount","type":"uint256","internalType":"uint256"},{"name":"paymentMethod","type":"string","internalType":"string"},{"name":"transactionId","type":"string","internalType":"string"},{"name":"recordedBy","type":"address","internalType":"address"},{"name":"proofHash","type":"bytes32","internalType":"bytes32"},{"name":"isPartial","type":"bool","internalType":"bool"}]}],"stateMutability":"view"},{"type":"function","name":"getProtocolStats","inputs":[],"outputs":[{"name":"stats","type":"tuple","internalType":"struct ChippedReceivablesTracker.ProtocolStats","components":[{"name":"totalReceivables","type":"uint256","internalType":"uint256"},{"name":"totalValue","type":"uint256","internalType":"uint256"},{"name":"createdCount","type":"uint256","internalType":"uint256"},{"name":"validatedCount","type":"uint256","internalType":"uint256"},{"name":"activeCount","type":"uint256","internalType":"uint256"},{"name":"paidCount","type":"uint256","internalType":"uint256"},{"name":"overdueCount","type":"uint256","internalType":"uint256"},{"name":"cancelledCount","type":"uint256","internalType":"uint256"}]}],"stateMutability":"view"},{"type":"function","name":"getReceivableDetails","inputs":[{"name":"_tokenId","type":"uint256","internalType":"uint256"}],"outputs":[{"name":"","type":"tuple","internalType":"struct ChippedReceivablesTracker.ReceivableDocument","components":[{"name":"tokenId","type":"uint256","internalType":"uint256"},{"name":"documentNumber","type":"string","internalType":"string"},{"name":"documentType","type":"uint8","internalType":"enum ChippedReceivablesTracker.DocumentType"},{"name":"issuer","type":"address","internalType":"address"},{"name":"payerCNPJ","type":"string","internalType":"string"},{"name":"originalValue","type":"uint256","internalType":"uint256"},{"name":"currentValue","type":"uint256","internalType":"uint256"},{"name":"dueDate","type":"uint256","internalType":"uint256"},{"name":"status","type":"uint8","internalType":"enum ChippedReceivablesTracker.ReceivableStatus"},{"name":"isValidated","type":"bool","internalType":"bool"},{"name":"validator","type":"address","internalType":"address"},{"name":"validationTimestamp","type":"uint256","internalType":"uint256"},{"name":"documentHash","type":"bytes32","internalType":"bytes32"},{"name":"lastUpdateTimestamp","type":"uint256","internalType":"uint256"},{"name":"lastUpdatedBy","type":"address","internalType":"address"}]}],"stateMutability":"view"},{"type":"function","name":"getRoleAdmin","inputs":[{"name":"role","type":"bytes32","internalType":"bytes32"}],"outputs":[{"name":"","type":"bytes32","internalType":"bytes32"}],"stateMutability":"view"},{"type":"function","name":"getStatusHistory","inputs":[{"name":"_tokenId","type":"uint256","internalType":"uint256"}],"outputs":[{"name":"","type":"tuple[]","internalType":"struct ChippedReceivablesTracker.StatusChange[]","components":[{"name":"timestamp","type":"uint256","internalType":"uint256"},{"name":"fromStatus","type":"uint8","internalType":"enum ChippedReceivablesTracker.ReceivableStatus"},{"name":"toStatus","type":"uint8","internalType":"enum ChippedReceivablesTracker.ReceivableStatus"},{"name":"changedBy","type":"address","internalType":"address"},{"name":"reason","type":"string","internalType":"string"},{"name":"evidenceHash","type":"bytes32","internalType":"bytes32"}]}],"stateMutability":"view"},{"type":"function","name":"grantRole","inputs":[{"name":"role","type":"bytes32","internalType":"bytes32"},{"name":"account","type":"address","internalType":"address"}],"outputs":[],"stateMutability":"nonpayable"},{"type":"function","name":"hasRole","inputs":[{"name":"role","type":"bytes32","internalType":"bytes32"},{"name":"account","type":"address","internalType":"address"}],"outputs":[{"name":"","type":"bool","internalType":"bool"}],"stateMutability":"view"},{"type":"function","name":"isApprovedForAll","inputs":[{"name":"account","type":"address","internalType":"address"},{"name":"operator","type":"address","internalType":"address"}],"outputs":[{"name":"","type":"bool","internalType":"bool"}],"stateMutability":"view"},{"type":"function","name":"isDocumentTokenized","inputs":[{"name":"_documentNumber","type":"string","internalType":"string"}],"outputs":[{"name":"","type":"bool","internalType":"bool"},{"name":"","type":"uint256","internalType":"uint256"}],"stateMutability":"view"},{"type":"function","name":"issuerReceivables","inputs":[{"name":"","type":"address","internalType":"address"},{"name":"","type":"uint256","internalType":"uint256"}],"outputs":[{"name":"","type":"uint256","internalType":"uint256"}],"stateMutability":"view"},{"type":"function","name":"issuerTotalValue","inputs":[{"name":"","type":"address","internalType":"address"}],"outputs":[{"name":"","type":"uint256","internalType":"uint256"}],"stateMutability":"view"},{"type":"function","name":"markAsOverdue","inputs":[{"name":"_tokenId","type":"uint256","internalType":"uint256"},{"name":"_reason","type":"string","internalType":"string"}],"outputs":[],"stateMutability":"nonpayable"},{"type":"function","name":"pause","inputs":[],"outputs":[],"stateMutability":"nonpayable"},{"type":"function","name":"paused","inputs":[],"outputs":[{"name":"","type":"bool","internalType":"bool"}],"stateMutability":"view"},{"type":"function","name":"paymentHistory","inputs":[{"name":"","type":"uint256","internalType":"uint256"},{"name":"","type":"uint256","internalType":"uint256"}],"outputs":[{"name":"timestamp","type":"uint256","internalType":"uint256"},{"name":"amount","type":"uint256","internalType":"uint256"},{"name":"paymentMethod","type":"string","internalType":"string"},{"name":"transactionId","type":"string","internalType":"string"},{"name":"recordedBy","type":"address","internalType":"address"},{"name":"proofHash","type":"bytes32","internalType":"bytes32"},{"name":"isPartial","type":"bool","internalType":"bool"}],"stateMutability":"view"},{"type":"function","name":"receivables","inputs":[{"name":"","type":"uint256","internalType":"uint256"}],"outputs":[{"name":"tokenId","type":"uint256","internalType":"uint256"},{"name":"documentNumber","type":"string","internalType":"string"},{"name":"documentType","type":"uint8","internalType":"enum ChippedReceivablesTracker.DocumentType"},{"name":"issuer","type":"address","internalType":"address"},{"name":"payerCNPJ","type":"string","internalType":"string"},{"name":"originalValue","type":"uint256","internalType":"uint256"},{"name":"currentValue","type":"uint256","internalType":"uint256"},{"name":"dueDate","type":"uint256","internalType":"uint256"},{"name":"status","type":"uint8","internalType":"enum ChippedReceivablesTracker.ReceivableStatus"},{"name":"isValidated","type":"bool","internalType":"bool"},{"name":"validator","type":"address","internalType":"address"},{"name":"validationTimestamp","type":"uint256","internalType":"uint256"},{"name":"documentHash","type":"bytes32","internalType":"bytes32"},{"name":"lastUpdateTimestamp","type":"uint256","internalType":"uint256"},{"name":"lastUpdatedBy","type":"address","internalType":"address"}],"stateMutability":"view"},{"type":"function","name":"recordPayment","inputs":[{"name":"_tokenId","type":"uint256","internalType":"uint256"},{"name":"_amount","type":"uint256","internalType":"uint256"},{"name":"_paymentMethod","type":"string","internalType":"string"},{"name":"_transactionId","type":"string","internalType":"string"},{"name":"_proofHash","type":"bytes32","internalType":"bytes32"}],"outputs":[],"stateMutability":"nonpayable"},{"type":"function","name":"renounceRole","inputs":[{"name":"role","type":"bytes32","internalType":"bytes32"},{"name":"callerConfirmation","type":"address","internalType":"address"}],"outputs":[],"stateMutability":"nonpayable"},{"type":"function","name":"revokeRole","inputs":[{"name":"role","type":"bytes32","internalType":"bytes32"},{"name":"account","type":"address","internalType":"address"}],"outputs":[],"stateMutability":"nonpayable"},{"type":"function","name":"safeBatchTransferFrom","inputs":[{"name":"from","type":"address","internalType":"address"},{"name":"to","type":"address","internalType":"address"},{"name":"ids","type":"uint256[]","internalType":"uint256[]"},{"name":"values","type":"uint256[]","internalType":"uint256[]"},{"name":"data","type":"bytes","internalType":"bytes"}],"outputs":[],"stateMutability":"nonpayable"},{"type":"function","name":"safeTransferFrom","inputs":[{"name":"from","type":"address","internalType":"address"},{"name":"to","type":"address","internalType":"address"},{"name":"id","type":"uint256","internalType":"uint256"},{"name":"value","type":"uint256","internalType":"uint256"},{"name":"data","type":"bytes","internalType":"bytes"}],"outputs":[],"stateMutability":"nonpayable"},{"type":"function","name":"setApprovalForAll","inputs":[{"name":"operator","type":"address","internalType":"address"},{"name":"approved","type":"bool","internalType":"bool"}],"outputs":[],"stateMutability":"nonpayable"},{"type":"function","name":"setURI","inputs":[{"name":"_newURI","type":"string","internalType":"string"}],"outputs":[],"stateMutability":"nonpayable"},{"type":"function","name":"statusCount","inputs":[{"name":"","type":"uint8","internalType":"enum ChippedReceivablesTracker.ReceivableStatus"}],"outputs":[{"name":"","type":"uint256","internalType":"uint256"}],"stateMutability":"view"},{"type":"function","name":"statusHistory","inputs":[{"name":"","type":"uint256","internalType":"uint256"},{"name":"","type":"uint256","internalType":"uint256"}],"outputs":[{"name":"timestamp","type":"uint256","internalType":"uint256"},{"name":"fromStatus","type":"uint8","internalType":"enum ChippedReceivablesTracker.ReceivableStatus"},{"name":"toStatus","type":"uint8","internalType":"enum ChippedReceivablesTracker.ReceivableStatus"},{"name":"changedBy","type":"address","internalType":"address"},{"name":"reason","type":"string","internalType":"string"},{"name":"evidenceHash","type":"bytes32","internalType":"bytes32"}],"stateMutability":"view"},{"type":"function","name":"supportsInterface","inputs":[{"name":"interfaceId","type":"bytes4","internalType":"bytes4"}],"outputs":[{"name":"","type":"bool","internalType":"bool"}],"stateMutability":"view"},{"type":"function","name":"tokenizeReceivable","inputs":[{"name":"params","type":"tuple","internalType":"struct ChippedReceivablesTracker.TokenizeParams","components":[{"name":"documentNumber","type":"string","internalType":"string"},{"name":"documentType","type":"uint8","internalType":"enum ChippedReceivablesTracker.DocumentType"},{"name":"issuerName","type":"string","internalType":"string"},{"name":"issuerCNPJ","type":"string","internalType":"string"},{"name":"payerName","type":"string","internalType":"string"},{"name":"payerCNPJ","type":"string","internalType":"string"},{"name":"originalValue","type":"uint256","internalType":"uint256"},{"name":"dueDate","type":"uint256","internalType":"uint256"},{"name":"ipfsHash","type":"string","internalType":"string"},{"name":"documentHash","type":"bytes32","internalType":"bytes32"},{"name":"description","type":"string","internalType":"string"}]}],"outputs":[{"name":"","type":"uint256","internalType":"uint256"}],"stateMutability":"nonpayable"},{"type":"function","name":"totalSupply","inputs":[],"outputs":[{"name":"","type":"uint256","internalType":"uint256"}],"stateMutability":"view"},{"type":"function","name":"totalSupply","inputs":[{"name":"id","type":"uint256","internalType":"uint256"}],"outputs":[{"name":"","type":"uint256","internalType":"uint256"}],"stateMutability":"view"},{"type":"function","name":"unpause","inputs":[],"outputs":[],"stateMutability":"nonpayable"},{"type":"function","name":"updateIPFSHash","inputs":[{"name":"_tokenId","type":"uint256","internalType":"uint256"},{"name":"_newHash","type":"string","internalType":"string"}],"outputs":[],"stateMutability":"nonpayable"},{"type":"function","name":"uri","inputs":[{"name":"","type":"uint256","internalType":"uint256"}],"outputs":[{"name":"","type":"string","internalType":"string"}],"stateMutability":"view"},{"type":"function","name":"validateReceivable","inputs":[{"name":"_tokenId","type":"uint256","internalType":"uint256"},{"name":"_isValid","type":"bool","internalType":"bool"},{"name":"_validationNotes","type":"string","internalType":"string"},{"name":"_adjustedValue","type":"uint256","internalType":"uint256"}],"outputs":[],"stateMutability":"nonpayable"},{"type":"event","name":"ApprovalForAll","inputs":[{"name":"account","type":"address","indexed":true,"internalType":"address"},{"name":"operator","type":"address","indexed":true,"internalType":"address"},{"name":"approved","type":"bool","indexed":false,"internalType":"bool"}],"anonymous":false},{"type":"event","name":"DocumentUpdated","inputs":[{"name":"tokenId","type":"uint256","indexed":true,"internalType":"uint256"},{"name":"field","type":"string","indexed":false,"internalType":"string"},{"name":"oldValue","type":"string","indexed":false,"internalType":"string"},{"name":"newValue","type":"string","indexed":false,"internalType":"string"},{"name":"updatedBy","type":"address","indexed":false,"internalType":"address"},{"name":"timestamp","type":"uint256","indexed":false,"internalType":"uint256"}],"anonymous":false},{"type":"event","name":"Paused","inputs":[{"name":"account","type":"address","indexed":false,"internalType":"address"}],"anonymous":false},{"type":"event","name":"PaymentRecorded","inputs":[{"name":"tokenId","type":"uint256","indexed":true,"internalType":"uint256"},{"name":"amount","type":"uint256","indexed":false,"internalType":"uint256"},{"name":"paymentMethod","type":"string","indexed":false,"internalType":"string"},{"name":"transactionId","type":"string","indexed":false,"internalType":"string"},{"name":"isPartial","type":"bool","indexed":false,"internalType":"bool"},{"name":"timestamp","type":"uint256","indexed":false,"internalType":"uint256"}],"anonymous":false},{"type":"event","name":"ReceivableTokenized","inputs":[{"name":"tokenId","type":"uint256","indexed":true,"internalType":"uint256"},{"name":"documentNumber","type":"string","indexed":true,"internalType":"string"},{"name":"issuer","type":"address","indexed":true,"internalType":"address"},{"name":"payerCNPJ","type":"string","indexed":false,"internalType":"string"},{"name":"value","type":"uint256","indexed":false,"internalType":"uint256"},{"name":"dueDate","type":"uint256","indexed":false,"internalType":"uint256"},{"name":"documentType","type":"uint8","indexed":false,"internalType":"enum ChippedReceivablesTracker.DocumentType"},{"name":"timestamp","type":"uint256","indexed":false,"internalType":"uint256"}],"anonymous":false},{"type":"event","name":"ReceivableValidated","inputs":[{"name":"tokenId","type":"uint256","indexed":true,"internalType":"uint256"},{"name":"validator","type":"address","indexed":true,"internalType":"address"},{"name":"isValid","type":"bool","indexed":false,"internalType":"bool"},{"name":"validationNotes","type":"string","indexed":false,"internalType":"string"},{"name":"timestamp","type":"uint256","indexed":false,"internalType":"uint256"}],"anonymous":false},{"type":"event","name":"RoleAdminChanged","inputs":[{"name":"role","type":"bytes32","indexed":true,"internalType":"bytes32"},{"name":"previousAdminRole","type":"bytes32","indexed":true,"internalType":"bytes32"},{"name":"newAdminRole","type":"bytes32","indexed":true,"internalType":"bytes32"}],"anonymous":false},{"type":"event","name":"RoleGranted","inputs":[{"name":"role","type":"bytes32","indexed":true,"internalType":"bytes32"},{"name":"account","type":"address","indexed":true,"internalType":"address"},{"name":"sender","type":"address","indexed":true,"internalType":"address"}],"anonymous":false},{"type":"event","name":"RoleRevoked","inputs":[{"name":"role","type":"bytes32","indexed":true,"internalType":"bytes32"},{"name":"account","type":"address","indexed":true,"internalType":"address"},{"name":"sender","type":"address","indexed":true,"internalType":"address"}],"anonymous":false},{"type":"event","name":"StatusChanged","inputs":[{"name":"tokenId","type":"uint256","indexed":true,"internalType":"uint256"},{"name":"oldStatus","type":"uint8","indexed":true,"internalType":"enum ChippedReceivablesTracker.ReceivableStatus"},{"name":"newStatus","type":"uint8","indexed":true,"internalType":"enum ChippedReceivablesTracker.ReceivableStatus"},{"name":"changedBy","type":"address","indexed":false,"internalType":"address"},{"name":"reason","type":"string","indexed":false,"internalType":"string"},{"name":"timestamp","type":"uint256","indexed":false,"internalType":"uint256"}],"anonymous":false},{"type":"event","name":"TransferBatch","inputs":[{"name":"operator","type":"address","indexed":true,"internalType":"address"},{"name":"from","type":"address","indexed":true,"internalType":"address"},{"name":"to","type":"address","indexed":true,"internalType":"address"},{"name":"ids","type":"uint256[]","indexed":false,"internalType":"uint256[]"},{"name":"values","type":"uint256[]","indexed":false,"internalType":"uint256[]"}],"anonymous":false},{"type":"event","name":"TransferSingle","inputs":[{"name":"operator","type":"address","indexed":true,"internalType":"address"},{"name":"from","type":"address","indexed":true,"internalType":"address"},{"name":"to","type":"address","indexed":true,"internalType":"address"},{"name":"id","type":"uint256","indexed":false,"internalType":"uint256"},{"name":"value","type":"uint256","indexed":false,"internalType":"uint256"}],"anonymous":false},{"type":"event","name":"URI","inputs":[{"name":"value","type":"string","indexed":false,"internalType":"string"},{"name":"id","type":"uint256","indexed":true,"internalType":"uint256"}],"anonymous":false},{"type":"event","name":"Unpaused","inputs":[{"name":"account","type":"address","indexed":false,"internalType":"address"}],"anonymous":false},{"type":"error","name":"AccessControlBadConfirmation","inputs":[]},{"type":"error","name":"AccessControlUnauthorizedAccount","inputs":[{"name":"account","type":"address","internalType":"address"},{"name":"neededRole","type":"bytes32","internalType":"bytes32"}]},{"type":"error","name":"DocumentAlreadyExists","inputs":[{"name":"documentNumber","type":"string","internalType":"string"}]},{"type":"error","name":"DocumentNotValidated","inputs":[{"name":"tokenId","type":"uint256","internalType":"uint256"}]},{"type":"error","name":"ERC1155InsufficientBalance","inputs":[{"name":"sender","type":"address","internalType":"address"},{"name":"balance","type":"uint256","internalType":"uint256"},{"name":"needed","type":"uint256","internalType":"uint256"},{"name":"tokenId","type":"uint256","internalType":"uint256"}]},{"type":"error","name":"ERC1155InvalidApprover","inputs":[{"name":"approver","type":"address","internalType":"address"}]},{"type":"error","name":"ERC1155InvalidArrayLength","inputs":[{"name":"idsLength","type":"uint256","internalType":"uint256"},{"name":"valuesLength","type":"uint256","internalType":"uint256"}]},{"type":"error","name":"ERC1155InvalidOperator","inputs":[{"name":"operator","type":"address","internalType":"address"}]},{"type":"error","name":"ERC1155InvalidReceiver","inputs":[{"name":"receiver","type":"address","internalType":"address"}]},{"type":"error","name":"ERC1155InvalidSender","inputs":[{"name":"sender","type":"address","internalType":"address"}]},{"type":"error","name":"ERC1155MissingApprovalForAll","inputs":[{"name":"operator","type":"address","internalType":"address"},{"name":"owner","type":"address","internalType":"address"}]},{"type":"error","name":"EnforcedPause","inputs":[]},{"type":"error","name":"ExpectedPause","inputs":[]},{"type":"error","name":"InvalidInput","inputs":[{"name":"parameter","type":"string","internalType":"string"}]},{"type":"error","name":"InvalidStatus","inputs":[{"name":"current","type":"uint8","internalType":"enum ChippedReceivablesTracker.ReceivableStatus"},{"name":"target","type":"uint8","internalType":"enum ChippedReceivablesTracker.ReceivableStatus"}]},{"type":"error","name":"NotAuthorized","inputs":[{"name":"caller","type":"address","internalType":"address"},{"name":"action","type":"string","internalType":"string"}]},{"type":"error","name":"TokenNotExists","inputs":[{"name":"tokenId","type":"uint256","internalType":"uint256"}]}],"bytecode":{"object":"0x6080604052346200023857620055f4803803806200001d816200023c565b92833981019060208082840312620002385781516001600160401b039283821162000238570192601f90808286011215620002385784518481116200020f57601f199562000071828501881686016200023c565b92828452858383010111620002385784905f5b838110620002235750505f918301015280519384116200020f57600254926001938481811c9116801562000204575b82821014620001f057838111620001a7575b5080928511600114620001405750839450908392915f9462000134575b50501b915f199060031b1c1916176002555b620000ff3362000262565b506200010b33620002d2565b50620001173362000373565b5062000123336200040e565b5060405161510a9081620004aa8239f35b015192505f80620000e2565b92948490811660025f52845f20945f905b888383106200018c575050501062000173575b505050811b01600255620000f4565b01515f1960f88460031b161c191690555f808062000164565b85870151885590960195948501948793509081019062000151565b60025f52815f208480880160051c820192848910620001e6575b0160051c019085905b828110620001da575050620000c5565b5f8155018590620001ca565b92508192620001c1565b634e487b7160e01b5f52602260045260245ffd5b90607f1690620000b3565b634e487b7160e01b5f52604160045260245ffd5b81810183015185820184015286920162000084565b5f80fd5b6040519190601f01601f191682016001600160401b038111838210176200020f57604052565b6001600160a01b03165f8181525f80516020620055d4833981519152602052604090205460ff16620002cd575f8181525f80516020620055d483398151915260205260408120805460ff191660011790553391905f80516020620055b48339815191528180a4600190565b505f90565b6001600160a01b03165f8181527f79563398ede65821e586930347c7bf645b17f9037c6bf4a0371b4966e689846960205260409020547f21702c8af46127c7fa207f89d0b0a8441bb32959a0ac7df790e9ab1a25c98926919060ff166200036d57815f52600560205260405f20815f5260205260405f20600160ff1982541617905533915f80516020620055b48339815191525f80a4600190565b50505f90565b6001600160a01b03165f8181527f318595587b435248c1c0d84f694e524594f9c16fb93ac19f9f10a2980147457960205260409020547f59a1c48e5837ad7a7f3dcedcbe129bf3249ec4fbf651fd4f5e2600ead39fe2f5919060ff166200036d57815f52600560205260405f20815f5260205260405f20600160ff1982541617905533915f80516020620055b48339815191525f80a4600190565b6001600160a01b03165f8181527f99f2891db7a8db76249871a02b43b68c0bb8f22ef8a3bc1034ae9375ef6b7c3c60205260409020547f65d7a28e3265b37a6474929f336521b332c1681b933f6cb9f3376673440d862a919060ff166200036d57815f52600560205260405f20815f5260205260405f20600160ff1982541617905533915f80516020620055b48339815191525f80a460019056fe60806040526004361015610011575f80fd5b5f3560e01c8062fdd58e1461033357806301ffc9a71461032e57806302fe530514610329578063078d7adf1461032457806309bc2dad1461031f5780630e89341c1461031a57806318160ddd14610315578063188789ce14610310578063248a9ca31461030b5780632eb2c2d6146103065780632f2ff15d14610301578063302d9276146102fc57806336568abe146102f75780633f4ba83a146102f25780634e02503a146102ed5780634e1273f4146102e85780634f558e79146102e35780635267eecb146102de57806358a20b3b146102d95780635c975abb146102d45780635fec78ea146102cf57806364cd3327146102ca578063686fbf07146102c55780636e1d616e146102c0578063771aceef146102bb57806380661567146102b657806380a69c2a146102b157806380ed04a9146102ac57806382aefa24146102a757806383c32cad146102a25780638456cb591461029d5780638dd158fd1461029857806391d14854146102935780639757c6be1461028e578063a142404c14610289578063a217fddf14610284578063a22cb4651461027f578063a6ec12151461027a578063b1f9741f14610275578063b27062db14610270578063bd85b0391461026b578063c49baebe14610266578063d547741f14610261578063d9ed28b71461025c578063e5d32d6e14610257578063e63ab1e914610252578063e7296d4b1461024d578063e985e9c514610248578063f242432a146102435763fd537c251461023e575f80fd5b6129d7565b6128b0565b61285e565b612734565b6126fa565b6126d7565b6125f5565b6125b8565b61257e565b612554565b6124d1565b612420565b6123a7565b612274565b61225a565b6120db565b611efa565b611e9c565b611e26565b611dcd565b611d5c565b611d22565b611bb8565b611ac9565b6119e7565b61182e565b6117f4565b6117c1565b611619565b6115b9565b611569565b61147a565b61130f565b611152565b611097565b610f3c565b610dfa565b610d9b565b610d83565b610d46565b610c0e565b610b69565b610ad3565b61096d565b610896565b610848565b610766565b610667565b6103d7565b61037c565b600435906001600160a01b038216820361034e57565b5f80fd5b602435906001600160a01b038216820361034e57565b35906001600160a01b038216820361034e57565b3461034e57604036600319011261034e5760206103bc61039a610338565b6024355f525f835260405f20906001600160a01b03165f5260205260405f2090565b54604051908152f35b6001600160e01b031981160361034e57565b3461034e57602036600319011261034e5760206001600160e01b03196004356103ff816103c5565b167f7965db0b000000000000000000000000000000000000000000000000000000008114908115610436575b506040519015158152f35b7fd9b67a260000000000000000000000000000000000000000000000000000000081149150811561049a575b8115610470575b505f61042b565b7f01ffc9a7000000000000000000000000000000000000000000000000000000009150145f610469565b7f0e89341c0000000000000000000000000000000000000000000000000000000081149150610462565b634e487b7160e01b5f52604160045260245ffd5b6101e0810190811067ffffffffffffffff8211176104f557604052565b6104c4565b60e0810190811067ffffffffffffffff8211176104f557604052565b60c0810190811067ffffffffffffffff8211176104f557604052565b610100810190811067ffffffffffffffff8211176104f557604052565b6040810190811067ffffffffffffffff8211176104f557604052565b90601f8019910116810190811067ffffffffffffffff8211176104f557604052565b60405190610160820182811067ffffffffffffffff8211176104f557604052565b604051906105bb826104d8565b565b604051906105bb82610516565b604051906105bb826104fa565b67ffffffffffffffff81116104f557601f01601f191660200190565b81601f8201121561034e5780359061060a826105d7565b92610618604051948561056b565b8284526020838301011161034e57815f926020809301838601378301015290565b602060031982011261034e576004359067ffffffffffffffff821161034e57610664916004016105f3565b90565b3461034e5761067536610639565b61067d613c28565b805167ffffffffffffffff81116104f5576106a28161069d600254611186565b6132cc565b602080601f83116001146106e2575081906106d2935f926106d7575b50508160011b915f199060031b1c19161790565b600255005b015190505f806106be565b90601f1983169361071460025f527f405787fa12a823e0f2b7631cc41b3ba8828b3321ca811111fa75cd3aa3bb5ace90565b925f905b86821061074e5750508360019510610736575b505050811b01600255005b01515f1960f88460031b161c191690555f808061072b565b80600185968294968601518155019501930190610718565b3461034e57602036600319011261034e576001600160a01b03610787610338565b165f52600f602052602060405f2054604051908152f35b5f5b8381106107af5750505f910152565b81810151838201526020016107a0565b906107d26020928281519485920161079e565b0190565b60206107ef91816040519382858094519384920161079e565b8101601081520301902090565b602061081591816040519382858094519384920161079e565b8101600c81520301902090565b602061083b91816040519382858094519384920161079e565b8101600e81520301902090565b3461034e5760206103bc61085b36610639565b6107d6565b906020916108798151809281855285808601910161079e565b601f01601f1916010190565b906020610664928181520190610860565b3461034e5760208060031936011261034e576040515f916002546108b981611186565b8084529060019081811690811561094d57506001146108f3575b6108ef846108e38188038261056b565b60405191829182610885565b0390f35b60025f9081529294507f405787fa12a823e0f2b7631cc41b3ba8828b3321ca811111fa75cd3aa3bb5ace5b82841061093a57505050816108ef936108e392820101936108d3565b805485850187015292850192810161091e565b60ff1916858501525050151560051b82010191506108e3816108ef6108d3565b3461034e575f36600319011261034e576020600454604051908152f35b634e487b7160e01b5f52602160045260245ffd5b600511156109a857565b61098a565b9060058210156109a85752565b600611156109a857565b9060068210156109a85752565b6106649060208152825160208201526020830151610a3b610a006101e092836040860152610200850190610860565b610a12604087015160608601906109ad565b60608601516001600160a01b031660808501526080860151848203601f190160a0860152610860565b9360a081015160c084015260c081015160e084015260e08101516101009081850152810151610a7061012091828601906109c4565b810151610a84610140918286019015159052565b810151610a9f61016091828601906001600160a01b03169052565b81015161018090818501528101516101a09081850152810151906101c0918285015201519101906001600160a01b03169052565b3461034e57602036600319011261034e575f6101c0604051610af4816104d8565b82815260606020820152826040820152826060820152606060808201528260a08201528260c08201528260e08201528261010082015282610120820152826101408201528261016082015282610180820152826101a082015201526108ef610b5d600435612ae3565b604051918291826109d1565b3461034e57602036600319011261034e576004355f5260056020526020600160405f200154604051908152f35b67ffffffffffffffff81116104f55760051b60200190565b9080601f8301121561034e576020908235610bc881610b96565b93610bd6604051958661056b565b81855260208086019260051b82010192831161034e57602001905b828210610bff575050505090565b81358152908301908301610bf1565b3461034e5760a036600319011261034e57610c27610338565b610c2f610352565b906044359167ffffffffffffffff9081841161034e57610c5460049436908601610bae565b9060643583811161034e57610c6c9036908701610bae565b9260843590811161034e57610c8490369087016105f3565b936001600160a01b03808216903382141580610d15575b610ce457831615610ccd5715610cb757610cb59550614999565b005b6024865f60405191626a0d4560e21b8352820152fd5b6024875f60405191632bfa23e760e11b8352820152fd5b6040805163711bec9160e11b815233818b019081526001600160a01b038616602082015290918291010390fd5b0390fd5b50815f52600160205260ff610d3e3360405f20906001600160a01b03165f5260205260405f2090565b541615610c9b565b3461034e57604036600319011261034e57610cb5600435610d65610352565b90805f526005602052610d7e600160405f200154613dfd565b613e25565b3461034e5760206103bc610d9636610639565b6107fc565b3461034e57604036600319011261034e57610db4610352565b336001600160a01b03821603610dd057610cb590600435613ebf565b60046040517f6697b232000000000000000000000000000000000000000000000000000000008152fd5b3461034e575f36600319011261034e57610e12613c7d565b60065460ff811615610e515760ff19166006557f5db9ee0a495bf2e6ff9c91a7834c1ba4fdd244a5e8aa4e537bd38aeae4b073aa6020604051338152a1005b60046040517f8dfc202b000000000000000000000000000000000000000000000000000000008152fd5b6020808201908083528351809252604092604081018260408560051b8401019601945f925b858410610eb1575050505050505090565b909192939495968580600192603f198582030187528a5190610f02610eef60e08451845285850151868501528985015190808b860152840190610860565b6060808501519084830390850152610860565b9160806001600160a01b0381830151169083015260a0808201519083015260c0809101511515910152990194019401929594939190610ea0565b3461034e5760208060031936011261034e57600490600435610f69815f52600360205260405f2054151590565b1561103b575f52600b815260409060405f20805491610f8783610b96565b93610f95604051958661056b565b8385525f928352818320908286015b858510610fb957604051806108ef8982610e7b565b6007846001928451610fca816104fa565b865481528487015483820152610fe2600288016111be565b86820152610ff2600388016111be565b6060820152868c01546001600160a01b03166080820152600587015460a082015261102d611024600689015460ff1690565b151560c0830152565b815201930194019391610fa4565b60249060405190630f76b55560e11b82526004820152fd5b9081518082526020808093019301915f5b828110611072575050505090565b835185529381019392810192600101611064565b906020610664928181520190611053565b3461034e57604036600319011261034e5760043567ffffffffffffffff80821161034e573660238301121561034e5781600401356110d481610b96565b926110e2604051948561056b565b8184526020916024602086019160051b8301019136831161034e57602401905b82821061113b578560243586811161034e576108ef9161112961112f923690600401610bae565b90612d2f565b60405191829182611086565b83809161114784610368565b815201910190611102565b3461034e57602036600319011261034e57602061117c6004355f52600360205260405f2054151590565b6040519015158152f35b90600182811c921680156111b4575b60208310146111a057565b634e487b7160e01b5f52602260045260245ffd5b91607f1691611195565b9060405191825f82546111d081611186565b908184526020946001916001811690815f1461123c57506001146111fe575b5050506105bb9250038361056b565b5f90815285812095935091905b8183106112245750506105bb93508201015f80806111ef565b8554888401850152948501948794509183019161120b565b925050506105bb94925060ff191682840152151560051b8201015f80806111ef565b959f9e9d9b999795809d9b9997959492916101e09182918152602001528d0161128691610860565b9160408d01611294916109ad565b6001600160a01b031660608c01528a810360808c01526112b391610860565b9b60a08a015260c089015260e088015261010087016112d1916109c4565b15156101208601526001600160a01b03166101408501526101608401526101808301526101a08201526101c0016105bb916001600160a01b03169052565b3461034e57602036600319011261034e576004355f52600960205260405f2080546108ef61133f600184016111be565b916002840154936001600160a01b039161135b600383016111be565b92600483015491600584015491600685015490600786015491600887015494600988015496611399600b600a8b01549a01546001600160a01b031690565b996040519d8e809e878960101c169960ff80808c60081c169b16998560081c1694169261125e565b6020808201908083528351809252604092604081018260408560051b8401019601945f925b8584106113f7575050505050505090565b909192939495968580600192603f198582030187528a519061145f60c08351835261142885850151868501906109c4565b611438898501518a8501906109c4565b60606001600160a01b03818601511690840152608090808286015192850152830190610860565b9160a0809101519101529901940194019295949391906113e6565b3461034e5760208060031936011261034e576004906004356114a7815f52600360205260405f2054151590565b1561103b575f52600a815260409160405f208054926114c584610b96565b946114d3604051968761056b565b8486525f928352818320908287015b8685106114f757604051806108ef8a826113c1565b8584600192845161150781610516565b865481526001600160a01b038588015461153760ff61152a818416888701612c11565b8260081c16898501612c11565b60101c16606082015261154c600288016111be565b6080820152600387015460a08201528152019301940193916114e2565b3461034e575f36600319011261034e57602060ff600654166040519015158152f35b634e487b7160e01b5f52603260045260245ffd5b80548210156115b4575f5260205f2001905f90565b61158b565b3461034e57604036600319011261034e5760043567ffffffffffffffff811161034e576115ea9036906004016105f3565b6115f660243591610822565b805482101561034e5760209161160b9161159f565b90546040519160031b1c8152f35b3461034e57606036600319011261034e5760043560243567ffffffffffffffff811161034e5761164d9036906004016105f3565b90805f5260096020526001600160a01b03600260405f20015460081c163314158061174c575b806116f1575b61168a57610cb59160443591612dec565b604080517f50df61b30000000000000000000000000000000000000000000000000000000081523360048201526024810191909152600660448201527f6d6f6469667900000000000000000000000000000000000000000000000000006064820152608490fd5b505f8052600560205261174761174361173c337f05b8ccbb9d4d8fb16ea74ce3c29a41f1b461fbdaff4714a0d9a8eb05499746bc5b906001600160a01b03165f5260205260405f2090565b5460ff1690565b1590565b611679565b507f59a1c48e5837ad7a7f3dcedcbe129bf3249ec4fbf651fd4f5e2600ead39fe2f55f5260056020526117a561174361173c337f318595587b435248c1c0d84f694e524594f9c16fb93ac19f9f10a29801474579611726565b611673565b60068110156109a8575f52601160205260405f2090565b3461034e57602036600319011261034e57600435600681101561034e575f526011602052602060405f2054604051908152f35b3461034e575f36600319011261034e5760206040517f59a1c48e5837ad7a7f3dcedcbe129bf3249ec4fbf651fd4f5e2600ead39fe2f58152f35b3461034e575f36600319011261034e576108ef60405161184d81610532565b604081015f8152606082015f8152608083015f815260a08401905f825260c08501925f845260e08601945f8652600754875260085460208801526118995f8052601160205260405f2090565b5490527f17bc176d2408558f6e4111feebc3cab4e16b63e967be91cde721f4c8a488b5525490527f08037d7b151cc412d25674a4e66b334d9ae9d2e5517a7feaae5cdb828bf1c6285490527f9bfbaa59f8e10e7868f8b402de9d605a390c45ddaebd8c9de3c6f31e733c87ff5490527f251164fe1d8864fe5e86082eae9c288bc2b58695a4d28538dfe86e9e4f17558554905260055f52601160209081527fc550213cee30afd5e67ccba7be3d381bbc169034ae08eb3ec9168caca9fe55e754909152604080518351815283830151928101929092528281015190820152606080830151908201526080808301519082015260a0808301519082015260c0808301519082015260e09182015191810191909152908190610100820190565b90604060031983011261034e57600435916024359067ffffffffffffffff821161034e57610664916004016105f3565b3461034e576119f5366119b7565b815f5260096020526001600160a01b03600260405f20015460081c1633141580611a6b575b80611a2d575b61168a57610cb591612e2b565b505f80526005602052611a6661174361173c337f05b8ccbb9d4d8fb16ea74ce3c29a41f1b461fbdaff4714a0d9a8eb05499746bc611726565b611a20565b507f59a1c48e5837ad7a7f3dcedcbe129bf3249ec4fbf651fd4f5e2600ead39fe2f55f526005602052611ac461174361173c337f318595587b435248c1c0d84f694e524594f9c16fb93ac19f9f10a29801474579611726565b611a1a565b3461034e57611ad7366119b7565b815f5260096020526001600160a01b03600260405f20015460081c1633141580611b4d575b80611b0f575b61168a57610cb591612f16565b505f80526005602052611b4861174361173c337f05b8ccbb9d4d8fb16ea74ce3c29a41f1b461fbdaff4714a0d9a8eb05499746bc611726565b611b02565b507f59a1c48e5837ad7a7f3dcedcbe129bf3249ec4fbf651fd4f5e2600ead39fe2f55f526005602052611ba661174361173c337f318595587b435248c1c0d84f694e524594f9c16fb93ac19f9f10a29801474579611726565b611afc565b3590600582101561034e57565b3461034e5760031960203682011261034e57600480359167ffffffffffffffff9081841161034e5761016090843603011261034e57611bf561058d565b908383013581811161034e57611c10908436918701016105f3565b8252611c1e60248501611bab565b6020830152604484013581811161034e57611c3e908436918701016105f3565b6040830152606484013581811161034e57611c5e908436918701016105f3565b6060830152608484013581811161034e57611c7e908436918701016105f3565b608083015260a484013581811161034e57611c9e908436918701016105f3565b60a083015260c484013560c083015260e484013560e083015261010484013581811161034e57611cd3908436918701016105f3565b61010083015261012484013561012083015261014484013590811161034e576108ef93611d1293611d0792369201016105f3565b610140820152612fe3565b6040519081529081906020820190565b3461034e575f36600319011261034e5760206040517f114e74f6ea3bd819998f78687bfcb11b140da08e9b7d222fa9c1f1ba1f2aa1228152f35b3461034e57611d72611d6d36610639565b610822565b6040518082548082526020809201935f5260205f20915f905b828210611db6576108ef85611da28189038261056b565b604051918291602083526020830190611053565b835486529485019460019384019390910190611d8b565b3461034e575f36600319011261034e57611de5613c7d565b611ded614569565b600160ff1960065416176006557f62e78cea01bee320cd4e420270b5ea74000d11b0c9f74754ebdbfc544b05a2586020604051338152a1005b3461034e5760208060031936011261034e576001600160a01b03611e48610338565b165f52600d60205260405f20906040519081602084549182815201935f5260205f20915f905b828210611e85576108ef8561112f8189038261056b565b835486529485019460019384019390910190611e6e565b3461034e57604036600319011261034e57602060ff611edf611ebc610352565b6004355f526005845260405f20906001600160a01b03165f5260205260405f2090565b54166040519015158152f35b60243590811515820361034e57565b3461034e57608036600319011261034e57600435611f16611eeb565b9060443567ffffffffffffffff811161034e57611f379036906004016105f3565b91606435611f43613cf8565b611f58835f52600360205260405f2054151590565b156120c357611f6f835f52600960205260405f2090565b916007830191611f84835460ff9060081c1690565b61207d57825475ffffffffffffffffffffffffffffffffffffffff00003360101b167fffffffffffffffffffff000000000000000000000000000000000000000000ff90911617610100179092557f568fbac1d6dbad9cc17a287a2005939ce73a46b123bffe6e2f358fd6358f641d9261205592904260088201819055600a820155600b810180546001600160a01b031916331790558115158061206f575b612064575b5050801561205a5761204560015b61203e6135d8565b9086613f83565b6040519182913396429184613611565b0390a3005b6120456005612036565b600501555f80612028565b506005810154821415612023565b60405163d647364f60e01b815260206004820152601060248201527f616c726561647956616c696461746564000000000000000000000000000000006044820152606490fd5b60248360405190630f76b55560e11b82526004820152fd5b3461034e576120e936610639565b6121026120fd6120f7613630565b92610822565b61358a565b9060208101905f5b835181101561221b578061213a61213561212660019488612d1b565b515f52600960205260405f2090565b612c1d565b6121448451613232565b845260a08101906121578251875161366b565b865261010081016003815161216b816109ba565b612174816109ba565b036121945750505161218b6040850191825161366b565b90525b0161210a565b909150600481516121a4816109ba565b6121ad816109ba565b036121de575060c090608085016121c48151613232565b905201516121d76060850191825161366b565b905261218e565b600290516121eb816109ba565b6121f4816109ba565b14612200575b5061218e565b60c001516122136060850191825161366b565b90525f6121fa565b6108ef826040519182918291909160808060a0830194805184526020810151602085015260408101516040850152606081015160608501520151910152565b3461034e575f36600319011261034e5760206040515f8152f35b3461034e57604036600319011261034e5761228d610338565b612295611eeb565b6001600160a01b03821691821561231157816122d06122e192335f52600160205260405f20906001600160a01b03165f5260205260405f2090565b9060ff801983541691151516179055565b60405190151581527f17307eab39ab6107e8899845ad3d59bd9653f200f220920489ca2b5937696c3160203392a3005b60246040517fced3e1000000000000000000000000000000000000000000000000000000000081525f6004820152fd5b80548210156115b4575f5260205f209060021b01905f90565b969594919361238b6123a29461238160a0976001600160a01b03958c5260208c01906109c4565b60408a01906109c4565b16606087015260c0608087015260c0860190610860565b930152565b3461034e57604036600319011261034e576024356004355f52600a60205260405f2090815481101561034e576123dc91612341565b508054906108ef60018201549160036123f7600283016111be565b9101549060405194846001600160a01b03879660101c169160ff808360081c169216908761235a565b3461034e57604036600319011261034e57612439610338565b6001600160a01b0360243591165f52600d60205260405f20805482101561034e5760209161160b9161159f565b80548210156115b4575f52600760205f20910201905f90565b9592936124b060c0969998956001600160a01b03946124be948a5260208a015260e060408a015260e0890190610860565b908782036060890152610860565b9616608085015260a08401521515910152565b3461034e57604036600319011261034e576024356004355f52600b60205260405f2090815481101561034e5761250691612466565b5080546108ef60018301549261251e600282016111be565b9061252b600382016111be565b6001600160a01b036004830154169060ff6006600585015494015416936040519788978861247f565b3461034e57602036600319011261034e576004355f526003602052602060405f2054604051908152f35b3461034e575f36600319011261034e5760206040517f21702c8af46127c7fa207f89d0b0a8441bb32959a0ac7df790e9ab1a25c989268152f35b3461034e57604036600319011261034e57610cb56004356125d7610352565b90805f5260056020526125f0600160405f200154613dfd565b613ebf565b3461034e57612603366119b7565b815f5260096020526001600160a01b03600260405f20015460081c1633141580612679575b8061263b575b61168a57610cb591613678565b505f8052600560205261267461174361173c337f05b8ccbb9d4d8fb16ea74ce3c29a41f1b461fbdaff4714a0d9a8eb05499746bc611726565b61262e565b507f59a1c48e5837ad7a7f3dcedcbe129bf3249ec4fbf651fd4f5e2600ead39fe2f55f5260056020526126d261174361173c337f318595587b435248c1c0d84f694e524594f9c16fb93ac19f9f10a29801474579611726565b612628565b3461034e5760406126ea610d9636610639565b5481519080151582526020820152f35b3461034e575f36600319011261034e5760206040517f65d7a28e3265b37a6474929f336521b332c1681b933f6cb9f3376673440d862a8152f35b3461034e5760a036600319011261034e5767ffffffffffffffff60043560443582811161034e576127699036906004016105f3565b9160643590811161034e576127829036906004016105f3565b815f5260096020526001600160a01b03600260405f20015460081c1633141580612800575b806127c2575b61168a57610cb5926084359260243590613734565b505f805260056020526127fb61174361173c337f05b8ccbb9d4d8fb16ea74ce3c29a41f1b461fbdaff4714a0d9a8eb05499746bc611726565b6127ad565b507f59a1c48e5837ad7a7f3dcedcbe129bf3249ec4fbf651fd4f5e2600ead39fe2f55f52600560205261285961174361173c337f318595587b435248c1c0d84f694e524594f9c16fb93ac19f9f10a29801474579611726565b6127a7565b3461034e57604036600319011261034e57602060ff611edf61287e610338565b6001600160a01b0361288e610352565b91165f526001845260405f20906001600160a01b03165f5260205260405f2090565b3461034e5760a036600319011261034e576128c9610338565b6128d1610352565b60843567ffffffffffffffff811161034e576128f19036906004016105f3565b906001600160a01b038084169033821415806129a6575b61297f57821615612968571561295257610cb59261294a6064356044359160405192600184526020840152604083019160018352606084015260808301604052565b929091614999565b6024604051626a0d4560e21b81525f6004820152fd5b6024604051632bfa23e760e11b81525f6004820152fd5b60405163711bec9160e11b81523360048201526001600160a01b0386166024820152604490fd5b50815f52600160205260ff6129cf3360405f20906001600160a01b03165f5260205260405f2090565b541615612908565b3461034e576129e5366119b7565b6129ed613d4f565b612a02825f52600360205260405f2054151590565b15612aa357815f52600960205260405f206006810154421115612a5d576007015460ff1691612a30836109ba565b60028303612a4257610cb592506140b9565b60405163f924664d60e01b815280610d118560048301612ed0565b60405163d647364f60e01b815260206004820152600960248201527f6e6f7444756559657400000000000000000000000000000000000000000000006044820152606490fd5b60248260405190630f76b55560e11b82526004820152fd5b612adf915f525f60205260405f20906001600160a01b03165f5260205260405f2090565b5490565b612af8815f52600360205260405f2054151590565b1561103b575f52600960205260405f20610664612bf4600b612b186105ae565b9380548552612b29600182016111be565b6020860152612bc56002820154612b4660ff821660408901612c05565b60081c6001600160a01b039081166060880152612b65600384016111be565b6080880152600483015460a0880152600583015460c0880152600683015460e08801526007830154612b9e60ff82166101008a01612c11565b600881901c60ff16151561012089015260101c166101408701906001600160a01b03169052565b60088101546101608601526009810154610180860152600a8101546101a086015201546001600160a01b031690565b6001600160a01b03166101c0830152565b60058210156109a85752565b60068210156109a85752565b906105bb612d0a600b612c2e6105ae565b9480548652612c3f600182016111be565b6020870152612cdb6002820154612c5c60ff821660408a01612c05565b60081c6001600160a01b039081166060890152612c7b600384016111be565b6080890152600483015460a0890152600583015460c0890152600683015460e08901526007830154612cb460ff82166101008b01612c11565b600881901c60ff1615156101208a015260101c166101408801906001600160a01b03169052565b60088101546101608701526009810154610180870152600a8101546101a087015201546001600160a01b031690565b6001600160a01b03166101c0840152565b80518210156115b45760209160051b010190565b91909180518351808203612db1575050805190612d64612d4e83610b96565b92612d5c604051948561056b565b808452610b96565b60209190601f190136848401375f5b8151811015612da95780612d9860019260051b85808287010151918a01015190612abb565b612da28287612d1b565b5201612d73565b509193505050565b6040517f5b05999100000000000000000000000000000000000000000000000000000000815260048101919091526024810191909152604490fd5b929190612e04845f52600360205260405f2054151590565b15612e13576105bb92936141be565b60248460405190630f76b55560e11b82526004820152fd5b9190612e42835f52600360205260405f2054151590565b156120c357825f526009602052600760405f20015460ff8160081c1615612e9e5760ff1692612e70846109ba565b60018403612e83576105bb9293506142c5565b60405163f924664d60e01b815280610d118660048301612eea565b6040517ff30f390e00000000000000000000000000000000000000000000000000000000815260048101859052602490fd5b6020600491939293612ee68160408101966109c4565b0152565b6020600291939293612ee68160408101966109c4565b6020600391939293612ee68160408101966109c4565b90612f2c825f52600360205260405f2054151590565b15612aa3575f82815260096020526040902042600a820155600b0180546001600160a01b031916331790557f1c91f8099f5e215d7e19e734c991cc68191a339c74f4612714acec5e0304b89190612fd29060405191829160a08352600860a08401527f697066734861736800000000000000000000000000000000000000000000000060c084015260e060208401525f60e0840152610100806040850152830190610860565b3360608301524260808301520390a2565b90612fec613da6565b612ff4614569565b815151156131d85760c082018051156131925760e0830190815142101561314c5761301f84516107fc565b54613115577f572f5cd4043b746386cc7007c732fc0c94f212bb192f4ff7c0dcaa34fdc470d6929361305a613055600754613232565b600755565b600754938161306a86938461471b565b61307c613075613245565b84336147c8565b61308681846148da565b6130d861309b845f52600a60205260405f2090565b610120830151906130aa6105bd565b4281525f602082018190526040820152336060820152916130c9613268565b608084015260a083015261344c565b80519061310f6130fe602060a084015197519851930151936130f98561099e565b613539565b956040519384933399429386613559565b0390a490565b610d1184516040519182917f2935618800000000000000000000000000000000000000000000000000000000835260048301610885565b60405163d647364f60e01b815260206004820152600760248201527f64756544617465000000000000000000000000000000000000000000000000006044820152606490fd5b60405163d647364f60e01b815260206004820152600d60248201527f6f726967696e616c56616c7565000000000000000000000000000000000000006044820152606490fd5b60405163d647364f60e01b815260206004820152600e60248201527f646f63756d656e744e756d6265720000000000000000000000000000000000006044820152606490fd5b634e487b7160e01b5f52601160045260245ffd5b5f1981146132405760010190565b61321e565b604051906020820182811067ffffffffffffffff8211176104f5576040525f8252565b604051906132758261054f565b601082527f496e697469616c206372656174696f6e000000000000000000000000000000006020830152565b634e487b7160e01b5f525f60045260245ffd5b9060068110156109a85760ff80198354169116179055565b601f81116132d8575050565b60025f527f405787fa12a823e0f2b7631cc41b3ba8828b3321ca811111fa75cd3aa3bb5ace906020601f840160051c8301931061332f575b601f0160051c01905b818110613324575050565b5f8155600101613319565b9091508190613310565b601f821161334657505050565b5f5260205f20906020601f840160051c8301931061337e575b601f0160051c01905b818110613373575050565b5f8155600101613368565b909150819061335f565b919091825167ffffffffffffffff81116104f5576133b0816133aa8454611186565b84613339565b602080601f83116001146133e5575081906133e19394955f926106d75750508160011b915f199060031b1c19161790565b9055565b90601f198316956133f9855f5260205f2090565b925f905b8882106134345750508360019596971061341c575b505050811b019055565b01515f1960f88460031b161c191690555f8080613412565b806001859682949686015181550195019301906133fd565b8054680100000000000000008110156104f55761346e91600182018155612341565b919091613534578051825560018201602082015160068110156109a85761349590826132b4565b60408201519160068310156109a85761351c826134c560039560a095549061ff009060081b169061ff0019161790565b815560608301516001600160a01b03165b7fffffffffffffffffffff0000000000000000000000000000000000000000ffff75ffffffffffffffffffffffffffffffffffffffff000083549260101b169116179055565b61352d608082015160028601613388565b0151910155565b6132a1565b6135519060206040519282848094519384920161079e565b810103902090565b91959493608093613575612ee69360a0865260a0860190610860565b976020850152604084015260608301906109ad565b90604051918281549182825260209260208301915f5260205f20935f905b8282106135be575050506105bb9250038361056b565b8554845260019586019588955093810193909101906135a8565b604051906135e58261054f565b601482527f56616c69646174696f6e20636f6d706c657465640000000000000000000000006020830152565b9392916123a29060409215158652606060208701526060860190610860565b6040519060a0820182811067ffffffffffffffff8211176104f5576040525f6080838281528260208201528260408201528260608201520152565b9190820180921161324057565b9061368e825f52600360205260405f2054151590565b15612aa3575f82815260096020526040902042600a820155600b0180546001600160a01b031916331790557f1c91f8099f5e215d7e19e734c991cc68191a339c74f4612714acec5e0304b89190612fd29060405191829160a08352600560a08401527f6e6f74657300000000000000000000000000000000000000000000000000000060c084015260e060208401525f60e0840152610100806040850152830190610860565b939291909261374e855f52600360205260405f2054151590565b1561396857613765855f52600960205260405f2090565b9360078501613775815460ff1690565b61377e816109ba565b600281141580613954575b61393757508115801561392a575b6138e457856138829360057f5725091f74ff44b69b34f17b2ce27a2cfb9144b8ea1a9034c2be61292ddffcd7980192835485109361381b6137e08c5f52600b60205260405f2090565b6137e86105ca565b42815260208101899052604081018b9052606081018c90523360808201529060a0820186905287151560c0830152613980565b613826868254613b15565b815542600a850155600b840180546001600160a01b031916331790555461388757506138669161386060039261385a613b22565b8c6143ba565b01613b5b565b613871838254613b15565b90555b604051948594429386613beb565b0390a2565b6040517f5061727469616c207061796d656e743a2000000000000000000000000000000060208201526138df9350906138d99061173c836138cb603182018c6107bf565b03601f19810185528461056b565b8a6144af565b613874565b60405163d647364f60e01b815260206004820152600660248201527f616d6f756e7400000000000000000000000000000000000000000000000000006044820152606490fd5b5060058601548211613797565b610d119060405191829163f924664d60e01b835260048301612f00565b5061395e816109ba565b6004811415613789565b60248560405190630f76b55560e11b82526004820152fd5b908154680100000000000000008110156104f5576139a690600193600182018155612466565b9290926135345781518355602090602083015160018501556002840191604084015180519267ffffffffffffffff84116104f5576139ee846139e88754611186565b87613339565b602092601f8511600114613a9a57505093600693613a2c84613a879560c0956105bb9a995f926106d75750508160011b915f199060031b1c19161790565b90555b613a40606082015160038701613388565b613a76613a5760808301516001600160a01b031690565b60048701906001600160a01b03166001600160a01b0319825416179055565b60a081015160058601550151151590565b91019060ff801983541691151516179055565b929190601f19851690613ab0875f5260205f2090565b945f915b838310613afe575050508460c0946105bb99989460069894613a879860019510613ae6575b505050811b019055613a2f565b01515f1960f88460031b161c191690555f8080613ad9565b848601518755958601959481019491810191613ab4565b9190820391821161324057565b60405190613b2f8261054f565b601582527f46756c6c207061796d656e7420726563656976656400000000000000000000006020830152565b60405190815f8254613b6c81611186565b93600191808316908115613bcf5750600114613b94575b505060209250601081520301902090565b9091505f5260209060205f20905f915b858310613bbb575050505060209181015f80613b83565b805487840152869450918301918101613ba4565b92505050602093915060ff191682528015150281015f80613b83565b9192613c0e608094613c1c9398979698855260a0602086015260a0850190610860565b908382036040850152610860565b94151560608201520152565b335f9081527f05b8ccbb9d4d8fb16ea74ce3c29a41f1b461fbdaff4714a0d9a8eb05499746bc602052604090205460ff1615613c6057565b604460405163e2517d3f60e01b81523360048201525f6024820152fd5b335f9081527f99f2891db7a8db76249871a02b43b68c0bb8f22ef8a3bc1034ae9375ef6b7c3c602052604090207f65d7a28e3265b37a6474929f336521b332c1681b933f6cb9f3376673440d862a9060ff905b541615613cda5750565b6044906040519063e2517d3f60e01b82523360048301526024820152fd5b335f9081527f79563398ede65821e586930347c7bf645b17f9037c6bf4a0371b4966e6898469602052604090207f21702c8af46127c7fa207f89d0b0a8441bb32959a0ac7df790e9ab1a25c989269060ff90613cd0565b335f9081527f318595587b435248c1c0d84f694e524594f9c16fb93ac19f9f10a29801474579602052604090207f59a1c48e5837ad7a7f3dcedcbe129bf3249ec4fbf651fd4f5e2600ead39fe2f59060ff90613cd0565b335f9081527f08699172536d22b992c4579cb1469b6a17054a95ee49bf4d1fdc489bafaaa007602052604090207f114e74f6ea3bd819998f78687bfcb11b140da08e9b7d222fa9c1f1ba1f2aa1229060ff90613cd0565b805f52600560205260ff613cd03360405f20906001600160a01b03165f5260205260405f2090565b805f52600560205260ff613e4d8360405f20906001600160a01b03165f5260205260405f2090565b5416613eb957805f526005602052613e798260405f20906001600160a01b03165f5260205260405f2090565b805460ff1916600117905533916001600160a01b0316907f2f8788117e7eff1d82e926ec794901d17c78024a50270940304540a733656f0d5f80a4600190565b50505f90565b805f52600560205260ff613ee78360405f20906001600160a01b03165f5260205260405f2090565b541615613eb957805f526005602052613f148260405f20906001600160a01b03165f5260205260405f2090565b805460ff1916905533916001600160a01b0316907ff6391f5c32d9c69d2a47ea670b442974b53935d1edc7fd64eb21e047a839171b5f80a4600190565b8015613240575f190190565b9392916123a2906001600160a01b03604093168652606060208701526060860190610860565b919091613f98815f52600960205260405f2090565b6007810190613fa8825460ff1690565b93613fb2866109ba565b613fbb856109ba565b8585146140b1576140396140ac9261401e887f3ded1956998639cfc41b20afdf29138d8db0fbdccd5c328d57ef6bbe975724ba96613ff88a6117aa565b6140028154613f51565b905561400d826117aa565b6140178154613232565b90556132b4565b42600a820155600b0180546001600160a01b03191633179055565b61408b61404e855f52600a60205260405f2090565b6140566105bd565b904282526140678860208401612c11565b6140748960408401612c11565b3360608301528360808301525f60a083015261344c565b614094856109ba565b61409d866109ba565b60405191829142903384613f5d565b0390a4565b505050505050565b6140cb815f52600960205260405f2090565b90600782016140db815460ff1690565b926140e5846109ba565b600484146141b7576004946141746140ac9261401e7f3ded1956998639cfc41b20afdf29138d8db0fbdccd5c328d57ef6bbe975724ba95614125896117aa565b61412f8154613f51565b905560045f5260116020527f251164fe1d8864fe5e86082eae9c288bc2b58695a4d28538dfe86e9e4f1755856141658154613232565b9055805460ff19166004179055565b6141ae614189855f52600a60205260405f2090565b6141916105bd565b904282526141a28860208401612c11565b60046040830152614074565b61409d856109ba565b5050505050565b6141d0815f52600960205260405f2090565b92600784016141e0815460ff1690565b936141ea856109ba565b600585146140b1576141ae7f3ded1956998639cfc41b20afdf29138d8db0fbdccd5c328d57ef6bbe975724ba9361427c60059861401e6140ac9661422d8b6117aa565b6142378154613f51565b905560055f5260116020527fc550213cee30afd5e67ccba7be3d381bbc169034ae08eb3ec9168caca9fe55e761426d8154613232565b9055805460ff19166005179055565b61428e865f52600a60205260405f2090565b6142966105bd565b914283526142a78960208501612c11565b600560408401525b33606084015284608084015260a083015261344c565b6142d7815f52600960205260405f2090565b90600782016142e7815460ff1690565b926142f1846109ba565b600284146141b7576002946143806140ac9261401e7f3ded1956998639cfc41b20afdf29138d8db0fbdccd5c328d57ef6bbe975724ba95614331896117aa565b61433b8154613f51565b905560025f5260116020527f08037d7b151cc412d25674a4e66b334d9ae9d2e5517a7feaae5cdb828bf1c6286143718154613232565b9055805460ff19166002179055565b6141ae614395855f52600a60205260405f2090565b61439d6105bd565b904282526143ae8860208401612c11565b60026040830152614074565b6143cc815f52600960205260405f2090565b92600784016143dc815460ff1690565b936143e6856109ba565b600385146140b1576141ae7f3ded1956998639cfc41b20afdf29138d8db0fbdccd5c328d57ef6bbe975724ba9361447860039861401e6140ac966144298b6117aa565b6144338154613f51565b905560035f5260116020527f9bfbaa59f8e10e7868f8b402de9d605a390c45ddaebd8c9de3c6f31e733c87ff6144698154613232565b9055805460ff19166003179055565b61448a865f52600a60205260405f2090565b6144926105bd565b914283526144a38960208501612c11565b600360408401526142af565b90926144c3825f52600960205260405f2090565b9260078401906144d4825460ff1690565b946144de876109ba565b6144e7866109ba565b868614614560577f3ded1956998639cfc41b20afdf29138d8db0fbdccd5c328d57ef6bbe975724ba9361452861408b9261401e8a6140ac97613ff88c6117aa565b61453a865f52600a60205260405f2090565b6145426105bd565b914283526145538960208501612c11565b6142af8a60408501612c11565b50505050505050565b60ff6006541661457557565b60046040517fd93c0665000000000000000000000000000000000000000000000000000000008152fd5b9060058110156109a85760ff80198354169116179055565b600b6146fe6101c06105bb94805185556145d8602082015160018701613388565b614641600286016145f660408401516145f08161099e565b8261459f565b606083015181547fffffffffffffffffffffff0000000000000000000000000000000000000000ff1660089190911b74ffffffffffffffffffffffffffffffffffffffff0016179055565b614652608082015160038701613388565b60a0810151600486015560c0810151600586015560e081015160068601556146cf6007860161468f610100840151614689816109ba565b826132b4565b6146bb6146a0610120850151151590565b828054909161ff001990911690151560081b61ff0016179055565b6101408301516001600160a01b03166134d6565b610160810151600886015561018081015160098601556101a0810151600a86015501516001600160a01b031690565b9101906001600160a01b03166001600160a01b0319825416179055565b906147c36105bb928251925f6020820151916147368361099e565b60a081015160c082015160e08301519161476b61012080950151966147596105ae565b9a898c5260208c015260408b01612c05565b3360608a0152608089015260a0880181905260c088015260e087015261010086018290528501525f6101408501819052610160850152610180840152426101a0840152336101c08401525f52600960205260405f2090565b6145b7565b92906001600160a01b0384161561296857614802604051916001835260208301526040820190600182526001606084015260808301604052565b909161480f828487614e0f565b5f94855b845187101561485f576148576001918860051b90614845602080848a010151938a0101515f52600360205260405f2090565b61485083825461366b565b905561366b565b960195614813565b6148799195949296506148749060045461366b565b600455565b805160010361489757906020806105bb959301519101519133614d7e565b6105bb9333614b86565b8054680100000000000000008110156104f5576148c39160018201815561159f565b819291549060031b91821b915f19901b1916179055565b9060c090826148e982516107fc565b55335f52600d6020526148ff8360405f206148a1565b61491660a08201936149118551610822565b6148a1565b018051335f52600f60205260405f208054918201809211613240575561493e815192516107d6565b908154928301809311613240579190555f805260116020526105bb90614994907f4ad3b33220dddc71b994a52d72c06b10862965f7d926534c05c00fb7e819e7b76149898154613232565b90555160085461366b565b600855565b919392906149a982868386614f21565b6001600160a01b0380841615614a64575b81161580614a06575b156149cf575050505050565b84516001036149f5576020806149eb9601519201519233614db3565b5f808080806141b7565b614a0194919233614c7f565b6149eb565b94935f939091845b8651861015614a4c576001908660051b90614a3d602080848a010151938b0101515f52600360205260405f2090565b82815403905501950194614a0e565b614a5f9193969792955060045403600455565b6149c3565b9591925f94915f955b8751871015614aa757614a9f6001918860051b90614845602080848c010151938d0101515f52600360205260405f2090565b960195614a6d565b614abf9193965061487490989295949860045461366b565b6149ba565b9081602091031261034e5751610664816103c5565b92614b0861066495936001600160a01b03614b16941686525f602087015260a0604087015260a0860190611053565b908482036060860152611053565b916080818403910152610860565b93906106649593614b0891614b16946001600160a01b03809216885216602087015260a0604087015260a0860190611053565b3d15614b81573d90614b68826105d7565b91614b76604051938461056b565b82523d5f602084013e565b606090565b9293919093843b614b98575050505050565b602091614bbb604051948593849363bc197c8160e01b9889865260048601614ad9565b03815f6001600160a01b0388165af15f9181614c4e575b50614c115782614be0614b57565b8051919082614c0a57604051632bfa23e760e11b81526001600160a01b0383166004820152602490fd5b6020915001fd5b6001600160e01b03191603614c2b57505f808080806141b7565b604051632bfa23e760e11b81526001600160a01b03919091166004820152602490fd5b614c7191925060203d602011614c78575b614c69818361056b565b810190614ac4565b905f614bd2565b503d614c5f565b939290949194853b614c9357505050505050565b614cb6602093604051958694859463bc197c8160e01b998a875260048701614b24565b03815f6001600160a01b0388165af15f9181614cf6575b50614cdb5782614be0614b57565b6001600160e01b03191603614c2b57505f80808080806140b1565b614d1091925060203d602011614c7857614c69818361056b565b905f614ccd565b909260a0926001600160a01b0361066496951683525f6020840152604083015260608201528160808201520190610860565b919261066495949160a0946001600160a01b038092168552166020840152604083015260608201528160808201520190610860565b9293919093843b614d90575050505050565b602091614bbb604051948593849363f23a6e6160e01b9889865260048601614d17565b939290949194853b614dc757505050505050565b614cb6602093604051958694859463f23a6e6160e01b998a875260048701614d49565b9091614e0161066493604084526040840190611053565b916020818403910152611053565b9190918251825190818103612db15750505f5b8351811015614e83578060019160051b8360208083890101519287010151916001600160a01b038216614e59575b50505001614e22565b614e7991611726614e71925f525f60205260405f2090565b91825461366b565b90555f8381614e50565b509160018151145f14614ee2576020908101519181015160408051938452918301526001600160a01b0392909216915f9133917fc3d58168c5ae7397731d063d5bbf3d657854427343f4c083240f7aacaa2d0f629190819081016140ac565b7f4a39dc06d4c0dbc64b70af90fd698a233a518aa5d07e595d983b8c0526c8f7fb6001600160a01b035f93946140ac6040519283921696339583614dea565b9392918051835190818103612db15750505f5b815181101561502f578060051b9060208083850101519286010151846001600160a01b0393848a16614f96575b6001948216614f74575b50505001614f34565b614f8c91611726614e71925f525f60205260405f2090565b90555f8481614f6b565b9192939050614fb089611726845f525f60205260405f2090565b54838110614fdf5791869184600196959403614fd78c611726855f525f60205260405f2090565b559450614f61565b6040517f03dee4c50000000000000000000000000000000000000000000000000000000081526001600160a01b038b16600482015260248101919091526044810184905260648101839052608490fd5b508051939493919291600103615091576020908101519181015160408051938452918301526001600160a01b03928316939092169133917fc3d58168c5ae7397731d063d5bbf3d657854427343f4c083240f7aacaa2d0f6291819081016140ac565b90917f4a39dc06d4c0dbc64b70af90fd698a233a518aa5d07e595d983b8c0526c8f7fb906001600160a01b03906140ac8260405193849316971695339583614dea56fea26469706673582212208054ffa4ce0f41a24f5c60387a5d2def93ce003610abdd43691bf0acaf160a8364736f6c634300081800332f8788117e7eff1d82e926ec794901d17c78024a50270940304540a733656f0d05b8ccbb9d4d8fb16ea74ce3c29a41f1b461fbdaff4714a0d9a8eb05499746bc","linkReferences":{}},"methodIdentifiers":{"AUDITOR_ROLE()":"6e1d616e","DEFAULT_ADMIN_ROLE()":"a217fddf","ISSUER_ROLE()":"82aefa24","PAUSER_ROLE()":"e63ab1e9","VALIDATOR_ROLE()":"c49baebe","activateReceivable(uint256,string)":"80661567","addNotes(uint256,string)":"d9ed28b7","balanceOf(address,uint256)":"00fdd58e","balanceOfBatch(address[],uint256[])":"4e1273f4","cancelReceivable(uint256,string,bytes32)":"64cd3327","cnpjReceivables(string,uint256)":"5fec78ea","cnpjTotalOwed(string)":"09bc2dad","documentNumberToTokenId(string)":"302d9276","exists(uint256)":"4f558e79","getCNPJReceivables(string)":"83c32cad","getCNPJSummary(string)":"a142404c","getIssuerReceivables(address)":"8dd158fd","getPaymentHistory(uint256)":"4e02503a","getProtocolStats()":"771aceef","getReceivableDetails(uint256)":"188789ce","getRoleAdmin(bytes32)":"248a9ca3","getStatusHistory(uint256)":"58a20b3b","grantRole(bytes32,address)":"2f2ff15d","hasRole(bytes32,address)":"91d14854","isApprovedForAll(address,address)":"e985e9c5","isDocumentTokenized(string)":"e5d32d6e","issuerReceivables(address,uint256)":"b1f9741f","issuerTotalValue(address)":"078d7adf","markAsOverdue(uint256,string)":"fd537c25","pause()":"8456cb59","paused()":"5c975abb","paymentHistory(uint256,uint256)":"b27062db","receivables(uint256)":"5267eecb","recordPayment(uint256,uint256,string,string,bytes32)":"e7296d4b","renounceRole(bytes32,address)":"36568abe","revokeRole(bytes32,address)":"d547741f","safeBatchTransferFrom(address,address,uint256[],uint256[],bytes)":"2eb2c2d6","safeTransferFrom(address,address,uint256,uint256,bytes)":"f242432a","setApprovalForAll(address,bool)":"a22cb465","setURI(string)":"02fe5305","statusCount(uint8)":"686fbf07","statusHistory(uint256,uint256)":"a6ec1215","supportsInterface(bytes4)":"01ffc9a7","tokenizeReceivable((string,uint8,string,string,string,string,uint256,uint256,string,bytes32,string))":"80ed04a9","totalSupply()":"18160ddd","totalSupply(uint256)":"bd85b039","unpause()":"3f4ba83a","updateIPFSHash(uint256,string)":"80a69c2a","uri(uint256)":"0e89341c","validateReceivable(uint256,bool,string,uint256)":"9757c6be"},"id":20}